:100000000C94FB010C9423020C9423020C94230205
:100010000C9423020C9423020C9423020C942302CC
:100020000C9423020C9423020C94D30D0C94450ED3
:100030000C9423020C9423020C9423020C942302AC
:100040000C9423020C9423020C9423020C9423029C
:100050000C9423020C9423020C9423020C94531648
:100060000C9423020C9423020C9423020C9423027C
:100070000C9423020C9423020C9423020C9423026C
:100080000C9423020C9423020C9423020C9423025C
:100090000C94C5030C9423020C9423020C942302A9
:1000A0000C9423020C9423020C9423027D148014DC
:1000B0006F1473147714A114A114A1148414881458
:1000C0008C1492149614A1149C1407634236B79BA7
:1000D000D8A71A39685618AEBAAB558C1D3CB7CCA8
:1000E0005763BD6DEDFD753EF6177231BF00000020
:1000F000803F08000000BE922449123EABAAAA2A03
:10010000BECDCCCC4C3E00000080BEABAAAAAA3E1D
:1001100000000000BF000000803F00000000000859
:100120004178D3BB4387D1133D190E3CC3BD4282F6
:10013000AD2B3E68EC8276BED98FE1A93E4C80EFB4
:10014000FFBE01C4FF7F3F00000000004150555F2B
:10015000535441525445520045585445524E414C17
:1001600020504F574552204F4E004655454C53594D
:100170005354454D2056414C5645205357495443FE
:10018000483A3800424C4545442041495220534F9B
:100190005552434520434F4E54524F4C0041505509
:1001A0002047454E455241544F52205357495443DE
:1001B00048004252414B45205041524B494E472046
:1001C000494E44494341544F52005448524F5454AD
:1001D0004C455F524556455253455F54485255531E
:1001E000545F544F47474C450053504F494C45527C
:1001F000535F41524D5F534554004150555F474551
:100200004E455241544F525F5357495443485F54EF
:100210004F47474C45004150555F424C4545445F70
:100220004149525F534F555243455F544F47474CE6
:100230004500544F47474C455F45585445524E4141
:100240004C5F504F574552005345545F4155544FF2
:100250004252414B455F434F4E54524F4C00504128
:10026000524B494E475F4252414B4553004655451C
:100270004C53595354454D5F50554D505F544F4763
:10028000474C45004655454C53595354454D5F56D0
:10029000414C56455F544F47474C4500414E5449E9
:1002A000534B4944204252414B455320414354490A
:1002B0005645009C0284026D025E0248023202161C
:1002C00002FA01E901CA01B2019D0184016A0158E3
:1002D000014C017B44443745333832362D453433A5
:1002E000392D343438342D423138362D46313434BA
:1002F00033463342433532327D00080B000202029E
:1003000001000904000001020200000524001001A0
:100310000524010101042402060524060001070545
:10032000810310004009040100020A0000000705D3
:100330000202400000070583024000000403090494
:1003400012010002EF020140412336800001010248
:10035000030141726475696E6F204C4C4300417219
:100360006475696E6F204C656F6E6172646F00001A
:1003700000000200090F0000030401000C0000004F
:10038000000000000000000000000000000000006D
:100390000000250028002B002E0031000000000086
:1003A000240027002A002D00300004040404040364
:1003B0000405020202020403020202020606060605
:1003C000060604040202020404040802011040802C
:1003D000401020408040800802040180402010022C
:1003E0000110801020404020070605040100080A83
:1003F0000B0C0D09DA1D11241FBECFEFDAE0DEBFB2
:10040000CDBF12E0A0E0B1E0E2ECFAE402C005905A
:100410000D92AA3EB107D9F728E0AAEEB2E001C0DA
:100420001D92AE32B207E1F711E0CBEFD1E004C08C
:100430002197FE010E94A620CA3FD107C9F70E945A
:100440000F170C945F250C94000085ED8093BC0081
:100450008091BC0084FDFCCF1092920308954091DE
:100460000C03262F30E0240F311D21323105DCF43E
:10047000209192032430C9F4FC0180E090E08617BB
:1004800058F430910C032191DC01A451BD4FA30F0E
:10049000B11D2C930196F3CF80910C03680F6093EC
:1004A0000C0380E0089581E0089582E008950895A6
:1004B00008950895E0914B0380914A03E81730F4C2
:1004C000F0E0E45BFC4F808190E008958FEF9FEFB8
:1004D000089590914B0380914A03981750F4E92FA7
:1004E000F0E0E45BFC4F208130E09F5F90934B0392
:1004F00002C02FEF3FEFC901089580914A0390E0B9
:1005000020914B03821B91090895CF92DF92EF92C5
:10051000FF920F931F93CF93DF937C01CB018A014E
:1005200020919303222389F0EB016B01C40ED51EA9
:10053000CC15DD0569F06991D701ED91FC91019031
:10054000F081E02DC7010995F3CF642F0E942F029F
:10055000C801DF91CF911F910F91FF90EF90DF9035
:10056000CF900895CF93DF931F92CDB7DEB7698305
:10057000209193032223D1F02091B603203240F042
:1005800021E030E0FC013383228380E090E015C05D
:1005900080919403E82FF0E0EB56FC4F9981908313
:1005A0008F5F809394038093B60305C061E0CE0112
:1005B00001960E942F0281E090E00F90DF91CF9191
:1005C0000895089580E090E0089508950E946915C7
:1005D00021E0672B682B692B09F020E02093EB02C8
:1005E00008950E946915462F6AE081E393E00C9418
:1005F00001110E946915462F64E081E393E00C9499
:1006000001110E946915462F6BE081E393E00C9481
:1006100001110E94691541E0672B682B692B09F0D5
:1006200040E068E081E393E00C9401110E946915B9
:10063000462F69E081E393E00C9401110E94691553
:10064000462F6EE081E393E00C9401110E9469153E
:10065000462F6CE081E393E00C9401110E94691530
:10066000462F6DE081E393E00C9401110E9469151F
:10067000462F6FE081E393E00C9401110E9469150D
:10068000462F67E081E393E00C9401110E94691505
:10069000462F65E081E393E00C9401110E946915F7
:1006A000462F66E081E393E00C940111CF93DF9332
:1006B0000E946915EB0163E187E393E00E94DC107F
:1006C00085FB882780F991E0892790E0C817D90732
:1006D00069F080911304811109C061E0CD2B09F00C
:1006E00060E089E1DF91CF910C947E15DF91CF918D
:1006F0000895CF93DF930E946915EB0163E187E3CF
:1007000093E00E94DC108295817091E0892790E04F
:10071000C817D90769F080911304811109C061E0FD
:10072000CD2B09F060E08AE1DF91CF910C947E152A
:10073000DF91CF9108950F931F93CF93DF93CDB7A0
:10074000DEB7AD970FB6F894DEBF0FBECDBF8C01FC
:10075000FB01EE0FFF1FED54FD4F65917491CE012B
:1007600001960E949C1EBE016F5F7F4FC8010E94D0
:10077000BE0DC801AD960FB6F894DEBF0FBECDBF5B
:10078000DF91CF911F910F9108951F920F920FB695
:100790000F9211242F933F934F935F936F937F9307
:1007A0008F939F93AF93BF93EF93FF938091B90083
:1007B000887F803609F49CC068F5883209F45BC0F4
:1007C00090F4803109F454C038F4882309F4F6C059
:1007D000883009F44DC0F6C0883109F44CC080322D
:1007E00009F45DC0EFC0803409F468C048F4803378
:1007F00009F455C0883309F0E5C080939003D8C050
:10080000803509F44FC0883509F45DC0883409F09B
:10081000D9C0D6C0883909F4C7C0A8F4883709F40C
:1008200067C038F4883609F463C0803709F460C0C3
:10083000C9C0883809F4B8C0803909F45FC080386D
:1008400009F0C0C05BC0803B09F486C038F4803A30
:1008500009F466C0883A09F47FC0B4C0803C09F44A
:10086000A7C0883C09F4A4C0883B09F48AC0AAC088
:1008700080916D0310C090918F0380918E03981723
:1008800070F5E0918F0381E08E0F80938F03F0E08D
:10089000E259FC4F80818093BB0085EC86C0809339
:1008A00090038EC0E0918F0381E08E0F80938F03C1
:1008B0008091BB00F0E0E259FC4F808390918F0360
:1008C00080918E036EC0E0918F0381E08E0F809344
:1008D0008F038091BB00F0E0E259FC4F8083809150
:1008E000910381116DC081E080936C0384EA61C043
:1008F00083E08093920310922E03CFCF80912E033A
:10090000803208F051C0E0912E0381E08E0F809379
:100910002E038091BB00F0E0E25FFC4F8083BDCFEF
:1009200085EC8093BC001092920380912E0380325C
:1009300030F4E0912E03F0E0E25FFC4F1082609112
:100940002E0370E0E0911508F09116088EE093E018
:10095000099510922E0336C084E080939203109282
:100960000D0310920C03E0911708F09118080995F7
:1009700080910C03811105C081E080930C031092DB
:10098000EC02E0910D0381E08E0F80930D03F0E007
:10099000E451FD4F80818093BB0090910D038091C5
:1009A0000C03981708F479CF85E88093BC000AC03F
:1009B00085EC8093BC001092920304C010929003C7
:1009C0000E942502FF91EF91BF91AF919F918F916E
:1009D0007F916F915F914F913F912F910F900FBE3B
:1009E0000F901F901895CF92DF92EF92FF920F9386
:1009F0001F93CF93DF9300D01F92CDB7DEB7209126
:100A00001401309115014091160129833A834B83DB
:100A1000882329F09AE5E92E91E0F92E04C085E7B4
:100A2000E82E81E0F82E8E010F5F1F4F6E0184E0EB
:100A3000C80ED11C84E00E948713C7010E944D128A
:100A400080911304882321F0F80180810E940B1209
:100A50000E94FE120F5F1F4F0C151D0559F70F90D6
:100A60000F900F90DF91CF911F910F91FF90EF901A
:100A7000DF90CF900895CF92DF92EF92FF920F9385
:100A80001F93CF93DF93CDB7DEB72C970FB6F894B3
:100A9000DEBF0FBECDBF0E9469156B017C0162E114
:100AA00084E393E00E94DC1021E030E0CD28CE28E2
:100AB000CF2811F420E030E085FB002700F910E09A
:100AC0002017310711F163E070E0CE0107960E9414
:100AD0009B0380911304811114C084E00E9487134A
:100AE000BE01695F7F4FCE0101960E94A40DCE0129
:100AF00001960E941D15CE0101960E949F0D0E9435
:100B0000FE12CE0107960E949F0D2C960FB6F89408
:100B1000DEBF0FBECDBFDF91CF911F910F91FF9030
:100B2000EF90DF90CF900895CF92DF92EF92FF92F7
:100B30000F931F93CF93DF93CDB7DEB76E970FB6AA
:100B4000F894DEBF0FBECDBF6C017B018A0181E04E
:100B50000E94871381E991E00E944D12C6010E9414
:100B60008B12B801CE01EF2899F043960E94BE0D7A
:100B70006BE971E0CE010D960E94BE0DBE016D5E67
:100B80007F4FCE010D960E941C1300E011E012C0B1
:100B900007960E94BE0D61EA71E0CE0101960E94A7
:100BA000BE0DBE01695F7F4FCE0101960E941C13EE
:100BB00001E010E0BC01CE0149960E94A40DCE01D7
:100BC00049960E946812CE0149960E949F0D00230B
:100BD00041F0CE0101960E949F0DCE0107960E9422
:100BE0009F0D112341F0CE010D960E949F0DCE0165
:100BF00043960E949F0D0E94FE126E960FB6F894C7
:100C0000DEBF0FBECDBFDF91CF911F910F91FF903F
:100C1000EF90DF90CF900895CF92DF92EF92FF9206
:100C20000F931F93CF93DF93CDB7DEB7AA970FB67D
:100C3000F894DEBF0FBECDBF0E94A912882351F0E9
:100C400081E080935D0680935E0600915F061091BF
:100C5000600604C010925E0600E010E06DEA71E0EC
:100C6000C8010E944F25892B79F580E00E948713E7
:100C700082EB91E00E944D1280911304811105C016
:100C800087EB91E00E944D1245C06091670680910C
:100C90006406909165060E948310E0906406F090CF
:100CA000650603ED12E0F8016491662349F3D7016C
:100CB000ED91FC910190F081E02DC70109950F5F46
:100CC0001F4F892B81F7DCCF67EC71E0C8010E94D0
:100CD0004F25892B11F580E00E9487138CEC91E061
:100CE0000E944D120E9469156B017C0180911304D2
:100CF000882381F060916706809164069091650673
:100D00000E948310B701A601809164069091650648
:100D10000E94D9110E94FE12C3C161ED71E0C801A9
:100D20000E944F25892B09F07FC18CE0E7E1F1E0BB
:100D3000DE011D9601900D928A95E1F78CE0E3E2C9
:100D4000F1E0DE01119601900D928A95E1F78E0196
:100D5000035F1F4FFE0131967F016E01F9E1CF0E57
:100D6000D11CD8016D917D918D01CE014F960E94CD
:100D70004F1368ED71E0C6010E94BE0DBE01615EB9
:100D80007F4FC6010E941C13FC014081518161E02C
:100D900070E0D7018D919D917D010E949405C6015F
:100DA0000E949F0DCE014F960E949F0D0C151D05B0
:100DB000C1F640EF51E061E070E080E190E00E9418
:100DC000940560E070E0C8010E949B03498D5A8D34
:100DD00060E070E082E190E00E949405C8010E940A
:100DE0009F0D4AE052E060E070E083E190E00E94F5
:100DF00094056AE070E0C8010E949B03498D5A8DFA
:100E000060E070E084E190E00E949405C8010E94D7
:100E10009F0D6BE070E0C8010E949B03498D5A8DC5
:100E200060E070E085E190E00E949405C8010E94B6
:100E30009F0D6CE070E0C8010E949B03498D5A8DA4
:100E400060E070E086E190E00E949405C8010E9495
:100E50009F0D6DE070E0C8010E949B03498D5A8D83
:100E600061E070E087E190E00E949405C8010E9473
:100E70009F0D6EE070E0C8010E949B03498D5A8D62
:100E800061E070E088E190E00E949405C8010E9452
:100E90009F0D4FE152E061E070E08FE190E00E9431
:100EA00094056AE272E0CE0185960E94BE0D6AE268
:100EB00072E0CE014F960E94BE0D6CE272E0C80156
:100EC0000E94BE0D9E012B5D3F4FAE01415E5F4F04
:100ED000B80189E190E00E949D16C8010E949F0D13
:100EE000CE014F960E949F0DCE0185960E949F0DC8
:100EF0006AE272E0CE0185960E94BE0D6AE272E05F
:100F0000CE014F960E94BE0D69E472E0C8010E94B6
:100F1000BE0D9E012B5D3F4FAE01415E5F4FB8019C
:100F20008AE190E00E949D16C8010E949F0DCE01AB
:100F30004F960E949F0DCE0185960E949F0D6AE2FA
:100F400072E0CE0185960E94BE0D6AE272E0CE018B
:100F50004F960E94BE0D66E672E0C8010E94BE0D6B
:100F60009E012B5D3F4FAE01415E5F4FB8018BE1AB
:100F700090E00E949D16C8010E949F0DCE014F96E1
:100F80000E949F0DCE0185960E949F0D6AE272E03D
:100F9000CE0185960E94BE0D6AE272E0CE014F96A8
:100FA0000E94BE0D61E872E0C8010E94BE0D9E0164
:100FB0002B5D3F4FAE01415E5F4FB8018CE190E089
:100FC0000E949D16C8010E949F0DCE014F960E945F
:100FD0009F0DCE0185960E949F0D6AE272E0CE01C0
:100FE00085960E94BE0D6AE272E0CE014F960E9485
:100FF000BE0D6CE972E0C8010E94BE0D9E012B5D22
:101000003F4FAE01415E5F4FB80180E290E00E9429
:101010009D16C8010E949F0DCE014F960E949F0D04
:10102000CE0185960E949F0D80911304811108C006
:101030000E94871381ED91E00E944D120E94FE12E2
:101040008091F407882319F06FEF7FEF02C061E011
:1010500070E089E10E9455158091EA07811103C073
:1010600061E070E002C06FEF7FEF8AE10E945515EA
:1010700080910808813019F06FEF7FEF02C061E0C6
:1010800070E08BE10E9455158091FE07813019F0C8
:101090006FEF7FEF02C061E070E08CE10E945515B8
:1010A000AA960FB6F894DEBF0FBECDBFDF91CF91E9
:1010B0001F910F91FF90EF90DF90CF900895EF92E6
:1010C000FF920F931F93CF93DF93CDB7DEB7629755
:1010D0000FB6F894DEBF0FBECDBF8C0140E061E0DB
:1010E00081E393E00E94011140E060E081E393E03E
:1010F0000E94011140E067E084E393E00E94011147
:101100008091EB02882319F00330110531F483E05C
:1011100090E090930101809300018091EA0288237E
:1011200009F442C08091000190910101011511055F
:1011300081F4892B19F440E061E012C041E061E0E4
:1011400081E393E00E9401111092010110920001CD
:101150002BC001301105A1F4019769F440E060E073
:1011600081E393E00E94011183E090E090930101FC
:101170008093000119C041E060E081E393E00EC07C
:101180000230110589F4029729F440E067E084E316
:1011900093E0E8CF41E067E084E393E00E9401112F
:1011A00010930101009300018091000190910101D1
:1011B0008330910561F08230910569F081309105AD
:1011C00071F0892B79F432E0E32EF12C0BC0EE2480
:1011D000E394F12C07C094E0E92EF12C03C083E0E6
:1011E000E82EF12C84E00E94871364E070E0CE01C9
:1011F00007960E949B0361EA71E0CE0101960E946E
:10120000BE0DBE01695F7F4FCE0101960E941C1387
:10121000BC01CE010D960E94A40DCE010D960E9438
:101220006812CE010D960E949F0DCE0101960E947C
:101230009F0DCE0107960E949F0DC7010E948B1241
:101240000E94FE1262960FB6F894DEBF0FBECDBFAD
:10125000DF91CF911F910F91FF90EF9008950E9421
:10126000691521E0611571058105910509F420E0FA
:101270002093EA02672B682B692B21F483E090E02E
:101280000C945F080895CF92DF92EF92FF920F9334
:101290001F93CF93DF93CDB7DEB7EC970FB6F894DB
:1012A000DEBF0FBECDBF8C016C0180EAC80ED11C21
:1012B000F80180818F3F09F469C1F480FF2009F4AF
:1012C00065C1218132812115310509F0D9C0938191
:1012D000913009F059C16781208531856430A1F4CE
:1012E0002430310519F482E090E005C02330310547
:1012F00029F481E090E00E945F0846C12230310568
:1013000019F480E090E0F7CF29313C4F09F062C03A
:10131000F8018581968170E0892B99F0CE01C796FE
:101320000E949B036BE971E0CE01C1960E94BE0D45
:10133000BE01695C7F4FCE01C1960E941C13E12C57
:1013400013C0CE018B960E949B0361EA71E0CE012F
:1013500085960E94BE0DBE01655D7F4FCE018596CC
:101360000E941C13EF2CF12CBC01CE0107960E94A9
:10137000A40D80911304811115C0F80180810E9491
:101380008713BE01695F7F4FCE0101960E94A40DB5
:10139000CE0101960E946812CE0101960E949F0D17
:1013A0000E94FE12CE0107960E949F0DEE2041F092
:1013B000CE0185960E949F0DCE018B960E949F0DB7
:1013C000FF2009F4E1C0CE01C1960E949F0DCE011D
:1013D000C7967EC00E948713F80185819681678138
:1013E00070E0892B99F0CE014F960E949B036BE928
:1013F00071E0CE0149960E94BE0DBE01615E7F4F35
:10140000CE0149960E941C13E12C13C0CE014396D5
:101410000E949B0361EA71E0CE010D960E94BE0D11
:10142000BE016D5E7F4FCE010D960E941C13EF2C06
:10143000F12CBC01CE0101960E94A40DCE010196B3
:101440000E946812CE0101960E949F0DEE2041F08D
:10145000CE010D960E949F0DCE0143960E949F0DD6
:10146000FF2041F0CE0149960E949F0DCE014F967C
:101470000E949F0DF801808591850E948B1282C089
:101480002230310541F5F801843011F063815DC0EF
:10149000678170E0CE0107960E949B038091130440
:1014A000811114C084E00E948713BE01695F7F4FE1
:1014B000CE0101960E94A40DCE0101960E941D1539
:1014C000CE0101960E949F0D0E94FE12CE0107964A
:1014D0000E949F0D59C02130310509F055C0F80117
:1014E000258136812230310599F58B3139F128F487
:1014F000893161F08A31A9F047C08C3119F180320D
:1015000009F042C0F801638180E21FC0F8018381C5
:10151000811103C061E070E002C06FEF7FEF89E1ED
:101520000AC0F8018381811103C061E070E002C04C
:101530006FEF7FEF8AE10E94551526C0F8016381A5
:101540008BE103C0F80163818CE10E9440151CC04F
:1015500084E00E948713F801678170E0CE01019654
:101560000E949B03CE0101960E941D15CE0101969B
:101570000E949F0D80911304882321F0F80183813C
:101580000E940B120E94FE12F8011482065F1F4F88
:10159000C016D10609F08CCEEC960FB6F894DEBFDB
:1015A0000FBECDBFDF91CF911F910F91FF90EF90B4
:1015B000DF90CF900895CF92DF92EF92FF920F933A
:1015C0001F93CF93DF93CDB7DEB762970FB6F89432
:1015D000DEBF0FBECDBF8C016B0184E00E9487137C
:1015E000B801CE0107960E944F136BEA72E0CE015C
:1015F00001960E94BE0DBE01695F7F4FCE0101962C
:101600000E941C138C01FC01E480F580F4E0EF0ED5
:10161000F11CB7010E94450D8823B9F1F801208122
:1016200031818481958168ED72E0820F931F0E9461
:101630005825F801F582E482B801CE010D960E948A
:10164000A40DCE010D960E946812CE010D960E9447
:101650009F0DCE0101960E949F0DCE0107960E941C
:101660009F0DC6010E948B120E94FE1262960FB659
:10167000F894DEBF0FBECDBFDF91CF911F910F91C8
:10168000FF90EF90DF90CF900895C8010E946C0DFD
:10169000D3CF4091460350914703209144033091AA
:1016A000450342175307B4F49091E8009570E1F3B5
:1016B0009091E80092FD19C08093F100809146035B
:1016C0009091470301968F739927892B19F48EEF18
:1016D0008093E80080914603909147030196909390
:1016E00047038093460381E0089580E00895DF92E8
:1016F000EF92FF920F931F93CF93DF93D82EF92E83
:10170000E42E062F10E0C8010196880F0E94490BB5
:1017100083E00E94490BCD2DDF2D0C0F1D1FC0173C
:10172000D10789F0E7FE03C0FE01849101C08881E2
:101730000E94490BF82E80E00E94490B8F212196D0
:101740008111EDCF01C081E0DF91CF911F910F9109
:10175000FF90EF90DF900895DF92EF92FF920F934A
:101760001F93CF93DF93D82E8A017B01E40EF51EE1
:10177000EB01CE15DF0571F0D7FE03C0FE018491A9
:1017800001C088810E94490B21968111F2CF8FEF11
:101790009FEF01C0C801DF91CF911F910F91FF9082
:1017A000EF90DF900895615030F02091F100FC013E
:1017B00020830196F8CF289884E680931308089533
:1017C000CF92DF92EF92FF920F931F93CF93DF930D
:1017D0006C017A018B01C0E0D0E0CE15DF0581F00D
:1017E000D8016D918D01D601ED91FC910190F081B0
:1017F000E02DC6010995892B11F02196EECF7E01CF
:10180000C701DF91CF911F910F91FF90EF90DF9073
:10181000CF900895CF93DF931F92CDB7DEB7698342
:10182000DC01ED91FC910280F381E02D41E050E07C
:10183000BE016F5F7F4F09950F90DF91CF910895A3
:1018400083E08093E9008091F200882319F08AE315
:101850008093E8000895FC018485958597FD0BC071
:101860009FB7F89482E08093E9008091F2009FBFD7
:1018700090E0019608959FB7F89482E08093E90084
:101880008091F2009FBF90E008950E9441250F9340
:101890001F93CF93DF931F92CDB7DEB782E089838A
:1018A00042E450E06AEF72E080E80E94AC0B0E94D4
:1018B000DA15DC0112960D911C9113970115110593
:1018C00089F0D801ED91FC910280F381E02DBE01F9
:1018D0006F5F7F4FC801099597FD04C0F80100852F
:1018E0001185ECCF89810F90DF91CF911F910F91DE
:1018F00008958F929F92AF92BF92CF92DF92EF9214
:10190000FF920F931F93CF93DF936C017B018A01AA
:1019100080910D01882309F45CC08091140888230C
:1019200009F457C080912F0380FF05C08091E0002B
:1019300082608093E000E801B12C8AEFA82E93E04A
:10194000892E2AE3922E209711F4BB20D9F10E9410
:10195000C91581110AC0AA94AA20D9F161E070E0EA
:1019600080E090E00E941916EECF282F30E0C217D9
:10197000D3070CF48C2F9FB7F8948092E900209144
:10198000E80025FF1DC0282F30E0C21BD30BF70154
:10199000815020F041914093F100FACFE20EF31E06
:1019A000BB2019F09092E8000AC08091E80085FD04
:1019B00007C09092E800BB24B394209709F0B12CA3
:1019C0009FBFC1CF5D9884E680934903101611062E
:1019D00044F081E090E0F6019383828380E090E020
:1019E00001C0C801DF91CF911F910F91FF90EF903F
:1019F000DF90CF90BF90AF909F908F9008950E94FE
:101A0000C91590E008950F931F93CF93DF931F9212
:101A1000CDB7DEB78C01FC018485958597FF0EC09C
:101A2000CE0101960E949B15019719F4898190E0DF
:101A300002C08FEF9FEFF80195878487F8018485B6
:101A400095850F90DF91CF911F910F910895CF93BE
:101A5000DF931F92CDB7DEB7FC018485958597FD96
:101A600005C02FEF3FEF358724870BC0CE010196CD
:101A70000E949B15019719F4898190E002C08FEFB5
:101A80009FEF0F90DF91CF9108950F931F93CF9306
:101A9000DF93EC0188819981009729F02A813B81AD
:101AA0002617370788F48B016F5F7F4F0E947B24D6
:101AB000009761F0998388831B830A832C813D8181
:101AC000232B11F4FC01108281E001C080E0DF9142
:101AD000CF911F910F910895CF93DF93EC018881EF
:101AE0009981009711F00E94F223198218821D82B9
:101AF0001C821B821A82DF91CF910895EF92FF9290
:101B00000F931F93CF93DF93EC017B018A01BA01FE
:101B10000E94450D811104C0CE010E946C0D07C0CA
:101B20001D830C83B701888199810E945825CE01BD
:101B3000DF91CF911F910F91FF90EF900895FC01DD
:101B4000808191810C94F223FB01DC0111961C929F
:101B50001E9213961C921E92129715961C921E921C
:101B600014978617970749F0608171816115710597
:101B700021F0448155810C947E0D0895FC01118261
:101B8000108213821282158214826115710551F040
:101B9000FB0101900020E9F73197AF01461B570B7D
:101BA0000C947E0D08951F920F920FB60F92112480
:101BB0008F939F938091E1009091E100937F9093A8
:101BC000E10083FF0FC01092E90091E09093EB00D9
:101BD0001092EC0092E39093ED001092140898E0BC
:101BE0009093F00082FF20C093E09093E9009091E1
:101BF000F200992319F09AE39093E8009091490339
:101C0000992339F090914903915090934903992376
:101C100089F190911308992339F09091130891500C
:101C200090931308992341F184FF10C08091E20042
:101C30008E7E81608093E2008091E1008F7E8093B0
:101C4000E10080912F038E7E806111C080FF16C05D
:101C50008091E2008E7E80618093E2008091E100BD
:101C60008E7E8093E10080912F038E7E8160809331
:101C70002F0304C05D9ACDCF289AD6CF9F918F9124
:101C80000F900FBE0F901F9018951F920F920FB6D6
:101C90000F921124CF92DF92EF92FF920F931F9336
:101CA0002F933F934F935F936F937F938F939F9364
:101CB000AF93BF93EF93FF93CF93DF93CDB7DEB78F
:101CC0006C97DEBFCDBF1092E9008091E80083FFE2
:101CD000FBC168E0CE0145960E94D30B82EF809352
:101CE000E8008D8987FF05C09091E80090FFFCCF48
:101CF00003C09EEF9093E800982F907609F0C6C03D
:101D00009E894F89588D2F89F88C91110CC080388D
:101D100029F4809130038093F10002C01092F10009
:101D20001092F10045C1913051F4811141C141300F
:101D3000510509F03DC1809130038D7F0BC0933078
:101D400061F4811135C14130510509F031C18091F3
:101D500030038260809330032BC1953049F4809129
:101D6000E80080FFFCCF822F80688093E30020C1D1
:101D7000963009F05EC00B8D1C8D22E01092E900B8
:101D80001092470310924603F21232C0109245039C
:101D9000109244030E94470C99E0BE016F5F7F4F91
:101DA000DB01E92F1D92EA95E9F79983FA8291E028
:101DB0009E8390EA98879AEF998720914603309105
:101DC0004703275F3F4F3C832B838D831092E900AD
:101DD0001092470310924603109345030093440367
:101DE00049E050E080E00E94AC0B0E94470CE0C04C
:101DF00010934503009344030E94DA15DC01129608
:101E00000D911C9113970115110509F4BBC0D80160
:101E1000ED91FC910480F581E02DBE016B5E7F4F5A
:101E2000C8010995009709F0C7C0F8010085118520
:101E3000EACF973009F445C1983021F481E08093CE
:101E4000F100B6C0993009F0B3C0837009F039C110
:101E5000E0E3F1E081E031E096E32081211109C067
:101E60008EE78093EA001092EA008F89809314082D
:101E70009FC08093E9003093EB0021912093EC0008
:101E80009093ED008F5F873041F7EACF8B8D9C8D6B
:101E90001092E90010924703109246039093450375
:101EA00080934403898D811153C08E899D89913A15
:101EB00049F4813209F005C147E050E066E071E085
:101EC00080E0BBC0913209F0FCC0833269F48F8995
:101ED000988DA0E0B0E08093020190930301A0935D
:101EE0000401B093050164C0803269F48091E80078
:101EF00082FFFCCF67E086E091E00E94D30B8BEF7E
:101F00008093E80055C0823209F052C08F898093D7
:101F10000D01EEEFFFE7859194918B3F9C4D19F0F9
:101F2000E0E0F8E002C0EEEFFAE080910601909167
:101F30000701A0910801B0910901803B9440A105DF
:101F4000B10509F09EC080910D0180FF79C099C054
:101F50000E94DA15FC01028113810115110509F4B3
:101F6000B0C0D801ED91FC910190F081E02DBE014F
:101F70006B5E7F4FC801099581111AC0F801008579
:101F80001185EBCFF1E0FF1609F44EC0F3E0FF122C
:101F900098C08F89882309F44AC0823089F440E8C8
:101FA00060E18EE593E00E94770B882309F489C0F5
:101FB0008EEF8093E80088C018161906CCF381C014
:101FC000813029F440E86BE082E593E0ECCF833088
:101FD00009F077C00E94DA15DC011296ED90FC90B2
:101FE00013978E010F5F1F4F6801E114F10479F020
:101FF000D701ED91FC910680F781E02DB801C70172
:102000000995080F111DF701E084F184EECFD80186
:102010001C92F60101900020E9F73197BF016C197D
:102020007D0940E0C601BFCF60E473E002C06CE30D
:1020300073E0FB01449150E080E80E94AC0BB8CF04
:10204000EE3F2AE0F20751F0808191818737A7E7C0
:102050009A0721F09093FF0A8093FE0A87E797E79B
:102060009183808380916000809348039BE088E1A6
:102070000FB6F894A895809360000FBE909360000F
:1020800097CF808191818737974709F091CFA895A5
:102090008091600088618093600080914803809304
:1020A0006000EE3FBAE0FB0739F08091FE0A9091A4
:1020B000FF0A918380837CCF1092FF0A1092FE0A60
:1020C00077CF81E28093EB006C960FB6F894DEBF79
:1020D0000FBECDBFDF91CF91FF91EF91BF91AF9137
:1020E0009F918F917F916F915F914F913F912F9130
:1020F0001F910F91FF90EF90DF90CF900F900FBE48
:102100000F901F901895DC01ED91FC910190F081EA
:10211000E02D09941F93CF93DF93EC0188818062B7
:1021200091E0909393038093B503109294031092DF
:10213000B60369817A8182E10E94F81381E00E94EE
:102140009C136881606270E042E050E089819A816E
:102150000E940A1489819A810E940214182F898191
:102160009A810E940214212F30E0A901582BCA0144
:10217000DF91CF911F9108951F93CF93DF93EC01CF
:10218000862F142F9881906221E0209393039093DF
:10219000B503109294031092B60369817A810E946C
:1021A000F81369817A81812F0E94F81381E0DF9111
:1021B000CF911F910C949C13CF93DF93EC01862F4A
:1021C0009881906221E0209393039093B50310923D
:1021D00094031092B60369817A810E94F81381E01A
:1021E0000E949C136881606270E041E050E0898148
:1021F0009A810E940A1489819A81DF91CF910C946F
:102200000214FF920F931F93CF93DF93EC01162FCD
:10221000F42E062F0770683010F065E101C064E10C
:10222000CE010E94DC1041E050E060E070E004C0AC
:10223000440F551F661F771F0A95D2F7FF2011F034
:10224000482B02C040954823183010F063E101C0CC
:1022500062E1CE01DF91CF911F910F91FF900C941D
:10226000BC10FF920F931F93CF93DF93EC01F42EDA
:10227000683008F4022F162F1770602FCE010E94CD
:10228000DC1041E050E060E070E004C0440F551FF6
:10229000661F771F1A95D2F7FF2011F0482B02C056
:1022A00040954823602FCE01DF91CF911F910F9170
:1022B000FF900C94BC10AC01109218049091680629
:1022C00080916706FA01BF01641B750B2091180409
:1022D000308130931804931304C0921302C01092FB
:1022E00018043191311104C0921769F3CB0108959C
:1022F0003813E9CFF9CF6115710579F0FB01019031
:102300000020E9F73197AF01461B570BDC01ED9137
:10231000FC910280F381E02D099480E090E0089523
:102320008F929F92AF92BF92EF92FF920F931F9363
:10233000CF93DF93CDB7DEB7A1970FB6F894DEBF8A
:102340000FBECDBF7C01FA01CB0119A2223008F4E7
:102350002AE08E010F5D1F4F822E912CA12CB12CF3
:10236000BF01A50194010E947520F901CA01015025
:1023700011096A3014F4605D01C0695CD8016C9386
:10238000232B242B252B61F7B801C7010E947B1159
:10239000A1960FB6F894DEBF0FBECDBFDF91CF91EF
:1023A0001F910F91FF90EF90BF90AF909F908F90F3
:1023B0000895CF92DF92EF92FF920F931F93CF93E6
:1023C000DF9377FF1DC06A017B01EC016DE20E9483
:1023D00083108C0144275527BA014C195D096E09F9
:1023E0007F092AE0CE010E949011800F911FDF919A
:1023F000CF911F910F91FF90EF90DF90CF900895B4
:102400002AE0DF91CF911F910F91FF90EF90DF9025
:10241000CF900C9490110F931F93CF93C82F04E685
:1024200016E060916706F801808191810E94831017
:102430004C2F50E060E070E02AE0F801808191814B
:10244000CF911F910F910C949011CF93DF9390E057
:10245000FC01E753FC4F2491FC01E655FC4F8491AD
:102460008823C1F090E0880F991FFC01E456FC4FCF
:10247000C591D491FC01E257FC4FA591B4919FB74F
:10248000F8948881E22FE0958E2388838C91E8234D
:10249000EC939FBFDF91CF910895CF93DF9320916D
:1024A0001304222391F0EC01609167068091640689
:1024B000909165060E948310BE0180916406909100
:1024C0006506DF91CF910C947B11DF91CF91089538
:1024D000CF93DF93209113042223D1F0EC0160917C
:1024E000670680916406909165060E948310809132
:1024F0006406909165064C815D8168817981DC017B
:10250000ED91FC910280F381E02DDF91CF91099450
:10251000DF91CF910895CF93DF932091130422236D
:10252000A9F0EC01609167068091640690916506C0
:102530000E948310AE01DD0F660B770B809164065D
:1025400090916506DF91CF910C94D911DF91CF91D5
:1025500008950F931F93CF93DF9380915C06882398
:1025600009F442C0813031F482E080935C06CCE112
:10257000D4E002C0C0E0D0E080915D06882351F134
:10258000209721F4C0916106D09162068E01CE01A0
:102590000E945B11892B29F42196F8018081811119
:1025A000F5CFF8018081882309F1C8010E945B11F1
:1025B000F801E80FF91F8081882311F0108231960D
:1025C000F0936206E0936106902F812F90935F064F
:1025D0008093600680915F0690916006892B21F0C0
:1025E00081E080935D0605C080E003C090E080E05C
:1025F000EDCFDF91CF911F910F910895809113043A
:102600008823A1F06091660680916406909165062A
:102610000E94831080911B04882341F06DED72E0CD
:1026200080916406909165060E947B1110921A04B5
:102630001092130480E00895EF92FF920F931F937E
:10264000CF93DF93EC01FB0104811581E080F180E1
:10265000E114F104C9F001151105C9F08C819D81C7
:10266000080F191FB801CE010E94450D882361F0A3
:10267000288139818C819D81B701820F931F0E942F
:1026800058251D830C8303C0CE010E946C0DCE0122
:10269000DF91CF911F910F91FF90EF900895EF92EE
:1026A000FF920F931F93CF93DF93CDB7DEB762975F
:1026B0000FB6F894DEBF0FBECDBF8C01CB01F80181
:1026C0001182108213821282158214824AE09E01C6
:1026D0002F5F3F4F7901B9010E94A31EF7010190BE
:1026E0000020E9F73197AF014E195F09B701C80122
:1026F0000E947E0D62960FB6F894DEBF0FBECDBF6E
:10270000DF91CF911F910F91FF90EF9008959091DD
:102710001304911110C091E09093130490931A0444
:10272000482F50E060E070E02AE0809164069091CC
:1027300065060C9490110895282F3091B60331321C
:1027400008F04AC0809192038111FCCF9091B503AB
:1027500042E040939203209391032FEF2093900344
:1027600010928F0330938E03E5E9F3E0AEE6B3E019
:1027700020E0321721F041914D932F5FFACF109254
:102780006D0320916D03990F922B90936D0390919F
:102790006C03913061F410926C0390916D039093EF
:1027A000BB009091BC0093FDF8CF95EC01C095EE75
:1027B0009093BC00909192039230E1F3909190033A
:1027C0009F3F79F080919003803241F08091900397
:1027D000803331F084E005C081E003C082E001C0B5
:1027E00083E0109294031092B6031092930308951D
:1027F000DB01ED91FC9111970190F081E02D682FA4
:10280000CD010994DC01ED91FC910284F385E02D6A
:1028100009950895809192038111FCCF413208F00F
:1028200040E281E080939203809391039FEF909325
:10283000900310928F03940F90938E0380936D03F7
:1028400080916D03660F682B60936D0380916C031C
:10285000813061F410926C0380916D038093BB0012
:102860008091BC0083FDF8CF85EC01C085EE80939C
:10287000BC00809192038130E1F380918F03841733
:1028800010F440918F03AEE6B3E0ECE4F3E080E0B7
:10289000841721F09D9191938F5FFACF10924B0393
:1028A00080934A03089590E0FC01E159FC4F449164
:1028B000FC01E753FC4F2491FC01E655FC4F849149
:1028C000882309F44CC04423E1F150E0FA01319728
:1028D000EF30F105B0F5EA5AFF4F0C94A620909125
:1028E00080009F7707C0909180009F7D03C09091EA
:1028F0008000977F9093800024C094B59F7702C09A
:1029000094B59F7D94BD1DC0909190009F7707C0A6
:10291000909190009F7D03C090919000977F90933D
:1029200090000FC09091C0009F7703C09091C000AD
:102930009F7D9093C00005C09091C200977F9093B7
:10294000C200E82FF0E0EE0FFF1FE257FC4FA59109
:10295000B4918FB7F894EC91E22BEC938FBF08956C
:102960003FB7F89480911A0890911B08A0911C0819
:10297000B0911D0826B5A89B05C02F3F19F0019600
:10298000A11DB11D3FBFBA2FA92F982F8827820FF5
:10299000911DA11DB11DBC01CD0142E0660F771F45
:1029A000881F991F4A95D1F70895CF93DF93EC01C3
:1029B000683008F067E0688387EB93E09A83898347
:1029C00010924B0310924A03109294031092B60394
:1029D0001092920381E08093910310926C0382E045
:1029E0000E94531483E00E9453148091B9008E7F9B
:1029F0008093B9008091B9008D7F8093B90088E4FD
:102A00008093B80085E48093BC0087E592E09093C2
:102A100018088093170888E592E090931608809331
:102A200015084FEF60E0CE010E94BC104FEF61E04F
:102A3000CE01DF91CF910C94BC10CF93DF93209106
:102A400013042223D1F0EC016091670680916406A3
:102A5000909165060E9483108091640690916506AE
:102A60004C815D8168817981DC01ED91FC9102806E
:102A7000F381E02DDF91CF910994DF91CF910895FB
:102A8000CF939091130491110DC0C62F0E9487130C
:102A900080911304882319F08C2F0E940B12CF9180
:102AA0000C94FE1280E0CF910895CF93DF93909124
:102AB000130491110AC0EB010E948713CE010E94FA
:102AC0008B12DF91CF910C94FE1280E0DF91CF91B9
:102AD00008950E94A912882359F081E080935D0631
:102AE00080935E0680915F06909160060C94751E3F
:102AF00010925E0660E070E0CB010895CF93C62F80
:102B00000E94871380911304882391F060916706D7
:102B100080916406909165060E9483104C2F50E0CE
:102B200060E070E080916406909165060E94D91182
:102B3000CF910C94FE1220911408211103C08FEF45
:102B40009FEF08955FB7F89422E02093E900209169
:102B5000F20030E01216130614F421E030E0422FA8
:102B6000FC0184E6415038F0289880931308909136
:102B7000F1009193F7CF2115310521F08091F200FA
:102B8000882319F05FBFC90108958BE68093E800A0
:102B9000F9CF2FB7F89483E08093E9009091E80093
:102BA000892F807295FF04C09091F20080E4891B08
:102BB0002FBF08958091220881110DC082E080937B
:102BC0001E0884E080931F081092210810922008AC
:102BD00081E0809322088EE198E00895823108F028
:102BE0008251E82FF0E0E851FC4FE49180917B00A6
:102BF000E3FB222720F930E095E0220F331F9A955E
:102C0000E1F78F7D282B20937B00E770E064E09351
:102C10007C0080917A00806480937A0080917A00B1
:102C200086FDFCCF809178002091790090E0922B76
:102C300008958F929F92AF92BF92CF92DF92EF92C0
:102C4000FF926B017C010E94B0144B015C01C11426
:102C5000D104E104F104F1F00E94B014DC01CB01D5
:102C600088199909AA09BB09883E9340A105B105B5
:102C700070F321E0C21AD108E108F10888EE880E4D
:102C800083E0981EA11CB11CC114D104E104F1041D
:102C900019F7DDCFFF90EF90DF90CF90BF90AF900E
:102CA0009F908F9008951F920F920FB60F9211244C
:102CB0002F933F938F939F93AF93BF9380910F0870
:102CC00090911008A0911108B09112083091190844
:102CD00023E0230F2D3720F40196A11DB11D05C05F
:102CE00026E8230F0296A11DB11D20931908809399
:102CF0000F0890931008A0931108B09312088091C8
:102D00001A0890911B08A0911C08B0911D0801960B
:102D1000A11DB11D80931A0890931B08A0931C0855
:102D2000B0931D08BF91AF919F918F913F912F91CB
:102D30000F900FBE0F901F901895AF92BF92CF9239
:102D4000DF92EF92FF920F931F93CF93DF9300D008
:102D500000D000D0CDB7DEB75C016B017A018901EC
:102D600081E00E94871380EE92E00E944D128091D4
:102D70001304882391F06091670680916406909116
:102D800065060E948310A501BB0C660B770B809132
:102D90006406909165060E94D911B601CE01019694
:102DA0000E94A40DCE0101960E941D15CE01019630
:102DB0000E949F0D84EE92E00E944D1287EE92E0F9
:102DC0000E944D12B701CE0101960E94A40DCE01C2
:102DD00001960E941D15CE0101960E949F0DB8011B
:102DE000CE0101960E94A40DCE0101960E941D15F0
:102DF000CE0101960E949F0D0E94FE1226960FB6EC
:102E0000F894DEBF0FBECDBFDF91CF911F910F9120
:102E1000FF90EF90DF90CF90BF90AF90089578949F
:102E200084B5826084BD84B5816084BD85B58260CF
:102E300085BD85B5816085BD80916E008160809380
:102E40006E001092810080918100826080938100E9
:102E500080918100816080938100809180008160F9
:102E60008093800080919100826080939100809196
:102E700091008160809391008091900081608093A7
:102E800090008091C10084608093C1008091C10056
:102E900082608093C1008091C10081608093C100F5
:102EA0008091C30081608093C3008091C0008260E4
:102EB0008093C0008091C20081608093C2008091A5
:102EC0007A00846080937A0080917A008260809397
:102ED0007A0080917A00816080937A0080917A00F4
:102EE000806880937A001092140810923003109238
:102EF0002F038091D70081608093D70080EA809370
:102F0000D80089B5806189BD89B5826089BD09B461
:102F100000FEFDCF61E070E080E090E00E941916B5
:102F20008091D8008F7C80618093D8008091E000F0
:102F3000807F8093E0008091E1008E7E8093E100AD
:102F40008DE08093E200559A209A8FEF9FEF909347
:102F5000D0038093CF0383E10E94251289E00E9471
:102F6000251288E00E94251285E10E94251282E147
:102F70000E94251284E10E94251260E081E393E023
:102F80000E94D51464E087E393E00E94D51462E0C8
:102F900084E393E00E94D514C0E001E020E040E02B
:102FA0006C2F81E393E00E94311140E06C2F81E3AC
:102FB00093E00E94011120E041E06C2F87E393E051
:102FC0000E9431110DE02CE041E06C2F87E393E08B
:102FD0000E94311101E020E041E06C2F84E393E096
:102FE0000E9431110DE02CE041E06C2F84E393E06E
:102FF0000E943111CF5FC03181F601E020E040E056
:1030000067E084E393E00E94311184E080936F07CE
:103010001092710710927007109272071092730746
:1030200041E050E0509375074093740795E090930A
:10303000760729E13CEF30937807209377079FEFDD
:103040009093790710927C0710927D073093820746
:103050002093810790938307109286071092870729
:1030600030938C0720938B0780938D0710928F07E6
:1030700010928E0710929007109291075093930729
:103080004093920769E060939407309396072093EA
:10309000950780939707509399074093980710924C
:1030A0009A0710929B0710929D0710929C0768E068
:1030B00060939E073093A00720939F078093A107FA
:1030C0001092A3071092A2071092A4071092A507CE
:1030D0001092A7071092A6078093A80762E070E0FD
:1030E0007093AA076093A9078093AB071092AD076E
:1030F0001092AC071092AE071092AF071092B10772
:103100001092B0078093B207C3E0D0E0D093B40729
:10311000C093B3078093B5071092B7071092B60714
:103120001092B8071092B9071092BB071092BA0715
:103130008093BC07E4E0F0E0F093BE07E093BD07A6
:103140008093BF071092C1071092C0071092C20768
:103150001092C3075093C5074093C407A6E0A093FD
:10316000C6073093C8072093C7078093C9071092FA
:10317000CB071092CA071092CC071092CD0710927D
:10318000CF071092CE07A7E0A093D0073093D207C5
:103190002093D1078093D3071092D5071092D407BC
:1031A0001092D6071092D7071092D9071092D8071D
:1031B000AFE0A093DA073093DC072093DB0780931E
:1031C000DD071092DF071092DE071092E0071092E1
:1031D000E1075093E3074093E207A1E0A093E407DF
:1031E00008E010E01093E6070093E507B9E1B0931B
:1031F000F1075093F3074093F2071092F4071092EF
:10320000F5077093F7076093F6071092F80730936D
:10321000FA072093F907BAE1B093E7075093E9075B
:103220004093E8071092EA071092EB077093ED07BE
:103230006093EC071092EE073093F0072093EF07AE
:10324000BBE1B0930508509307084093060810921D
:1032500008081092090870930B0860930A081092EE
:103260000C0830930E0820930D08BCE1B093FB07C7
:103270005093FD074093FC071092FE071092FF0742
:1032800070930108609300081092020830930408BC
:10329000209303089093CF061092D2061092D30683
:1032A0003093D8062093D7069093D9061092DC0667
:1032B0001092DD063093E2062093E1069093E30638
:1032C0001092E6061092E7063093EC062093EB0688
:1032D000B0E2B093ED065093EF064093EE061092E5
:1032E000F0061092F1067093F3066093F2061092C6
:1032F000F4063093F6062093F506B2E1B093F70694
:103300007093F9066093F8061092FA061092FB0685
:103310001092FD061092FC061092FE0630930007F4
:103320002093FF06809301077093030760930207C1
:1033300010920407109205071092070710920607D3
:10334000B3E0B093080730930A07209309079093DE
:103350001507109218071092190730931E07209333
:103360001D0790931F071092220710922307309396
:10337000280720932707809365071092670710920C
:103380006607109268071092690750936B07409385
:103390006A0792E090936C0726E030E030936E0766
:1033A00020936D0780935B0710925D0710925C0776
:1033B00010925E0710925F07509361074093600779
:1033C00090936207D0936407C0936307809351077B
:1033D00010925307109252071092540710925507FB
:1033E0005093570740935607A093580750935A0796
:1033F0004093590780934707109249071092480756
:1034000010924A0710924B0750934D0740934C0778
:1034100090934E07F0935007E0934F0780933D073A
:1034200010923F0710923E071092400710924107FA
:1034300050934307409342079093440725E030E0C0
:103440003093460720934507809333071092350742
:1034500010923407109236071092370750933907AD
:103460004093380790933A0770933C0760933B076B
:103470008093290710922B0710922A0710922C078D
:1034800010922D0750932F0740932E0790933007EB
:10349000509332074093310785EE92E090936A068D
:1034A000809369068CE096E090936C0680936B069F
:1034B0008EE493E09093800680937F0686E493E009
:1034C00090938206809381068EE393E09093840626
:1034D0008093830686E393E0909386068093850627
:1034E0008EE293E0909388068093870686E293E0CD
:1034F00090938A06809389068EE193E090938C06E0
:1035000080938B0686EE92E09093920680939106CC
:103510008FE299E09093900680938F068BE395E07D
:10352000909394068093930686E193E09093960699
:103530008093950689E093E0909398068093970690
:1035400081E093E090939A068093990689EF92E048
:1035500090939C0680939B0686E593E09093A60645
:103560008093A50689E793E09093A8068093A70629
:1035700081EF92E09093AA068093A9068824839411
:1035800044244A9433E0532E612C712C9924939453
:1035900087E393E00E948A107C01E094F0942090ED
:1035A0003C0330903D032E243F240FE617E0C0E09B
:1035B000D0E0BE010D2E000C880B990B0E94E71E77
:1035C0009B01AC0160E070E080E090E40E94632128
:1035D0005B016C0120E030E0A9010E945E2120E047
:1035E00030E040E05FE387FD05C0C601B5010E9401
:1035F000BC2004C0C601B5010E94BB200E94282146
:1036000062217321672B29F1D80114968C9220E056
:1036100030E0A901C601B5010E945E2120E030E042
:1036200040E05FE387FD05C0C601B5010E94BC20F4
:1036300004C0C601B5010E94BB200E9428216E2152
:103640007F210C2E02C0769567950A94E2F7F80167
:1036500063832196065F1F4FC031D10509F0A9CFC2
:10366000F0923D03E0923C0384E393E00E948A10D1
:103670007C01E094F09420903A0330903B032E2498
:103680003F240FEC16E0C0E0D0E0D8018C918F3FD2
:1036900009F450C0BE010D2E000C880B990B0E943E
:1036A000E71E9B01AC0160E070E080E090E40E94C6
:1036B00063215B016C0120E030E0A9010E945E21E2
:1036C00020E030E040E05FE387FD05C0C601B501C2
:1036D0000E94BC2004C0C601B5010E94BB200E940C
:1036E000282162217321672B29F1F801848220E0CF
:1036F00030E0A901C601B5010E945E2120E030E062
:1037000040E05FE387FD05C0C601B5010E94BC2013
:1037100004C0C601B5010E94BB200E9428216E2171
:103720007F210C2E02C0769567950A94E2F7D801A6
:1037300013966C932196065F1F4FC031D10509F097
:10374000A4CFF0923B03E0923A038FE697E00E9409
:1037500043098FEC96E00E94430983E10E94EE1535
:103760009C01ACE9BFEF0E94AC20A30192010E9432
:10377000142069017A01B4E6CB0ED11CE11CF11CC6
:1037800080913E0390E08C199D0997FF03C09195AD
:10379000819591090597DCF0B60182E190E00E94E5
:1037A000DB0AB60183E190E00E94DB0AB60181E109
:1037B00090E00E94DB0AB60185E190E00E94DB0AFE
:1037C000B60184E190E00E94DB0AC0923E0389E0EA
:1037D0000E94EE159C01ACE9BFEF0E94AC20A30152
:1037E00092010E94142069017A01E4E6CE0ED11CF8
:1037F000E11CF11C80913F0390E08C199D0997FF1B
:1038000003C0919581959109059764F0B60186E111
:1038100090E00E94DB0AB60187E190E00E94DB0A9B
:10382000C0923F0388E00E94EE159C01ACE9BFEF17
:103830000E94AC20A30192010E94142069017A0128
:10384000F4E6CF0ED11CE11CF11C8091400390E006
:103850008C199D0997FF03C0919581959109059752
:103860008CF0B60180E190E00E94DB0AB6018FE0A7
:1038700090E00E94DB0AB6018EE090E00E94DB0A35
:10388000C092400385E10E94EE159C01ACE9BFEFB8
:103890000E94AC20A30192010E94142069017A01C8
:1038A00084E6C80ED11CE11CF11C960180914103F5
:1038B00090E08C199D0997FF03C09195819591091E
:1038C0000597C4F0232B11F480E001C081E00E9431
:1038D000F304B6018BE090E00E94DB0AB6018DE0B4
:1038E00090E00E94DB0AB6018CE090E00E94DB0AC7
:1038F000C092410382E10E94EE159C01ACE9BFEF4A
:103900000E94AC20A30192010E941420BA01A901D7
:103910004C595F4F6F4F7F4F8091420390E0841B63
:10392000950B97FF03C0919581959109059714F028
:103930004093420384E10E94EE1524E630E0DC016E
:103940000E94B420A30192010E94142069017A010F
:103950008091430390E0821B930B97FF03C09195E6
:103960008195910905975CF184E00E94871385ECAD
:1039700092E00E944D12809113048823E1F060913F
:10398000670680916406909165060E948310AFEFF0
:10399000BFE3A70196010E94332024E630E040E017
:1039A00050E00E941420BA01A90180916406909110
:1039B00065060E94D9110E94FE12C09243038091B5
:1039C0001A0481110DC08091640690916506DC0196
:1039D000ED91FC910084F185E02D0995892B71F41E
:1039E00064E670E080E090E00E94191680E090E0CC
:1039F000892B09F4CDCD0E940000CACD80916406C8
:103A000090916506DC01ED91FC910084F185E02D3B
:103A10000995811592400CF0C3C080916406909185
:103A20006506DC01ED91FC910084F185E02D09959E
:103A30007C01C0916406D09165062CE5A22E24E09D
:103A4000B22E650100E010E0E016F10619F4C0E0C6
:103A5000D0E066C02FB7F89480910F0890911008BD
:103A6000A0911108B09112082FBF88879987AA8763
:103A7000BB87E881F9810284F385E02DCE010995A9
:103A800097FF92C02FB7F89480910F08909110087B
:103A9000A0911108B09112082FBF488559856A85F9
:103AA0007B85841B950BA60BB70B4C815D816E81CA
:103AB0007F8184179507A607B707D8F2C8CFF5010D
:103AC00091915F0110925C06309168062091190473
:103AD00090931904931741F1409166068091150463
:103AE000E82FF0E0ED5EFB4F941323C0321709F18D
:103AF0001186882321F090925C061092190410928E
:103B000015041092600610925F06109262061092E1
:103B1000610690925D0610915C06113099F0219635
:103B2000EC16FD0661F64BCF9213D6CF1092190416
:103B3000D3CF91878F5F80931504909117048917D5
:103B4000F0F6E9CF0E94A912882359F010935D0680
:103B500010935E0680915F06909160060E94571E4A
:103B600004C010925E0680E090E0809314048233DB
:103B700078F420915E06222359F0FC01FF27EE0F16
:103B8000FF1FE559F94F0190F081E02D309731F496
:103B9000E0916906F0916A06309709F20995BFCF66
:103BA000E12C82E0F82E45CFF60181936F010F5F83
:103BB0001F4F4ACF1092C6031092C50388EE93E0C0
:103BC000A0E0B0E08093C7039093C803A093C9031B
:103BD000B093CA032AE331E03093C4032093C303B4
:103BE0002FEF3FEF3093D0032093CF031092BA030F
:103BF0001092B9038093BB039093BC03A093BD03C1
:103C0000B093BE038CE491E09093B8038093B70324
:103C100010926A061092690683EC93E09093650611
:103C20008093640610921B048CE2809367068BE3FA
:103C3000809366068FE28093680680E48093160482
:103C40008FE380931704109215041092600610926F
:103C50005F06109262061092610681E080935D0615
:103C6000EBE6F6E08FEC96E0119211928E179F072B
:103C7000D9F710921A04EFE6F7E08FE098E029E117
:103C80003CEF13821482318720873A968E179F0764
:103C9000C1F7EFECF6E089E19CEF13821482918783
:103CA00080873A9627E0EF36F207B9F70895FC01CE
:103CB00088279927E89421912032E9F3293010F0E0
:103CC0002E30C8F32B3241F02D3239F4689404C001
:103CD0000E94C31E820F911D219120532A30C0F3F0
:103CE0001EF4909581959F4F08951F93FC0199278D
:103CF0008827BC01E89411911032E9F3193010F0D3
:103D00001E30C8F31B3251F01D3249F4689406C0CE
:103D10000E94AE1E610F711D811D911D11911053E6
:103D20001A30B0F33EF490958095709561957F4F71
:103D30008F4F9F4F1F910895FB01DC0105900D925D
:103D40000020E1F70895BB274A3031F4992322F48B
:103D5000BDE2909581959F4F0C94CC1E592F482F12
:103D6000372F262F660F771F881F991F660F771F23
:103D7000881F991F620F731F841F951F660F771F7F
:103D8000881F991F08957AE0979F902D879F802D17
:103D9000910D11240895BB27FB015527AA27880FF1
:103DA000991FAA1FA41710F0A41B83955051B9F7AF
:103DB000A05DAA3308F0A95DA193009779F7B1112E
:103DC000B1931192CB010C94B31FE89409C097FBF7
:103DD0003EF490958095709561957F4F8F4F9F4FE2
:103DE0009923A9F0F92F96E9BB279395F695879526
:103DF00077956795B795F111F8CFFAF4BB0F11F4E9
:103E000060FF1BC06F5F7F4F8F4F9F4F16C088238F
:103E100011F096E911C0772321F09EE8872F762FC5
:103E200005C0662371F096E8862F70E060E02AF006
:103E30009A95660F771F881FDAF7880F96958795F2
:103E400097F90895990F0008550FAA0BE0E8FEEFC7
:103E500016161706E807F907C0F012161306E4074E
:103E6000F50798F0621B730B840B950B39F40A2647
:103E700061F0232B242B252B21F408950A2609F425
:103E8000A140A6958FEF811D811D08950E94591FA5
:103E90000C94DA1F0E94CC1F38F00E94D31F20F030
:103EA000952311F00C94C31F0C94C91F11240C947A
:103EB0000E200E94EB1F70F3959FC1F3950F50E009
:103EC000551F629FF001729FBB27F00DB11D639FCC
:103ED000AA27F00DB11DAA1F649F6627B00DA11D72
:103EE000661F829F2227B00DA11D621F739FB00D18
:103EF000A11D621F839FA00D611D221F749F332788
:103F0000A00D611D231F849F600D211D822F762F20
:103F10006A2F11249F5750409AF0F1F088234AF0FD
:103F2000EE0FFF1FBB1F661F771F881F9150504069
:103F3000A9F79E3F510580F00C94C31F0C940E20EE
:103F40005F3FE4F3983ED4F3869577956795B795F0
:103F5000F795E7959F5FC1F7FE2B880F911D96950A
:103F6000879597F90895DC01FC01672F71917723FC
:103F7000E1F7329704C07C916D9370836291AE1724
:103F8000BF07C8F3089597F99F6780E870E060E085
:103F900008959FEF80EC089500240A9416161706E2
:103FA00018060906089500240A941216130614062A
:103FB00005060895092E0394000C11F4882352F08D
:103FC000BB0F40F4BF2B11F460FF04C06F5F7F4F45
:103FD0008F4F9F4F089557FD9058440F551F59F02C
:103FE0005F3F71F04795880F97FB991F61F09F3FE6
:103FF00079F087950895121613061406551FF2CF0F
:104000004695F1DF08C0161617061806991FF1CF5E
:1040100086957105610508940895E894BB27662785
:104020007727CB0197F90895052E97FB1EF400948E
:104030000E942B2057FD07D00E94752007FC03D05B
:104040004EF40C942B2050954095309521953F4F80
:104050004F4F5F4F089590958095709561957F4F74
:104060008F4F9F4F08950E949720A59F900DB49F5A
:10407000900DA49F800D911D112408952F923F92C1
:104080004F925F926F927F928F929F92AF92BF9268
:10409000CF92DF92EF92FF920F931F93CF93DF9314
:1040A000CDB7DEB7CA1BDB0B0FB6F894DEBF0FBE71
:1040B000CDBF09942A88398848885F846E847D84BE
:1040C0008C849B84AA84B984C884DF80EE80FD80C0
:1040D0000C811B81AA81B981CE0FD11D0FB6F89436
:1040E000DEBF0FBECDBFED010895A1E21A2EAA1BBF
:1040F000BB1BFD010DC0AA1FBB1FEE1FFF1FA21798
:10410000B307E407F50720F0A21BB30BE40BF50B94
:10411000661F771F881F991F1A9469F7609570951D
:10412000809590959B01AC01BD01CF010895A29FA0
:10413000B001B39FC001A39F700D811D1124911D7B
:10414000B29F700D811D1124911D0895EE0FFF1F68
:104150000590F491E02D09940E949720332312F4E6
:104160008A1B9B0B0C94B6200E949720B7FF0895E2
:10417000821B930B08955058BB27AA270E94D32077
:104180000C94DA1F0E94CC1F38F00E94D31F20F03D
:1041900039F49F3F19F426F40C94C91F0EF4E095EE
:1041A000E7FB0C94C31FE92F0E94EB1F58F3BA17CB
:1041B000620773078407950720F079F4A6F50C943D
:1041C0000D200EF4E0950B2EBA2FA02D0B01B90196
:1041D00090010C01CA01A0011124FF27591B99F07D
:1041E000593F50F4503E68F11A16F040A22F232F89
:1041F000342F4427585FF3CF469537952795A795D9
:10420000F0405395C9F77EF41F16BA0B620B730B7F
:10421000840BBAF09150A1F0FF0FBB1F661F771FF0
:10422000881FC2F70EC0BA0F621F731F841F48F4A5
:10423000879577956795B795F7959E3F08F0B0CF2E
:104240009395880F08F09927EE0F97958795089515
:104250000E942F216894B1110C940E2008950E94A1
:10426000F31F88F09F5798F0B92F9927B751B0F0F6
:10427000E1F0660F771F881F991F1AF0BA95C9F7EA
:1042800014C0B13091F00E940D20B1E008950C945B
:104290000D20672F782F8827B85F39F0B93FCCF30E
:1042A000869577956795B395D9F73EF49095809567
:1042B000709561957F4F8F4F9F4F08950E94221FE9
:1042C00008F48FEF0895FA01EE0FFF1F30962105D5
:1042D0003105A1F16115710561F48038BFE39B07D9
:1042E00049F168949038810561F08038BFEF9B07F1
:1042F00041F099234AF5FF3FE1053105210519F108
:10430000E8940894E795D901AA2329F4AB2FBE2F8E
:10431000F85FD0F310C0FF5F70F4A695E0F7F739AF
:1043200050F019F0FF3A38F49F779F930DD00F901B
:1043300007FC9058089546F00C94C91F60E070E0A7
:1043400080E89FE308954FE79F775F934F933F93F4
:104350002F930E945E222F913F914F915F910E9477
:10436000461F0C94BB2129F416F00C94C31F0C9427
:104370000D200C94C91F0E94F31FA8F39638A0F7D4
:1043800007F80F92E8942BE33AEA48EB5FE70E94C4
:104390005C1F0F920F920F924DB75EB70F920E9463
:1043A000A622EAECF0E00E94ED214F915F91EF919F
:1043B000FF91E595EE1FFF1F49F0FE57E068442787
:1043C000EE0F441FFA95E1F74195550B0E9420220C
:1043D0000F9007FE0C9414220895DF93CF931F9340
:1043E0000F93FF92EF92DF927B018C01689406C0DD
:1043F000DA2EEF010E94591FFE01E894A591259144
:10440000359145915591A6F3EF010E94D320FE010D
:104410009701A801DA9469F7DF90EF90FF900F9170
:104420001F91CF91DF9108959B01AC0160E070E096
:1044300080E89FE30C94DA220C94C31F0C944C2365
:104440000E94F31FD8F39923C9F3940F511DA3F3CE
:104450009150504094F059F0882332F0660F771F46
:10446000881F91505040C1F79E3F51052CF7880F8F
:10447000911D9695879597F908955F3FACF0983E0A
:104480009CF0BB27869577956795B79508F4B16042
:104490009395C1F7BB0F58F711F460FFE8CF6F5F3A
:1044A0007F4F8F4F9F4FE3CF0C940E2016F00C944C
:1044B0004C230C94C91F68940C94C31F0E94F31FD3
:1044C000A8F39923C1F3AEF3DF93CF931F930F9318
:1044D000FF92C92FDD2788232AF02197660F771FC7
:1044E000881FDAF720E030E040E85FEB9FE388398F
:1044F00020F0803E38F021968F770E94BC20E2EFBA
:10450000F0E004C00E94BC20EFE1F1E00E94ED2148
:104510008B01BE01EC01FB2E6F5771097595771F5A
:10452000880B990B0E94E71E28E132E741E35FE325
:104530000E94591FAF2D9801AE01FF900F911F915E
:10454000CF91DF910E94D3200C94DA1FFA01DC0195
:10455000AA0FBB1F9B01AC01BF5728F422273327AA
:104560004427507820C0B75190F4AB2F00244695D3
:1045700037952795011CA395D2F3002071F0220FE7
:10458000331F441FB395DAF30ED00C94BB20613077
:104590007105A0E88A07B94630F49B01AC01662793
:1045A000772788279078309621F0208331834283C3
:1045B000538308950E94EE220C94DA1F0E94D31FA9
:1045C00058F00E94CC1F40F029F45F3F29F00C9472
:1045D000C31F51110C940E200C94C91F0E94EB1F95
:1045E00068F39923B1F3552391F3951B550BBB2722
:1045F000AA2762177307840738F09F5F5F4F220F67
:10460000331F441FAA1FA9F335D00E2E3AF0E0E85D
:1046100032D091505040E695001CCAF72BD0FE2FA7
:1046200029D0660F771F881FBB1F2617370748073B
:10463000AB07B0E809F0BB0B802DBF01FF279358F3
:104640005F4F3AF09E3F510578F00C94C31F0C94D5
:104650000E205F3FE4F3983ED4F3869577956795F7
:10466000B795F7959F5FC9F7880F911D9695879528
:1046700097F90895E1E0660F771F881FBB1F621747
:1046800073078407BA0720F0621B730B840BBA0B05
:10469000EE1F88F7E09508959F3F31F0915020F488
:1046A000879577956795B795880F911D969587950E
:1046B00097F908950F931F93CF93DF93823091055D
:1046C00010F482E090E0E0912C08F0912D0820E0B9
:1046D00030E0A0E0B0E0309719F1408151810281D3
:1046E000138148175907C8F08417950769F4109784
:1046F00031F012960C93129713961C9327C00093D7
:104700002C0810932D0822C02115310519F04217ED
:10471000530718F49A01BD01EF01DF01F801DBCF67
:1047200021153105F9F0281B390B2430310580F4AF
:104730008A819B816115710521F0FB01938382833E
:1047400004C090932D0880932C08FE01329644C03B
:10475000FE01E20FF31F81939193225031093983B7
:1047600028833AC020912A0830912B08232B41F44A
:10477000209110013091110130932B0820932A08C9
:1047800020910E0130910F012115310541F42DB713
:104790003EB74091120150911301241B350BE0915B
:1047A0002A08F0912B08E217F307A0F42E1B3F0B09
:1047B0002817390778F0AC014E5F5F4F2417350793
:1047C00048F04E0F5F1F50932B0840932A088193A7
:1047D000919302C0E0E0F0E0CF01DF91CF911F9113
:1047E0000F910895CF93DF93009709F481C0FC01E6
:1047F000329713821282A0912C08B0912D08109745
:1048000081F420813181820F931F20912A083091F9
:104810002B082817390751F5F0932B08E0932A0845
:1048200067C0ED0120E030E0CE17DF0740F44A8199
:104830005B819E0141155105F1F0EA01F5CFD3836B
:10484000C28340815181840F951FC817D90759F43D
:1048500088819981840F951F0296918380838A8134
:104860009B81938382832115310529F4F0932D08D0
:10487000E0932C083DC0E901FB83EA8349915991FB
:10488000C40FD51FEC17FD0761F480819181840F5F
:10489000951F0296E90199838883828193819B8386
:1048A0008A83E0E0F0E012968D919C911397009737
:1048B00019F0FD01DC01F7CF8D919C9111979D01BD
:1048C0002E5F3F4F820F931F20912A0830912B08B3
:1048D0002817390769F4309729F410922D0810929F
:1048E0002C0802C013821282B0932B08A0932A08CE
:1048F000DF91CF910895A0E0B0E0E1E8F4E20C94FC
:104900004220EC01009721F4CB010E945A23B4C04D
:10491000FC01E60FF71F9C0122503109E217F30753
:1049200008F4A8C0D9010D911C911197061717071B
:10493000B0F00530110508F49BC0C8010497861734
:10494000970708F495C002501109061B170B019335
:1049500011936D937C93CF010E94F22389C05B0178
:10496000A01AB10A4C01800E911EA0912C08B091A2
:104970002D08612C712CE12CF12C109709F446C004
:104980008D919C911197A815B905B1F56C0142E084
:10499000C40ED11CCA14DB0478F14C018A189B08A0
:1049A000640142E0C40ED11C1296BC90129713967B
:1049B000AC91B5E0CB16D10440F0B282A3839182D2
:1049C0008082D9016D937C9309C00E5F1F4F800FC9
:1049D000911FF90191838083EB2DFA2FE114F104EB
:1049E00031F0D7011396FC93EE93129741C0F093E8
:1049F0002D08E0932C083CC06816790608F43C01A9
:104A00007D0112960D90BC91A02DB7CF80912A0800
:104A100090912B0888169906E1F466167706C8F47B
:104A200080910E0190910F01009741F48DB79EB7D0
:104A30004091120150911301841B950BE817F9075F
:104A4000C8F4F0932B08E0932A08F901718360837E
:104A50000FC0CB010E945A237C01009759F0A80196
:104A6000BE010E944625CE010E94F223C70104C068
:104A7000CE0102C080E090E0CDB7DEB7EEE00C944E
:104A80005E2081E090E0F8940C945F25FB01DC014E
:104A900002C001900D9241505040D8F70895FB019B
:104AA000DC018D91019080190110D9F3990B0895C3
:104AB000FB01DC0101900D920020E1F70895F894CC
:024AC000FFCF26
:104AC2000300FFFFFFFF00E1000000000000000004
:104AD2002E08200001020302000500010004000369
:104AE2000006000A000B000C000D000E000F000073
:104AF200C18081000000000000000A0C790CFF0C4C
:104B0200200C2B0C270D030D00000000B2028502C1
:104B1200E20259027D0269025A024D5346533A4754
:104B22004C415245534849454C445F4C49474854CF
:104B3200535F4F4E004D5346533A474C41524553F3
:104B42004849454C445F4C49474854535F4F464699
:104B520000535542534352494245004D5346533A3E
:104B62000053494D434F4E4E4543543A00494E4936
:104B720054005350414400434A20437573746F6D8F
:104B82002050616E656C0050494E4700504F4E47B1
:104B920000434F4E464947004655454C53595354DE
:104BA200454D2050554D50204143544956453A00F9
:104BB2004655454C53595354454D2056414C564544
:104BC200205357495443483A31004155544F2042EB
:104BD20052414B45205357495443482043420041D8
:104BE200505520535749544348003F007377697426
:104BF200636865732F454E47315F535441525445A4
:104C0200525F4D415354455200737769746368652E
:104C1200732F454E47325F535441525445525F4DB4
:104C220041535445520073776974636865732F4525
:104C32004E475F4D4F44455F53535F4352414E4B86
:104C42000073776974636865732F454E475F4D4FF4
:104C520044455F53535F5354415254007377697410
:104C6200636865732F4252414B45004D5346533A98
:104C72004C494748545F504F54454E54494F4D4557
:104C82005445525F0053494D434F4E4E4543543AAB
:104C920053504F494C4552535F534554000D0A003F
:0A4CA2004144440055380052570009
:00000001FF
