:100000000C9405020C942D020C942D020C942D02DC
:100010000C942D020C942D020C942D020C942D02A4
:100020000C942D020C942D020C947B0E0C94ED0E6E
:100030000C942D020C942D020C942D020C942D0284
:100040000C942D020C942D020C942D020C942D0274
:100050000C942D020C942D020C942D020C94FB1682
:100060000C942D020C942D020C942D020C942D0254
:100070000C942D020C942D020C942D020C942D0244
:100080000C942D020C942D020C942D020C942D0234
:100090000C94E3030C942D020C942D020C942D026D
:1000A0000C942D020C942D020C942D02F40AFF0ADC
:1000B0000B0B0F0B6C0B6C0B6C0B140B1A0B260B36
:1000C000330B2515281517151B151F15491549152F
:1000D00049152C15301534153A153E15491544159A
:1000E00007634236B79BD8A71A39685618AEBAAB21
:1000F000558C1D3CB7CC5763BD6DEDFD753EF617B5
:100100007231BF000000803F08000000BE92244909
:10011000123EABAAAA2ABECDCCCC4C3E0000008039
:10012000BEABAAAAAA3E00000000BF000000803FAC
:100130000000000000084178D3BB4387D1133D196C
:100140000E3CC3BD4282AD2B3E68EC8276BED98F99
:10015000E1A93E4C80EFFFBE01C4FF7F3F000000DD
:10016000000053504F494C4552532041524D454495
:10017000004150555F535441525445520045585424
:1001800045524E414C20504F574552204F4E00464D
:1001900055454C53595354454D2056414C564520D6
:1001A0005357495443483A3800424C45454420414E
:1001B000495220534F5552434520434F4E54524FBE
:1001C0004C004150552047454E455241544F522016
:1001D000535749544348004252414B4520504152E5
:1001E0004B494E4720494E44494341544F520054D5
:1001F00048524F54544C455F524556455253455F03
:100200005448525553545F544F47474C4500415052
:10021000555F47454E455241544F525F53574954DD
:1002200043485F544F47474C45004150555F424C4F
:100230004545445F4149525F534F555243455F54D2
:100240004F47474C4500544F47474C455F4558542E
:1002500045524E414C5F504F574552005345545FF5
:100260004155544F4252414B455F434F4E54524FBC
:100270004C005041524B494E475F4252414B45530F
:10028000004655454C53595354454D5F50554D50BC
:100290005F544F47474C45004655454C53595354BE
:1002A000454D5F56414C56455F544F47474C4500BE
:1002B000414E5449534B4944204252414B455320EF
:1002C00041435449564500B0029802810272025CD3
:1002D0000246022A020E02EF01D701C201A9018FD4
:1002E000017D01710162017B444437453338323668
:1002F0002D453433392D343438342D423138362DB0
:100300004631343433463342433532327D00080BB4
:1003100000020202010009040000010202000005BF
:10032000240010010524010101042402060524060D
:1003300000010705810310004009040100020A00C2
:10034000000007050202400000070583024000008C
:100350000403090412010002EF0201404123368028
:1003600000010102030141726475696E6F204C4CFB
:10037000430041726475696E6F204C656F6E6172E7
:10038000646F000000000200090F00000304010078
:100390000C00000000000000000000000000000051
:1003A000000000000000250028002B002E00310076
:1003B00000000000240027002A002D003000040463
:1003C00004040403040502020202040302020202FE
:1003D00006060606060604040202020404040802D5
:1003E00001104080401020408040800802040180BD
:1003F0004020100201108010204040200706050414
:100400000100080A0B0C0D09BD1E11241FBECFEF01
:10041000DAE0DEBFCDBF13E0A0E0B1E0E8E8FCE445
:1004200002C005900D92AA32B107D9F728E0AAE2DE
:10043000B3E001C01D92AE36B207E1F712E0C5E0AD
:10044000D2E004C02197FE010E948921C430D10767
:10045000C9F70E94E4170C9442260C94000085ED25
:100460008093BC008091BC0084FDFCCF1092D2032D
:10047000089540914C03262F30E0240F311D213286
:100480003105DCF42091D2032430C9F4FC0180E072
:1004900090E0861758F430914C032191DC01A45D63
:1004A000BC4FA30FB11D2C930196F3CF80914C0349
:1004B000680F60934C0380E0089581E0089582E026
:1004C0000895089508950895E0918B0380918A031B
:1004D000E81730F4F0E0E457FC4F808190E0089595
:1004E0008FEF9FEF089590918B0380918A03981767
:1004F00050F4E92FF0E0E457FC4F208130E09F5F9B
:1005000090938B0302C02FEF3FEFC90108958091B4
:100510008A0390E020918B03821B91090895CF926A
:10052000DF92EF92FF920F931F93CF93DF937C01A3
:10053000CB018A012091D303222389F0EB016B01C7
:10054000C40ED51ECC15DD0569F06991D701ED917A
:10055000FC910190F081E02DC7010995F3CF642F44
:100560000E943902C801DF91CF911F910F91FF9036
:10057000EF90DF90CF900895CF93DF931F92CDB788
:10058000DEB769832091D3032223D1F02091F603B3
:10059000203240F021E030E0FC013383228380E010
:1005A00090E015C08091D403E82FF0E0EB52FC4FAF
:1005B000998190838F5F8093D4038093F60305C065
:1005C00061E0CE0101960E94390281E090E00F9037
:1005D000DF91CF910895089580E090E00895089507
:1005E0000E9411164091DA07242F30E026173707B2
:1005F00051F0413019F06FEF7FEF02C061E070E021
:1006000081E20C94E81508950E94111621E0672BF1
:10061000682B692B09F020E020932B0308950E949A
:100620001116462F6AE081E793E00C94A9110E940D
:100630001116462F64E081E793E00C94A9110E9403
:100640001116462F6BE081E793E00C94A9110E94EC
:10065000111641E0672B682B692B09F040E068E038
:1006600081E793E00C94A9110E941116462F69E0CE
:1006700081E793E00C94A9110E941116462F6EE0B9
:1006800081E793E00C94A9110E941116462F6CE0AB
:1006900081E793E00C94A9110E941116462F6DE09A
:1006A00081E793E00C94A9110E941116462F6FE088
:1006B00081E793E00C94A9110E941116462F67E080
:1006C00081E793E00C94A9110E941116462F65E072
:1006D00081E793E00C94A9110E941116462F66E061
:1006E00081E793E00C94A911CF93DF930E94111638
:1006F000EB0163E187E793E00E94841185FB882783
:1007000080F991E0892790E0C817D90769F08091B6
:100710005304811109C061E0CD2B09F060E089E14B
:10072000DF91CF910C942616DF91CF910895CF934E
:10073000DF930E941116EB0163E187E793E00E94CB
:1007400084118295817091E0892790E0C817D907BC
:1007500069F080915304811109C061E0CD2B09F04B
:1007600060E08AE1DF91CF910C942616DF91CF9162
:1007700008950F931F93CF93DF93CDB7DEB7AD9757
:100780000FB6F894DEBF0FBECDBF8C01FB01EE0F9C
:10079000FF1FE953FD4F65917491CE0101960E94B0
:1007A0007F1FBE016F5F7F4FC8010E94660EC801A8
:1007B000AD960FB6F894DEBF0FBECDBFDF91CF91DF
:1007C0001F910F9108951F920F920FB60F9211244F
:1007D0002F933F934F935F936F937F938F939F9349
:1007E000AF93BF93EF93FF938091B900887F8036DA
:1007F00009F49CC068F5883209F45BC090F480313C
:1008000009F454C038F4882309F4F6C0883009F498
:100810004DC0F6C0883109F44CC0803209F45DC087
:10082000EFC0803409F468C048F4803309F455C03F
:10083000883309F0E5C08093D003D8C0803509F42F
:100840004FC0883509F45DC0883409F0D9C0D6C0DE
:10085000883909F4C7C0A8F4883709F467C038F4A8
:10086000883609F463C0803709F460C0C9C088388D
:1008700009F4B8C0803909F45FC0803809F0C0C0FD
:100880005BC0803B09F486C038F4803A09F466C046
:10089000883A09F47FC0B4C0803C09F4A7C0883C02
:1008A00009F4A4C0883B09F48AC0AAC08091AD03B2
:1008B00010C09091CF038091CE03981770F5E0910E
:1008C000CF0381E08E0F8093CF03F0E0E255FC4F21
:1008D00080818093BB0085EC86C08093D0038EC05E
:1008E000E091CF0381E08E0F8093CF038091BB0016
:1008F000F0E0E255FC4F80839091CF038091CE03CE
:100900006EC0E091CF0381E08E0F8093CF03809182
:10091000BB00F0E0E255FC4F80838091D103811150
:100920006DC081E08093AC0384EA61C083E0809372
:10093000D20310926E03CFCF80916E03803208F005
:1009400051C0E0916E0381E08E0F80936E03809121
:10095000BB00F0E0E25BFC4F8083BDCF85EC809371
:10096000BC001092D20380916E03803230F4E0918B
:100970006E03F0E0E25BFC4F108260916E0370E06A
:10098000E0915508F09156088EE493E00995109295
:100990006E0336C084E08093D20310924D03109210
:1009A0004C03E0915708F0915808099580914C0349
:1009B000811105C081E080934C0310922C03E091DB
:1009C0004D0381E08E0F80934D03F0E0E45DFC4F1A
:1009D00080818093BB0090914D0380914C039817C8
:1009E00008F479CF85E88093BC000AC085EC809339
:1009F000BC001092D20304C01092D0030E942F02B8
:100A0000FF91EF91BF91AF919F918F917F916F91E6
:100A10005F914F913F912F910F900FBE0F901F90BC
:100A20001895CF92DF92EF92FF920F931F93CF937F
:100A3000DF9300D01F92CDB7DEB720911401309123
:100A400015014091160129833A834B83882329F0AD
:100A50009AE5E92E91E0F92E04C085E7E82E81E0C1
:100A6000F82E8E010F5F1F4F6E0184E0C80ED11C5F
:100A700084E00E942F14C7010E94F5128091530454
:100A8000882321F0F80180810E94B3120E94A613EE
:100A90000F5F1F4F0C151D0559F70F900F900F900A
:100AA000DF91CF911F910F91FF90EF90DF90CF904A
:100AB0000895CF93DF93CDB7DEB72C970FB6F89498
:100AC000DEBF0FBECDBF0E94111621E030E0672BC4
:100AD000682B692B11F420E030E081E090E0409138
:100AE0004407442311F080E090E02817390711F102
:100AF00063E070E0CE0107960E94B9038091530431
:100B0000811114C084E00E942F14BE01695F7F4FE1
:100B1000CE0101960E944C0ECE0101960E94C51591
:100B2000CE0101960E94470E0E94A613CE010796A1
:100B30000E94470E2C960FB6F894DEBF0FBECDBFB5
:100B4000DF91CF910895CF92DF92EF92FF920F93B2
:100B50001F93CF93DF93CDB7DEB76E970FB6F894A0
:100B6000DEBF0FBECDBF6C017B018A0181E00E9418
:100B70002F1481E991E00E94F512C6010E943313FF
:100B8000B801CE01EF2899F043960E94660E6BE9FA
:100B900071E0CE010D960E94660EBE016D5E7F4F24
:100BA000CE010D960E94C41300E011E012C007961A
:100BB0000E94660E61EA71E0CE0101960E94660E07
:100BC000BE01695F7F4FCE0101960E94C41301E010
:100BD00010E0BC01CE0149960E944C0ECE01499610
:100BE0000E941013CE0149960E94470E002341F047
:100BF000CE0101960E94470ECE0107960E94470E35
:100C0000112341F0CE010D960E94470ECE0143966E
:100C10000E94470E0E94A6136E960FB6F894DEBF90
:100C20000FBECDBFDF91CF911F910F91FF90EF903D
:100C3000DF90CF900895CF92DF92EF92FF920F93C3
:100C40001F93CF93DF93CDB7DEB7AA970FB6F89473
:100C5000DEBF0FBECDBF0E945113882351F081E04B
:100C600080939D0680939E0600919F061091A0069A
:100C700004C010929E0600E010E06DEA71E0C80129
:100C80000E943226892B79F580E00E942F1482EB96
:100C900091E00E94F51280915304811105C087EB09
:100CA00091E00E94F51245C06091A7068091A406CC
:100CB0009091A5060E942B11E090A406F090A50645
:100CC00007EE12E0F8016491662349F3D701ED9134
:100CD000FC910190F081E02DC70109950F5F1F4F36
:100CE000892B81F7DCCF67EC71E0C8010E943226C6
:100CF000892B11F580E00E942F148CEC91E00E946A
:100D0000F5120E9411166B017C0180915304882317
:100D100081F06091A7068091A4069091A5060E949B
:100D20002B11B701A6018091A4069091A5060E94FF
:100D300081120E94A61324C261ED71E0C8010E94D5
:100D40003226892B09F004C28CE0E7E1F1E0DE01F4
:100D50001D9601900D928A95E1F78CE0E3E2F1E0B7
:100D6000DE01119601900D928A95E1F78E01035FE5
:100D70001F4FFE0131967F016E01F9E1CF0ED11CAC
:100D8000D8016D917D918D01CE014F960E94F71390
:100D900068ED71E0C6010E94660EBE01615E7F4F84
:100DA000C6010E94C413FC014081518161E070E0E2
:100DB000D7018D919D917D010E94A305C6010E94DE
:100DC000470ECE014F960E94470E0C151D05C1F629
:100DD00040EF51E061E070E080E190E00E94A30507
:100DE00060E070E0C8010E94B903498D5A8D60E04F
:100DF00070E082E190E00E94A305C8010E94470EC6
:100E00004AE052E060E070E083E190E00E94A305D8
:100E100069E070E0C8010E94B903498D5A8D60E015
:100E200070E084E190E00E94A305C8010E94470E93
:100E30006AE070E0C8010E94B903498D5A8D60E0F4
:100E400070E085E190E00E94A305C8010E94470E72
:100E50006BE070E0C8010E94B903498D5A8D60E0D3
:100E600070E086E190E00E94A305C8010E94470E51
:100E70006CE070E0C8010E94B903498D5A8D61E0B1
:100E800070E087E190E00E94A305C8010E94470E30
:100E90006DE070E0C8010E94B903498D5A8D61E090
:100EA00070E088E190E00E94A305C8010E94470E0F
:100EB0004FE152E061E070E08FE190E00E94A30515
:100EC0006FE070E0C8010E94B903498D5A8D60E05F
:100ED00070E084E290E00E94A305C8010E94470EE2
:100EE0006AE272E0CE0185960E94660E6AE272E0C6
:100EF000CE014F960E94660E6CE272E0C8010E941D
:100F0000660E9E012B5D3F4FAE01415E5F4FB80103
:100F100089E190E00E947217C8010E94470ECE013D
:100F20004F960E94470ECE0185960E94470E6AE2B8
:100F300072E0CE0185960E94660E6AE272E0CE01F2
:100F40004F960E94660E69E472E0C8010E94660E28
:100F50009E012B5D3F4FAE01415E5F4FB8018AE1BC
:100F600090E00E947217C8010E94470ECE014F9672
:100F70000E94470ECE0185960E94470E6AE272E0FB
:100F8000CE0185960E94660E6AE272E0CE014F960F
:100F90000E94660E66E672E0C8010E94660E9E011F
:100FA0002B5D3F4FAE01415E5F4FB8018BE190E09A
:100FB0000E947217C8010E94470ECE014F960E94F0
:100FC000470ECE0185960E94470E6AE272E0CE017E
:100FD00085960E94660E6AE272E0CE014F960E94EC
:100FE000660E61E872E0C8010E94660E9E012B5DEC
:100FF0003F4FAE01415E5F4FB8018CE190E00E942F
:101000007217C8010E94470ECE014F960E94470EEC
:10101000CE0185960E94470E6AE272E0CE01859667
:101020000E94660E6AE272E0CE014F960E94660E42
:101030006CE972E0C8010E94660E9E012B5D3F4F75
:10104000AE01415E5F4FB80180E290E00E947217EE
:10105000C8010E94470ECE014F960E94470ECE0156
:1010600085960E94470E6AE272E0CE0185960E9444
:10107000660E6AE272E0CE014F960E94660E6BEA3F
:1010800072E0C8010E94660E9E012B5D3F4FAE01CB
:10109000415E5F4FB80181E290E00E947217C80183
:1010A0000E94470ECE014F960E94470ECE018596B4
:1010B0000E94470E6AE272E0CE0185960E94660E9B
:1010C0006AE272E0CE014F960E94660E64EC72E016
:1010D000C8010E94660E9E012B5D3F4FAE01415E2E
:1010E0005F4FB80182E290E00E947217C8010E942F
:1010F000470ECE014F960E94470ECE0185960E9464
:10110000470E6AE272E0CE0185960E94660E6AE2A0
:1011100072E0CE014F960E94660E66ED72E0C80145
:101120000E94660E9E012B5D3F4FAE01415E5F4FF8
:10113000B80183E290E00E947217C8010E94470E36
:10114000CE014F960E94470ECE0185960E94470E13
:1011500080915304811108C00E942F1481ED91E009
:101160000E94F5120E94A61380914407813019F065
:1011700061E070E002C06FEF7FEF83E20E94E8154C
:10118000AA960FB6F894DEBF0FBECDBFDF91CF9108
:101190001F910F91FF90EF90DF90CF900895EF9205
:1011A000FF920F931F93CF93DF93CDB7DEB7629774
:1011B0000FB6F894DEBF0FBECDBF8C0140E061E0FA
:1011C00081E793E00E94A91140E060E081E793E0AD
:1011D0000E94A91140E067E084E793E00E94A91112
:1011E00080912B03882319F00330110531F483E03B
:1011F00090E0909301018093000180912A0388235D
:1012000009F442C08091000190910101011511057E
:1012100081F4892B19F440E061E012C041E061E003
:1012200081E793E00E94A911109201011092000140
:101230002BC001301105A1F4019769F440E060E092
:1012400081E793E00E94A91183E090E0909301016F
:101250008093000119C041E060E081E793E00EC097
:101260000230110589F4029729F440E067E084E731
:1012700093E0E8CF41E067E084E793E00E94A911A2
:1012800010930101009300018091000190910101F0
:101290008330910561F08230910569F081309105CC
:1012A00071F0892B79F432E0E32EF12C0BC0EE249F
:1012B000E394F12C07C094E0E92EF12C03C083E005
:1012C000E82EF12C84E00E942F1464E070E0CE013F
:1012D00007960E94B90361EA71E0CE0101960E946F
:1012E000660EBE01695F7F4FCE0101960E94C41356
:1012F000BC01CE010D960E944C0ECE010D960E94AF
:101300001013CE010D960E94470ECE0101960E9449
:10131000470ECE0107960E94470EC7010E94331365
:101320000E94A61362960FB6F894DEBF0FBECDBF23
:10133000DF91CF911F910F91FF90EF9008950E9440
:10134000111641E0611571058105910509F440E030
:1013500050913A07242F30E0E52FF0E02E173F0799
:1013600051F0513019F06FEF7FEF02C061E070E093
:1013700082E20C94E81540932A03672B682B692BB3
:1013800021F483E090E00C94CF080895CF92DF928F
:10139000EF92FF920F931F93CF93DF93CDB7DEB7FA
:1013A000EC970FB6F894DEBF0FBECDBF8C017C0169
:1013B00020EAE20EF11CD801EC91EF3F09F48EC156
:1013C0001496DC901497DD2009F488C111968D9154
:1013D0009C911297009709F0E2C013968C91139795
:1013E000813009F079C117966C91179718968D91F5
:1013F0009C9119976430A1F48430910519F482E02E
:1014000090E005C08330910529F481E090E00E94CE
:10141000CF0862C18230910519F480E090E0F7CFE7
:1014200089319C4F09F062C0F8018581968170E096
:10143000892B99F0CE01C1960E94B9036BE971E046
:10144000CE018B960E94660EBE016F5C7F4FCE016F
:101450008B960E94C413C12C13C0CE0185960E94A6
:10146000B90361EA71E0CE014F960E94660EBE019B
:101470006B5D7F4FCE014F960E94C413CD2CD12CB3
:10148000BC01CE01C7960E944C0E8091530481117D
:1014900015C0D8018C910E942F14BE01695C7F4F4A
:1014A000CE0101960E944C0ECE0101960E941013AF
:1014B000CE0101960E94470E0E94A613CE01C79648
:1014C0000E94470ECC2041F0CE014F960E94470E5D
:1014D000CE0185960E94470EDD2009F4FDC0CE01A5
:1014E0008B960E94470ECE01C196D6C08E2F0E94C9
:1014F0002F14F80185819681678170E0892B99F01E
:10150000CE0149960E94B9036BE971E0CE01439682
:101510000E94660EBE01675E7F4FCE0143960E9419
:10152000C413C12C13C0CE010D960E94B90361EA09
:1015300071E0CE0107960E94660EBE01635F7F4F89
:10154000CE0107960E94C413CD2CD12CBC01CE0134
:1015500001960E944C0ECE0101960E941013CE01FE
:1015600001960E94470ECC2041F0CE0107960E94C2
:10157000470ECE010D960E94470EDD2041F0CE01B0
:1015800043960E94470ECE0149960E94470ED8010D
:1015900018968D919C9119970E9433139BC08230AD
:1015A000910559F4E43029F0D80113966C918E2FEF
:1015B0003EC0F801678170E065C0019709F08CC0FA
:1015C000D80115968D919C911697029709F067C0E6
:1015D0008E2F90E0FC017997EB30F10508F07CC08C
:1015E000EA5AFF4F0C948921F8018381811103C0CD
:1015F00061E070E002C06FEF7FEF89E131C0D80198
:1016000013968C91811103C061E070E002C06FEF0E
:101610007FEF8AE125C0F80163818BE108C0D80122
:1016200013966C918CE103C0F801638180E20E9403
:10163000FC1552C0D80113968C91813019F06FEFD0
:101640007FEF02C061E070E081E20AC0F8018381AF
:10165000813019F06FEF7FEF02C061E070E082E24D
:101660000E94E81539C0D80113968C91813019F089
:1016700061E070E002C06FEF7FEF83E20E94E81547
:1016800063E070E0CE0101960E94B903CE0101969D
:101690000E944517CE0101960E94470E1DC084E0AE
:1016A0000E942F14F801678170E0CE0101960E941C
:1016B000B903CE0101960E94C515CE0101960E9484
:1016C000470E80915304882329F0D80113968C91FA
:1016D0000E94B3120E94A613F8011482065F1F4FE6
:1016E000E016F10609F067CEEC960FB6F894DEBF6F
:1016F0000FBECDBFDF91CF911F910F91FF90EF9063
:10170000DF90CF900895CF92DF92EF92FF920F93E8
:101710001F93CF93DF93CDB7DEB762970FB6F894E0
:10172000DEBF0FBECDBF8C016B0184E00E942F1481
:10173000B801CE0107960E94F7136AEE72E0CE015F
:1017400001960E94660EBE01695F7F4FCE01019631
:101750000E94C4138C01FC01E480F580F4E0EF0EDC
:10176000F11CB7010E94ED0D8823B9F1F801208129
:1017700031818481958167E173E0820F931F0E941C
:101780003B26F801F582E482B801CE010D960E9455
:101790004C0ECE010D960E941013CE010D960E94A4
:1017A000470ECE0101960E94470ECE0107960E9479
:1017B000470EC6010E9433130E94A61362960FB60D
:1017C000F894DEBF0FBECDBFDF91CF911F910F9177
:1017D000FF90EF90DF90CF900895C8010E94140E03
:1017E000D3CF409186035091870320918403309199
:1017F000850342175307B4F49091E8009570E1F324
:101800009091E80092FD19C08093F10080918603C9
:101810009091870301968F739927892B19F48EEF86
:101820008093E800809186039091870301969093BE
:1018300087038093860381E0089580E00895DF9216
:10184000EF92FF920F931F93CF93DF93D82EF92E31
:10185000E42E062F10E0C8010196880F0E94F10BBC
:1018600083E00E94F10BCD2DDF2D0C0F1D1FC01743
:10187000D10789F0E7FE03C0FE01849101C0888191
:101880000E94F10BF82E80E00E94F10B8F2121962F
:101890008111EDCF01C081E0DF91CF911F910F91B8
:1018A000FF90EF90DF900895DF92EF92FF920F93F9
:1018B0001F93CF93DF93D82E8A017B01E40EF51E90
:1018C000EB01CE15DF0571F0D7FE03C0FE01849158
:1018D00001C088810E94F10B21968111F2CF8FEF18
:1018E0009FEF01C0C801DF91CF911F910F91FF9031
:1018F000EF90DF900895615030F02091F100FC01ED
:1019000020830196F8CF289884E6809353080895A1
:10191000CF92DF92EF92FF920F931F93CF93DF93BB
:101920006C017A018B01C0E0D0E0CE15DF0581F0BB
:10193000D8016D918D01D601ED91FC910190F0815E
:10194000E02DC6010995892B11F02196EECF7E017D
:10195000C701DF91CF911F910F91FF90EF90DF9022
:10196000CF900895CF93DF931F92CDB7DEB76983F1
:10197000DC01ED91FC910280F381E02D41E050E02B
:10198000BE016F5F7F4F09950F90DF91CF91089552
:1019900083E08093E9008091F200882319F08AE3C4
:1019A0008093E8000895FC018485958597FD0BC020
:1019B0009FB7F89482E08093E9008091F2009FBF86
:1019C00090E0019608959FB7F89482E08093E90033
:1019D0008091F2009FBF90E008950E9424260F930B
:1019E0001F93CF93DF931F92CDB7DEB782E0898339
:1019F00042E450E06EE073E080E80E94540C0E94E4
:101A00008216DC0112960D911C9113970115110598
:101A100089F0D801ED91FC910280F381E02DBE01A7
:101A20006F5F7F4FC801099597FD04C0F8010085DD
:101A30001185ECCF89810F90DF91CF911F910F918C
:101A400008958F929F92AF92BF92CF92DF92EF92C2
:101A5000FF920F931F93CF93DF936C017B018A0159
:101A600080910D01882309F45CC08091540888237B
:101A700009F457C080916F0380FF05C08091E0009A
:101A800082608093E000E801B12C8AEFA82E93E0F9
:101A9000892E2AE3922E209711F4BB20D9F10E94BF
:101AA000711681110AC0AA94AA20D9F161E070E0F0
:101AB00080E090E00E94C116EECF282F30E0C217E0
:101AC000D3070CF48C2F9FB7F8948092E9002091F3
:101AD000E80025FF1DC0282F30E0C21BD30BF70103
:101AE000815020F041914093F100FACFE20EF31EB5
:101AF000BB2019F09092E8000AC08091E80085FDB3
:101B000007C09092E800BB24B394209709F0B12C51
:101B10009FBFC1CF5D9884E680938903101611069C
:101B200044F081E090E0F6019383828380E090E0CE
:101B300001C0C801DF91CF911F910F91FF90EF90ED
:101B4000DF90CF90BF90AF909F908F9008950E94AC
:101B5000711690E008950F931F93CF93DF931F9218
:101B6000CDB7DEB78C01FC018485958597FF0EC04B
:101B7000CE0101960E944316019719F4898190E0E5
:101B800002C08FEF9FEFF80195878487F801848565
:101B900095850F90DF91CF911F910F910895CF936D
:101BA000DF931F92CDB7DEB7FC018485958597FD45
:101BB00005C02FEF3FEF358724870BC0CE0101967C
:101BC0000E944316019719F4898190E002C08FEFBB
:101BD0009FEF0F90DF91CF9108950F931F93CF93B5
:101BE000DF93EC0188819981009729F02A813B815C
:101BF0002617370788F48B016F5F7F4F0E945E25A1
:101C0000009761F0998388831B830A832C813D812F
:101C1000232B11F4FC01108281E001C080E0DF91F0
:101C2000CF911F910F910895CF93DF93EC0188819D
:101C30009981009711F00E94D524198218821D8283
:101C40001C821B821A82DF91CF910895EF92FF923E
:101C50000F931F93CF93DF93EC017B018A01BA01AD
:101C60000E94ED0D811104C0CE010E94140E07C028
:101C70001D830C83B701888199810E943B26CE0188
:101C8000DF91CF911F910F91FF90EF900895FC018C
:101C9000808191810C94D524FB01DC0111961C926A
:101CA0001E9213961C921E92129715961C921E92CB
:101CB00014978617970749F0608171816115710546
:101CC00021F0448155810C94260E0895FC01118267
:101CD000108213821282158214826115710551F0EF
:101CE000FB0101900020E9F73197AF01461B570B2C
:101CF0000C94260E08951F920F920FB60F92112486
:101D00008F939F938091E1009091E100937F909356
:101D1000E10083FF0FC01092E90091E09093EB0087
:101D20001092EC0092E39093ED001092540898E02A
:101D30009093F00082FF20C093E09093E90090918F
:101D4000F200992319F09AE39093E80090918903A7
:101D5000992339F0909189039150909389039923A5
:101D600089F190915308992339F09091530891503B
:101D700090935308992341F184FF10C08091E200B1
:101D80008E7E81608093E2008091E1008F7E80935F
:101D9000E10080916F038E7E806111C080FF16C0CC
:101DA0008091E2008E7E80618093E2008091E1006C
:101DB0008E7E8093E10080916F038E7E81608093A0
:101DC0006F0304C05D9ACDCF289AD6CF9F918F9193
:101DD0000F900FBE0F901F9018951F920F920FB685
:101DE0000F921124CF92DF92EF92FF920F931F93E5
:101DF0002F933F934F935F936F937F938F939F9313
:101E0000AF93BF93EF93FF93CF93DF93CDB7DEB73D
:101E10006C97DEBFCDBF1092E9008091E80083FF90
:101E2000FBC168E0CE0145960E947B0C82EF809357
:101E3000E8008D8987FF05C09091E80090FFFCCFF6
:101E400003C09EEF9093E800982F907609F0C6C0EB
:101E50009E894F89588D2F89F88C91110CC080383C
:101E600029F4809170038093F10002C01092F10078
:101E70001092F10045C1913051F4811141C14130BE
:101E8000510509F03DC1809170038D7F0BC09330E7
:101E900061F4811135C14130510509F031C18091A2
:101EA00070038260809370032BC1953049F4809158
:101EB000E80080FFFCCF822F80688093E30020C180
:101EC000963009F05EC00B8D1C8D22E01092E90067
:101ED0001092870310928603F21232C0109285038B
:101EE000109284030E94EF0C99E0BE016F5F7F4F58
:101EF000DB01E92F1D92EA95E9F79983FA8291E0D7
:101F00009E8390EA98879AEF998720918603309173
:101F10008703275F3F4F3C832B838D831092E9001B
:101F20001092870310928603109385030093840315
:101F300049E050E080E00E94540C0E94EF0CE0C0A9
:101F400010938503009384030E948216DC0112968D
:101F50000D911C9113970115110509F4BBC0D8010F
:101F6000ED91FC910480F581E02DBE016B5E7F4F09
:101F7000C8010995009709F0C7C0F80100851185CF
:101F8000EACF973009F445C1983021F481E080937D
:101F9000F100B6C0993009F0B3C0837009F039C1BF
:101FA000E0E3F1E081E031E096E32081211109C016
:101FB0008EE78093EA001092EA008F89809354089C
:101FC0009FC08093E9003093EB0021912093EC00B7
:101FD0009093ED008F5F873041F7EACF8B8D9C8D1A
:101FE0001092E90010928703109286039093850364
:101FF00080938403898D811153C08E899D89913A84
:1020000049F4813209F005C147E050E066E071E033
:1020100080E0BBC0913209F0FCC0833269F48F8943
:10202000988DA0E0B0E08093020190930301A0930B
:102030000401B093050164C0803269F48091E80026
:1020400082FFFCCF67E086E091E00E947B0C8BEF83
:102050008093E80055C0823209F052C08F89809386
:102060000D01EEEFFFE7859194918B3F9C4D19F0A8
:10207000E0E0F8E002C0EEEFFAE080910601909116
:102080000701A0910801B0910901803B9440A1058E
:10209000B10509F09EC080910D0180FF79C099C003
:1020A0000E948216FC01028113810115110509F4B9
:1020B000B0C0D801ED91FC910190F081E02DBE01FE
:1020C0006B5E7F4FC801099581111AC0F801008528
:1020D0001185EBCFF1E0FF1609F44EC0F3E0FF12DB
:1020E00098C08F89882309F44AC0823089F440E877
:1020F00060E182E793E00E941F0C882309F489C005
:102100008EEF8093E80088C018161906CCF381C0C2
:10211000813029F440E86BE086E693E0ECCF833031
:1021200009F077C00E948216DC011296ED90FC90B7
:1021300013978E010F5F1F4F6801E114F10479F0CE
:10214000D701ED91FC910680F781E02DB801C70120
:102150000995080F111DF701E084F184EECFD80135
:102160001C92F60101900020E9F73197BF016C192C
:102170007D0940E0C601BFCF64E573E002C060E5C1
:1021800073E0FB01449150E080E80E94540CB8CF0A
:10219000EE3F2AE0F20751F0808191818737A7E76F
:1021A0009A0721F09093FF0A8093FE0A87E797E74A
:1021B0009183808380916000809388039BE088E115
:1021C0000FB6F894A895809360000FBE90936000BE
:1021D00097CF808191818737974709F091CFA89554
:1021E0008091600088618093600080918803809373
:1021F0006000EE3FBAE0FB0739F08091FE0A909153
:10220000FF0A918380837CCF1092FF0A1092FE0A0E
:1022100077CF81E28093EB006C960FB6F894DEBF27
:102220000FBECDBFDF91CF91FF91EF91BF91AF91E5
:102230009F918F917F916F915F914F913F912F91DE
:102240001F910F91FF90EF90DF90CF900F900FBEF6
:102250000F901F901895DC01ED91FC910190F08199
:10226000E02D09941F93CF93DF93EC018881806266
:1022700091E09093D3038093F5031092D4031092CE
:10228000F60369817A8182E10E94A01481E00E94B4
:1022900044146881606270E042E050E089819A8174
:1022A0000E94B21489819A810E94AA14182F8981F0
:1022B0009A810E94AA14212F30E0A901582BCA014B
:1022C000DF91CF911F9108951F93CF93DF93EC017E
:1022D000862F142F9881906221E02093D30390934E
:1022E000F5031092D4031092F60369817A810E945B
:1022F000A01469817A81812F0E94A01481E0DF916E
:10230000CF911F910C944414CF93DF93EC01862F4F
:102310009881906221E02093D3039093F50310926B
:10232000D4031092F60369817A810E94A01481E09F
:102330000E9444146881606270E041E050E089814D
:102340009A810E94B21489819A81DF91CF910C9475
:10235000AA14FF920F931F93CF93DF93EC01162FD4
:10236000F42E062F0770683010F065E101C064E1BB
:10237000CE010E94841141E050E060E070E004C0B2
:10238000440F551F661F771F0A95D2F7FF2011F0E3
:10239000482B02C040954823183010F063E101C07B
:1023A00062E1CE01DF91CF911F910F91FF900C94CC
:1023B0006411FF920F931F93CF93DF93EC01F42EE0
:1023C000683008F4022F162F1770602FCE010E947C
:1023D000841141E050E060E070E004C0440F551FFC
:1023E000661F771F1A95D2F7FF2011F0482B02C005
:1023F00040954823602FCE01DF91CF911F910F911F
:10240000FF900C946411AC01109258049091A806AE
:102410008091A706FA01BF01641B750B2091580437
:10242000308130935804931304C0921302C0109269
:1024300058043191311104C0921769F3CB0108950A
:102440003813E9CFF9CF6115710579F0FB010190DF
:102450000020E9F73197AF01461B570BDC01ED91E6
:10246000FC910280F381E02D099480E090E00895D2
:102470008F929F92AF92BF92EF92FF920F931F9312
:10248000CF93DF93CDB7DEB7A1970FB6F894DEBF39
:102490000FBECDBF7C01FA01CB0119A2223008F496
:1024A0002AE08E010F5D1F4F822E912CA12CB12CA2
:1024B000BF01A50194010E945821F901CA010150F0
:1024C00011096A3014F4605D01C0695CD8016C9335
:1024D000232B242B252B61F7B801C7010E9423125F
:1024E000A1960FB6F894DEBF0FBECDBFDF91CF919E
:1024F0001F910F91FF90EF90BF90AF909F908F90A2
:102500000895CF92DF92EF92FF920F931F93CF9394
:10251000DF9377FF1DC06A017B01EC016DE20E9431
:102520002B118C0144275527BA014C195D096E09FE
:102530007F092AE0CE010E943812800F911FDF919F
:10254000CF911F910F91FF90EF90DF90CF90089562
:102550002AE0DF91CF911F910F91FF90EF90DF90D4
:10256000CF900C9438120F931F93CF93C82F04EA87
:1025700016E06091A706F801808191810E942B11DD
:102580004C2F50E060E070E02AE0F80180819181FA
:10259000CF911F910F910C943812CF93DF9390E05D
:1025A000FC01E352FC4F2491FC01E254FC4F849166
:1025B0008823C1F090E0880F991FFC01E055FC4F83
:1025C000C591D491FC01EE55FC4FA591B4919FB7F4
:1025D000F8948881E22FE0958E2388838C91E823FC
:1025E000EC939FBFDF91CF910895CF93DF9320911C
:1025F0005304222391F0EC016091A7068091A40678
:102600009091A5060E942B11BE018091A406909185
:10261000A506DF91CF910C942312DF91CF910895FD
:10262000CF93DF93209153042223D1F0EC016091EA
:10263000A7068091A4069091A5060E942B11809177
:10264000A4069091A5064C815D8168817981DC01A9
:10265000ED91FC910280F381E02DDF91CF910994FF
:10266000DF91CF910895CF93DF93209153042223DC
:10267000A9F0EC016091A7068091A4069091A506AF
:102680000E942B11AE01DD0F660B770B8091A40623
:102690009091A506DF91CF910C948112DF91CF919B
:1026A00008950F931F93CF93DF9380919C06882307
:1026B00009F442C0813031F482E080939C06CCE57D
:1026C000D4E002C0C0E0D0E080919D06882351F1A3
:1026D000209721F4C091A106D091A2068E01CE01CF
:1026E0000E940312892B29F42196F801808181111F
:1026F000F5CFF8018081882309F1C8010E940312F7
:10270000F801E80FF91F8081882311F010823196BB
:10271000F093A206E093A106902F812F90939F063D
:102720008093A00680919F069091A006892B21F0AE
:1027300081E080939D0605C080E003C090E080E0CA
:10274000EDCFDF91CF911F910F91089580915304A8
:102750008823A1F06091A6068091A4069091A50619
:102760000E942B1180915B04882341F06CE173E09F
:102770008091A4069091A5060E94231210925A04FB
:102780001092530480E00895EF92FF920F931F93ED
:10279000CF93DF93EC01FB0104811581E080F18090
:1027A000E114F104C9F001151105C9F08C819D8176
:1027B000080F191FB801CE010E94ED0D882361F0AA
:1027C000288139818C819D81B701820F931F0E94DE
:1027D0003B261D830C8303C0CE010E94140ECE0144
:1027E000DF91CF911F910F91FF90EF900895EF929D
:1027F000FF920F931F93CF93DF93CDB7DEB762970E
:102800000FB6F894DEBF0FBECDBF8C01CB01F8012F
:102810001182108213821282158214824AE09E0174
:102820002F5F3F4F7901B9010E94861FF701019088
:102830000020E9F73197AF014E195F09B701C801D0
:102840000E94260E62960FB6F894DEBF0FBECDBF73
:10285000DF91CF911F910F91FF90EF90089590918C
:102860005304911110C091E09093530490935A0433
:10287000482F50E060E070E02AE08091A40690913B
:10288000A5060C9438120895282F3091F6033132A2
:1028900008F04AC08091D2038111FCCF9091F503DA
:1028A00042E04093D2032093D1032FEF2093D00333
:1028B0001092CF033093CE03E5EDF3E0AEEAB3E040
:1028C00020E0321721F041914D932F5FFACF109203
:1028D000AD032091AD03990F922B9093AD0390918E
:1028E000AC03913061F41092AC039091AD039093DE
:1028F000BB009091BC0093FDF8CF95EC01C095EE24
:102900009093BC009091D2039230E1F39091D00368
:102910009F3F79F08091D003803241F08091D003C5
:10292000803331F084E005C081E003C082E001C063
:1029300083E01092D4031092F6031092D30308950B
:10294000DB01ED91FC9111970190F081E02D682F52
:10295000CD010994DC01ED91FC910284F385E02D19
:10296000099508958091D2038111FCCF413208F07E
:1029700040E281E08093D2038093D1039FEF909354
:10298000D0031092CF03940F9093CE038093AD03A6
:102990008091AD03660F682B6093AD038091AC030B
:1029A000813061F41092AC038091AD038093BB0041
:1029B0008091BC0083FDF8CF85EC01C085EE80934B
:1029C000BC008091D2038130E1F38091CF03841762
:1029D00010F44091CF03AEEAB3E0ECE8F3E080E01E
:1029E000841721F09D9191938F5FFACF10928B0302
:1029F00080938A03089590E0FC01ED57FC4F4491C9
:102A0000FC01E352FC4F2491FC01E254FC4F849101
:102A1000882309F44CC04423E1F150E0FA013197D6
:102A2000EF30F105B0F5EF59FF4F0C9489219091EB
:102A300080009F7707C0909180009F7D03C0909198
:102A40008000977F9093800024C094B59F7702C048
:102A500094B59F7D94BD1DC0909190009F7707C055
:102A6000909190009F7D03C090919000977F9093EC
:102A700090000FC09091C0009F7703C09091C0005C
:102A80009F7D9093C00005C09091C200977F909366
:102A9000C200E82FF0E0EE0FFF1FEE55FC4FA591AE
:102AA000B4918FB7F894EC91E22BEC938FBF08951B
:102AB0003FB7F89480915A0890915B08A0915C0808
:102AC000B0915D0826B5A89B05C02F3F19F001966F
:102AD000A11DB11D3FBFBA2FA92F982F8827820FA4
:102AE000911DA11DB11DBC01CD0142E0660F771FF4
:102AF000881F991F4A95D1F70895CF93DF93EC0172
:102B0000683008F067E0688387EF93E09A838983F1
:102B100010928B0310928A031092D4031092F60342
:102B20001092D20381E08093D1031092AC0382E033
:102B30000E94FB1483E00E94FB148091B9008E7FF9
:102B40008093B9008091B9008D7F8093B90088E4AB
:102B50008093B80085E48093BC0081E692E0909376
:102B600058088093570882E692E090935608809325
:102B700055084FEF60E0CE010E9464114FEF61E015
:102B8000CE01DF91CF910C946411CF93DF9320910C
:102B900053042223D1F0EC016091A7068091A40692
:102BA0009091A5060E942B118091A4069091A506F4
:102BB0004C815D8168817981DC01ED91FC9102801D
:102BC000F381E02DDF91CF910994DF91CF910895AA
:102BD000CF93DF939091530491110AC0EB010E94AF
:102BE0002F14CE010E943313DF91CF910C94A613C2
:102BF00080E0DF91CF910895CF939091530491118C
:102C00000DC0C62F0E942F1480915304882319F001
:102C10008C2F0E94B312CF910C94A61380E0CF9119
:102C200008950E945113882359F081E080939D06F6
:102C300080939E0680919F069091A0060C94581F49
:102C400010929E0660E070E0CB010895CF93C62FEE
:102C50000E942F1480915304882391F06091A7065D
:102C60008091A4069091A5060E942B114C2F50E054
:102C700060E070E08091A4069091A5060E94811208
:102C8000CF910C94A61320915408211103C08FEF0B
:102C90009FEF08955FB7F89422E02093E900209118
:102CA000F20030E01216130614F421E030E0422F57
:102CB000FC0184E6415038F02898809353089091A5
:102CC000F1009193F7CF2115310521F08091F200A9
:102CD000882319F05FBFC90108958BE68093E8004F
:102CE000F9CF2FB7F89483E08093E9009091E80042
:102CF000892F807295FF04C09091F20080E4891BB7
:102D00002FBF08958091620881110DC082E08093E9
:102D10005E0884E080935F0810926108109260085A
:102D200081E0809362088EE598E00895823108F092
:102D30008251E82FF0E0E450FC4FE49180917B0059
:102D4000E3FB222720F930E095E0220F331F9A950C
:102D5000E1F78F7D282B20937B00E770E064E09300
:102D60007C0080917A00806480937A0080917A0060
:102D700086FDFCCF809178002091790090E0922B25
:102D800008958F929F92AF92BF92CF92DF92EF926F
:102D9000FF926B017C010E9458154B015C01C1142C
:102DA000D104E104F104F1F00E945815DC01CB01DB
:102DB00088199909AA09BB09883E9340A105B10564
:102DC00070F321E0C21AD108E108F10888EE880EFC
:102DD00083E0981EA11CB11CC114D104E104F104CC
:102DE00019F7DDCFFF90EF90DF90CF90BF90AF90BD
:102DF0009F908F9008951F920F920FB60F921124FB
:102E00002F933F938F939F93AF93BF9380914F08DE
:102E100090915008A0915108B091520830915908F2
:102E200023E0230F2D3720F40196A11DB11D05C00D
:102E300026E8230F0296A11DB11D20935908809307
:102E40004F0890935008A0935108B0935208809176
:102E50005A0890915B08A0915C08B0915D080196BA
:102E6000A11DB11D80935A0890935B08A0935C0844
:102E7000B0935D08BF91AF919F918F913F912F913A
:102E80000F900FBE0F901F9018950F931F93CF9325
:102E9000DF9300D000D000D0CDB7DEB7209153042F
:102EA000211114C08C0184E00E942F14B801CE01BE
:102EB00001960E944C0ECE0101960E94C515CE01CE
:102EC00001960E94470E0E94A61301C080E026963C
:102ED0000FB6F894DEBF0FBECDBFDF91CF911F912B
:102EE0000F910895AF92BF92CF92DF92EF92FF922F
:102EF0000F931F93CF93DF9300D000D000D0CDB7B6
:102F0000DEB75C016B017A01890181E00E942F1418
:102F10008FE193E00E94F51280915304882391F091
:102F20006091A7068091A4069091A5060E942B119E
:102F3000A501BB0C660B770B8091A4069091A506AA
:102F40000E948112B601CE0101960E944C0ECE0164
:102F500001960E94C515CE0101960E94470E83E29C
:102F600093E00E94F51286E293E00E94F512B70109
:102F7000CE0101960E944C0ECE0101960E94C5150D
:102F8000CE0101960E94470EB801CE0101960E9423
:102F90004C0ECE0101960E94C515CE0101960E94ED
:102FA000470E0E94A61326960FB6F894DEBF0FBEFA
:102FB000CDBFDF91CF911F910F91FF90EF90DF90E8
:102FC000CF90BF90AF900895789484B5826084BD0F
:102FD00084B5816084BD85B5826085BD85B581601D
:102FE00085BD80916E00816080936E00109281009B
:102FF0008091810082608093810080918100816056
:103000008093810080918000816080938000809116
:103010009100826080939100809191008160809303
:103020009100809190008160809390008091C10018
:1030300084608093C1008091C10082608093C10050
:103040008091C10081608093C1008091C300816044
:103050008093C3008091C00082608093C000809103
:10306000C20081608093C20080917A008460809366
:103070007A0080917A00826080937A0080917A0051
:10308000816080937A0080917A00806880937A00D2
:10309000109254081092700310926F038091D70021
:1030A00081608093D70080EA8093D80089B58061E1
:1030B00089BD89B5826089BD09B400FEFDCF61E09C
:1030C00070E080E090E00E94C1168091D8008F7C73
:1030D00080618093D8008091E000807F8093E00041
:1030E0008091E1008E7E8093E1008DE08093E2008C
:1030F000559A209A8FEF9FEF9093100480930F04BE
:1031000083E10E94CD1289E00E94CD1288E00E94E6
:10311000CD1285E10E94CD1282E10E94CD1284E1A0
:103120000E94CD1260E081E793E00E947D1564E08B
:1031300087E793E00E947D1562E084E793E00E94B8
:103140007D15C0E001E020E040E06C2F81E793E0D6
:103150000E94D91140E06C2F81E793E00E94A911F1
:1031600020E041E06C2F87E793E00E94D9110DE049
:103170002CE041E06C2F87E793E00E94D91101E039
:1031800020E041E06C2F84E793E00E94D9110DE02C
:103190002CE041E06C2F84E793E00E94D911CF5FCF
:1031A000C03181F601E020E040E067E084E793E091
:1031B0000E94D91144E04093AF071092B1071092DA
:1031C000B0071092B2071092B30781E090E090939D
:1031D000B5078093B40725E02093B60729E13CEFBB
:1031E0003093B8072093B7075FEF5093B907109259
:1031F000BC071092BD073093C2072093C1075093BC
:10320000C3071092C6071092C7073093CC072093CC
:10321000CB074093CD071092CF071092CE071092A4
:10322000D0071092D1079093D3078093D20768E01C
:103230006093D4073093D6072093D50761E260935B
:10324000D7079093D9078093D8071092DA07109286
:10325000DB0762E070E07093DD076093DC0710929B
:10326000DE073093E0072093DF074093E1071092D9
:10327000E3071092E2071092E4071092E50710921C
:10328000E7071092E6074093E8077093EA07609318
:10329000E9074093EB071092ED071092EC071092AC
:1032A000EE071092EF071092F1071092F00740938B
:1032B000F207E3E0F0E0F093F407E093F3074093C4
:1032C000F5071092F7071092F6071092F807109280
:1032D000F9071092FB071092FA074093FC07A4E04D
:1032E000B0E0B093FE07A093FD074093FF07109254
:1032F000010810920008109202081092030890939F
:10330000050880930408C6E0C093060830930808B7
:10331000209307084093090810920B0810920A089E
:1033200010920C0810920D0810920F0810920E08BF
:10333000C7E0C093100830931208209311084093FF
:103340001308109215081092140810921608109283
:1033500017081092190810921808CEE0C0931A08A6
:1033600030931C0820931B0840931D0810921F08DF
:1033700010921E08109220081092210890932308A2
:1033800080932208C1E0C093240808E010E0109365
:10339000260800932508D9E1D0933108909333088B
:1033A00080933208109234081092350870933708D1
:1033B000609336081092380830933A082093390801
:1033C000DAE1D09327089093290880932808109277
:1033D0002A0810922B0870932D0860932C081092E5
:1033E0002E083093300820932F08DBE1D093450856
:1033F0009093470880934608109248081092490815
:1034000070934B0860934A0810924C0830934E0812
:1034100020934D08DCE1D0933B0890933D088093C6
:103420003C0810923E0810923F0870934108609348
:103430004008109242083093440820934308509368
:103440000F0710921207109213073093180720935A
:1034500017075093190710921C0710921D073093FD
:1034600022072093210750932307109226071092DA
:10347000270730932C0720932B07D0E2D0932D07FA
:1034800090932F0780932E071092300710923107E8
:1034900070933307609332071092340730933607E6
:1034A00020933507D2E2D093370790933907809362
:1034B000380710923A0710923B0770933D076093CC
:1034C0003C0710923E073093400720933F07D3E21A
:1034D000D09341079093430780934207109244078B
:1034E000109245077093470760934607109248076C
:1034F00030934A0720934907509355071092580775
:103500001092590730935E0720935D0750935F0731
:103510001092620710926307309368072093670741
:103520004093A5071092A7071092A6071092A8072C
:103530001092A9079093AB078093AA0722E02093EB
:10354000AC0706E010E01093AE070093AD07409380
:103550009B0710929D0710929C0710929E07109255
:103560009F079093A1078093A0072093A207F09351
:10357000A407E093A307409391071092930710923A
:103580009207109294071092950790939707809353
:103590009607C0939807F0939A07E0939907409392
:1035A0008707109289071092880710928A07109255
:1035B0008B0790938D0780938C0720938E07B09391
:1035C0009007A0938F0740937D0710927F0710927A
:1035D0007E07109280071092810790938307809353
:1035E000820720938407E5E0F0E0F0938607E093FC
:1035F0008507409373071092750710927407109215
:103600007607109277079093790780937807209335
:103610007A0770937C0760937B0740936907109249
:103620006B0710926A0710926C0710926D079093C7
:103630006F0780936E0720937007909372078093B3
:1036400071078FEE92E09093AA068093A9068BE112
:1036500096E09093AC068093AB068CE693E0909353
:10366000C0068093BF0684E693E09093C2068093E1
:10367000C1068CE593E09093C4068093C30684E56D
:1036800093E09093C6068093C5068CE493E09093F4
:10369000C8068093C70684E493E09093CA0680939B
:1036A000C9068CE393E09093CC068093CB0684E02C
:1036B00093E09093D2068093D1068FE999E090939E
:1036C000D0068093CF0689E595E09093D406809349
:1036D000D30684E393E09093D6068093D50687E2E1
:1036E00093E09093D8068093D7068FE193E0909370
:1036F000DA068093D90687E193E09093DC06809305
:10370000DB0684E793E09093E6068093E50687E97D
:1037100093E09093E8068093E7068FE093E0909320
:10372000EA068093E90680EF92E09093F406809396
:10373000F3068824839444244A9433E0532E612C66
:10374000712C9924939487E793E00E9432117C01B5
:10375000E094F09420907C0330907D032E243F244D
:103760000FEA17E0C0E0D0E0BE010D2E000C880B80
:10377000990B0E94CA1F9B01AC0160E070E080E0E1
:1037800090E40E9446225B016C0120E030E0A90138
:103790000E94412220E030E040E05FE387FD05C069
:1037A000C601B5010E949F2104C0C601B5010E9457
:1037B0009E210E940B2262217321672B29F1D801DF
:1037C00014968C9220E030E0A901C601B5010E9458
:1037D000412220E030E040E05FE387FD05C0C60104
:1037E000B5010E949F2104C0C601B5010E949E211F
:1037F0000E940B226E217F210C2E02C076956795C8
:103800000A94E2F7F80163832196065F1F4FC031E7
:10381000D10509F0A9CFF0927D03E0927C0384E703
:1038200093E00E9432117C01E094F09420907A039E
:1038300030907B032E243F240FE017E0C0E0D0E05F
:10384000D8018C918F3F09F450C0BE010D2E000CA1
:10385000880B990B0E94CA1F9B01AC0160E070E0CD
:1038600080E090E40E9446225B016C0120E030E0A1
:10387000A9010E94412220E030E040E05FE387FDA3
:1038800005C0C601B5010E949F2104C0C601B50153
:103890000E949E210E940B2262217321672B29F135
:1038A000F801848220E030E0A901C601B5010E9440
:1038B000412220E030E040E05FE387FD05C0C60123
:1038C000B5010E949F2104C0C601B5010E949E213E
:1038D0000E940B226E217F210C2E02C076956795E7
:1038E0000A94E2F7D80113966C932196065F1F4F56
:1038F000C031D10509F0A4CFF0927B03E0927A03A6
:103900008FEA97E00E94C6098FE097E00E94C609FF
:1039100083E10E9496169C01ACE9BFEF0E948F21C3
:10392000A30192010E94F72069017A01B4E6CB0E4F
:10393000D11CE11CF11C80917E0390E08C199D0943
:1039400097FF03C09195819591090597DCF0B60129
:1039500082E190E00E94830BB60183E190E00E9437
:10396000830BB60181E190E00E94830BB60185E1F3
:1039700090E00E94830BB60184E190E00E94830BEB
:10398000C0927E0389E00E9496169C01ACE9BFEFCD
:103990000E948F21A30192010E94F72069017A0100
:1039A000E4E6CE0ED11CE11CF11C80917F0390E077
:1039B0008C199D0997FF03C09195819591090597F1
:1039C00064F0B60186E190E00E94830BB60187E1C6
:1039D00090E00E94830BC0927F0388E00E949616BD
:1039E0009C01ACE9BFEF0E948F21A30192010E94CC
:1039F000F72069017A01F4E6CF0ED11CE11CF11C1D
:103A00008091800390E08C199D0997FF03C09195E8
:103A10008195910905978CF0B60180E190E00E94B4
:103A2000830BB6018FE090E00E94830BB6018EE01D
:103A300090E00E94830BC092800385E10E9496165D
:103A40009C01ACE9BFEF0E948F21A30192010E946B
:103A5000F72069017A0184E6C80ED11CE11CF11C33
:103A6000960140918103842F90E08C199D0997FF66
:103A700003C09195819591090597F4F021153105C1
:103A800011F480E006C0121613062CF4411103C095
:103A900081E00E941105B6018BE090E00E94830B4B
:103AA000B6018DE090E00E94830BB6018CE090E0BF
:103AB0000E94830BC092810382E10E9496169C01B2
:103AC000ACE9BFEF0E948F21A30192010E94F72071
:103AD000BA01A9014C595F4F6F4F7F4F809182030C
:103AE00090E0841B950B97FF03C0919581959109F8
:103AF000059714F04093820384E10E94961624E611
:103B000030E0DC010E949721A30192010E94F7207E
:103B100069017A018091830390E0821B930B97FFE8
:103B200003C091958195910905975CF184E00E940D
:103B30002F1484E093E00E94F512809153048823AF
:103B4000E1F06091A7068091A4069091A5060E94DD
:103B50002B11AFEFBFE3A70196010E94162124E6C7
:103B600030E040E050E00E94F720BA01A9018091C6
:103B7000A4069091A5060E9481120E94A613C092ED
:103B8000830380915A048111E4C08091A40690912E
:103B9000A506DC01ED91FC910084F185E02D0995ED
:103BA000892B09F4D6C08091A4069091A506DC016A
:103BB000ED91FC910084F185E02D099581159240ED
:103BC0000CF0C3C08091A4069091A506DC01ED9194
:103BD000FC910084F185E02D09957C01C091A4063B
:103BE000D091A5062CE9A22E24E0B22E650100E0BA
:103BF00010E0E016F10619F4C0E0D0E066C02FB77F
:103C0000F89480914F0890915008A0915108B0917C
:103C100052082FBF88879987AA87BB87E881F981D7
:103C20000284F385E02DCE01099597FFA0C02FB740
:103C3000F89480914F0890915008A0915108B0914C
:103C400052082FBF488559856A857B85841B950B53
:103C5000A60BB70B4C815D816E817F818417950720
:103C6000A607B707D8F2C8CFF50191915F0110926E
:103C70009C063091A80620915904909359049317FB
:103C800041F14091A60680915504E82FF0E0ED5AED
:103C9000FB4F941323C0321709F11186882321F0BA
:103CA00090929C0610925904109255041092A0060E
:103CB00010929F061092A2061092A10690929D0665
:103CC00010919C06113099F02196EC16FD0661F6D4
:103CD00058CF9213D6CF10925904D3CF91878F5FCC
:103CE00080935504909157048917F0F6E9CF0E940C
:103CF0005113882359F010939D0610939E068091CE
:103D00009F069091A0060E943A1F04C010929E0642
:103D100080E090E080935404823378F420919E06F2
:103D2000222359F0FC01FF27EE0FFF1FE555F94F45
:103D30000190F081E02D309731F4E091A906F091E7
:103D4000AA06309709F20995BFCFE12C82E0F82E40
:103D500045CF64E670E080E090E00E94C116E0E0AC
:103D6000F0E0EF2B09F4EFCC0E940000ECCCD60180
:103D70008D936D010F5F1F4F3CCF10920604109280
:103D8000050488EE93E0A0E0B0E0809307049093F0
:103D90000804A0930904B0930A042AE331E03093A5
:103DA0000404209303042FEF3FEF3093100420937B
:103DB0000F041092FA031092F9038093FB0390937F
:103DC000FC03A093FD03B093FE038CE491E0909379
:103DD000F8038093F7031092AA061092A90683E0D5
:103DE00094E09093A5068093A40610925B048CE265
:103DF0008093A7068BE38093A6068FE28093A806A4
:103E000080E4809356048FE3809357041092550406
:103E10001092A00610929F061092A2061092A10680
:103E200081E080939D06EBEAF6E08FE097E0119247
:103E300011928E179F07D9F710925A04EFEAF7E014
:103E40008FE498E029E13CEF1382148231872087C8
:103E50003A968E179F07C1F7EFE0F7E089E19CEFF4
:103E600013821482918780873A9627E0EF3AF2070F
:103E7000B9F70895FC0188279927E8942191203209
:103E8000E9F3293010F02E30C8F32B3241F02D32F7
:103E900039F4689404C00E94A61F820F911D2191DD
:103EA00020532A30C0F31EF4909581959F4F0895BA
:103EB0001F93FC0199278827BC01E89411911032C7
:103EC000E9F3193010F01E30C8F31B3251F01D32E7
:103ED00049F4689406C00E94911F610F711D811DF5
:103EE000911D119110531A30B0F33EF490958095C6
:103EF000709561957F4F8F4F9F4F1F910895FB01E4
:103F0000DC0105900D920020E1F70895BB274A30AF
:103F100031F4992322F4BDE2909581959F4F0C9442
:103F2000AF1F592F482F372F262F660F771F881F57
:103F3000991F660F771F881F991F620F731F841FB9
:103F4000951F660F771F881F991F08957AE0979F26
:103F5000902D879F802D910D11240895BB27FB0183
:103F60005527AA27880F991FAA1FA41710F0A41B72
:103F700083955051B9F7A05DAA3308F0A95DA193CC
:103F8000009779F7B111B1931192CB010C9496205F
:103F9000E89409C097FB3EF49095809570956195E3
:103FA0007F4F8F4F9F4F9923A9F0F92F96E9BB2799
:103FB0009395F695879577956795B795F111F8CF15
:103FC000FAF4BB0F11F460FF1BC06F5F7F4F8F4F80
:103FD0009F4F16C0882311F096E911C0772321F076
:103FE0009EE8872F762F05C0662371F096E8862F0E
:103FF00070E060E02AF09A95660F771F881FDAF765
:10400000880F9695879597F90895990F0008550F91
:10401000AA0BE0E8FEEF16161706E807F907C0F04E
:1040200012161306E407F50798F0621B730B840B56
:10403000950B39F40A2661F0232B242B252B21F430
:1040400008950A2609F4A140A6958FEF811D811DD0
:1040500008950E943C200C94BD200E94AF2038F0AF
:104060000E94B62020F0952311F00C94A6200C9409
:10407000AC2011240C94F1200E94CE2070F3959F67
:10408000C1F3950F50E0551F629FF001729FBB274F
:10409000F00DB11D639FAA27F00DB11DAA1F649FEB
:1040A0006627B00DA11D661F829F2227B00DA11D9E
:1040B000621F739FB00DA11D621F839FA00D611D24
:1040C000221F749F3327A00D611D231F849F600D45
:1040D000211D822F762F6A2F11249F5750409AF06E
:1040E000F1F088234AF0EE0FFF1FBB1F661F771FFA
:1040F000881F91505040A9F79E3F510580F00C94C5
:10410000A6200C94F1205F3FE4F3983ED4F386950B
:1041100077956795B795F795E7959F5FC1F7FE2B64
:10412000880F911D9695879597F90895DC01FC01FC
:10413000672F71917723E1F7329704C07C916D93DB
:1041400070836291AE17BF07C8F3089597F99F6710
:1041500080E870E060E008959FEF80EC089500240F
:104160000A941616170618060906089500240A94DC
:1041700012161306140605060895092E0394000C62
:1041800011F4882352F0BB0F40F4BF2B11F460FFF1
:1041900004C06F5F7F4F8F4F9F4F089557FD90581A
:1041A000440F551F59F05F3F71F04795880F97FBFB
:1041B000991F61F09F3F79F08795089512161306B5
:1041C0001406551FF2CF4695F1DF08C016161706E4
:1041D0001806991FF1CF8695710561050894089519
:1041E000E894BB2766277727CB0197F90895052E1A
:1041F00097FB1EF400940E940E2157FD07D00E94E9
:10420000582107FC03D04EF40C940E215095409594
:10421000309521953F4F4F4F5F4F08959095809572
:10422000709561957F4F8F4F9F4F08950E947A211F
:10423000A59F900DB49F900DA49F800D911D1124FA
:1042400008952F923F924F925F926F927F928F923A
:104250009F92AF92BF92CF92DF92EF92FF920F9315
:104260001F93CF93DF93CDB7DEB7CA1BDB0B0FB61F
:10427000F894DEBF0FBECDBF09942A8839884888DC
:104280005F846E847D848C849B84AA84B984C88472
:10429000DF80EE80FD800C811B81AA81B981CE0F69
:1042A000D11D0FB6F894DEBF0FBECDBFED0108954E
:1042B000A1E21A2EAA1BBB1BFD010DC0AA1FBB1F2A
:1042C000EE1FFF1FA217B307E407F50720F0A21B9C
:1042D000B30BE40BF50B661F771F881F991F1A9409
:1042E00069F760957095809590959B01AC01BD0133
:1042F000CF010895A29FB001B39FC001A39F700D8D
:10430000811D1124911DB29F700D811D1124911DDD
:104310000895EE0FFF1F0590F491E02D09940E947F
:104320007A21332312F48A1B9B0B0C9499210E944F
:104330007A21B7FF0895821B930B08955058BB272D
:10434000AA270E94B6210C94BD200E94AF2038F00D
:104350000E94B62020F039F49F3F19F426F40C9403
:10436000AC200EF4E095E7FB0C94A620E92F0E9408
:10437000CE2058F3BA17620773078407950720F019
:1043800079F4A6F50C94F0200EF4E0950B2EBA2FDC
:10439000A02D0B01B90190010C01CA01A00111244B
:1043A000FF27591B99F0593F50F4503E68F11A16F7
:1043B000F040A22F232F342F4427585FF3CF469588
:1043C00037952795A795F0405395C9F77EF41F16AA
:1043D000BA0B620B730B840BBAF09150A1F0FF0F74
:1043E000BB1F661F771F881FC2F70EC0BA0F621F60
:1043F000731F841F48F4879577956795B795F79550
:104400009E3F08F0B0CF9395880F08F09927EE0FE4
:104410009795879508950E9412226894B1110C9483
:10442000F12008950E94D62088F09F5798F0B92F68
:104430009927B751B0F0E1F0660F771F881F991FD9
:104440001AF0BA95C9F714C0B13091F00E94F0206B
:10445000B1E008950C94F020672F782F8827B85F7B
:1044600039F0B93FCCF3869577956795B395D9F731
:104470003EF490958095709561957F4F8F4F9F4F3B
:1044800008950E94052008F48FEF0895FA01EE0FB9
:10449000FF1F309621053105A1F16115710561F409
:1044A0008038BFE39B0749F168949038810561F03B
:1044B0008038BFEF9B0741F099234AF5FF3FE105A4
:1044C0003105210519F1E8940894E795D901AA234B
:1044D00029F4AB2FBE2FF85FD0F310C0FF5F70F44C
:1044E000A695E0F7F73950F019F0FF3A38F49F77C6
:1044F0009F930DD00F9007FC9058089546F00C94B0
:10450000AC2060E070E080E89FE308954FE79F777C
:104510005F934F933F932F930E9441232F913F919D
:104520004F915F910E9429200C949E2229F416F04D
:104530000C94A6200C94F0200C94AC200E94D62061
:10454000A8F39638A0F707F80F92E8942BE33AEA1D
:1045500048EB5FE70E943F200F920F920F924DB7FA
:104560005EB70F920E948923E0EEF0E00E94D02215
:104570004F915F91EF91FF91E595EE1FFF1F49F07D
:10458000FE57E0684427EE0F441FFA95E1F7419586
:10459000550B0E9403230F9007FE0C94F7220895F9
:1045A000DF93CF931F930F93FF92EF92DF927B01E4
:1045B0008C01689406C0DA2EEF010E943C20FE01B7
:1045C000E894A5912591359145915591A6F3EF0178
:1045D0000E94B621FE019701A801DA9469F7DF90E5
:1045E000EF90FF900F911F91CF91DF9108959B0164
:1045F000AC0160E070E080E89FE30C94BD230C9474
:10460000A6200C942F240E94D620D8F39923C9F316
:10461000940F511DA3F39150504094F059F088230A
:1046200032F0660F771F881F91505040C1F79E3FB0
:1046300051052CF7880F911D9695879597F9089548
:104640005F3FACF0983E9CF0BB27869577956795C9
:10465000B79508F4B1609395C1F7BB0F58F711F403
:1046600060FFE8CF6F5F7F4F8F4F9F4FE3CF0C947A
:10467000F12016F00C942F240C94AC2068940C9428
:10468000A6200E94D620A8F39923C1F3AEF3DF93AE
:10469000CF931F930F93FF92C92FDD2788232AF012
:1046A0002197660F771F881FDAF720E030E040E897
:1046B0005FEB9FE3883920F0803E38F021968F77BA
:1046C0000E949F21E8E0F1E004C00E949F21E5E301
:1046D000F1E00E94D0228B01BE01EC01FB2E6F574E
:1046E00071097595771F880B990B0E94CA1F28E1E5
:1046F00032E741E35FE30E943C20AF2D9801AE0119
:10470000FF900F911F91CF91DF910E94B6210C94E1
:10471000BD20FA01DC01AA0FBB1F9B01AC01BF57F2
:1047200028F4222733274427507820C0B75190F42B
:10473000AB2F0024469537952795011CA395D2F3FE
:10474000002071F0220F331F441FB395DAF30ED00F
:104750000C949E2161307105A0E88A07B94630F4B7
:104760009B01AC016627772788279078309621F047
:10477000208331834283538308950E94D1230C9474
:10478000BD200E94B62058F00E94AF2040F029F4CE
:104790005F3F29F00C94A62051110C94F1200C9449
:1047A000AC200E94CE2068F39923B1F3552391F3F6
:1047B000951B550BBB27AA2762177307840738F090
:1047C0009F5F5F4F220F331F441FAA1FA9F335D0ED
:1047D0000E2E3AF0E0E832D091505040E695001CA1
:1047E000CAF72BD0FE2F29D0660F771F881FBB1F5B
:1047F000261737074807AB07B0E809F0BB0B802D39
:10480000BF01FF2793585F4F3AF09E3F510578F064
:104810000C94A6200C94F1205F3FE4F3983ED4F36F
:10482000869577956795B795F7959F5FC9F7880F38
:10483000911D9695879597F90895E1E0660F771F8A
:10484000881FBB1F621773078407BA0720F0621B1B
:10485000730B840BBA0BEE1F88F7E09508959F3F0A
:1048600031F0915020F4879577956795B795880F2B
:10487000911D9695879597F908950F931F93CF9360
:10488000DF938230910510F482E090E0E0916C08B3
:10489000F0916D0820E030E0A0E0B0E0309719F131
:1048A000408151810281138148175907C8F084174C
:1048B000950769F4109731F012960C93129713969E
:1048C0001C9327C000936C0810936D0822C021151B
:1048D000310519F04217530718F49A01BD01EF0191
:1048E000DF01F801DBCF21153105F9F0281B390B69
:1048F0002430310580F48A819B816115710521F096
:10490000FB019383828304C090936D0880936C08AD
:10491000FE01329644C0FE01E20FF31F8193919392
:1049200022503109398328833AC020916A08309196
:104930006B08232B41F42091100130911101309329
:104940006B0820936A0820910E0130910F01211508
:10495000310541F42DB73EB740911201509113013A
:10496000241B350BE0916A08F0916B08E217F307FE
:10497000A0F42E1B3F0B2817390778F0AC014E5FCF
:104980005F4F2417350748F04E0F5F1F50936B0899
:1049900040936A088193919302C0E0E0F0E0CF0178
:1049A000DF91CF911F910F910895CF93DF930097DF
:1049B00009F481C0FC01329713821282A0916C0825
:1049C000B0916D08109781F420813181820F931F7F
:1049D00020916A0830916B082817390751F5F09338
:1049E0006B08E0936A0867C0ED0120E030E0CE1765
:1049F000DF0740F44A815B819E0141155105F1F0CA
:104A0000EA01F5CFD383C28340815181840F951F82
:104A1000C817D90759F488819981840F951F029688
:104A2000918380838A819B819383828321153105C1
:104A300029F4F0936D08E0936C083DC0E901FB8315
:104A4000EA8349915991C40FD51FEC17FD0761F412
:104A500080819181840F951F0296E9019983888353
:104A6000828193819B838A83E0E0F0E012968D91AE
:104A70009C911397009719F0FD01DC01F7CF8D9100
:104A80009C9111979D012E5F3F4F820F931F2091A4
:104A90006A0830916B082817390769F4309729F4B0
:104AA00010926D0810926C0802C013821282B093AB
:104AB0006B08A0936A08DF91CF910895A0E0B0E061
:104AC000E4E6F5E20C942521EC01009721F4CB01FA
:104AD0000E943D24B4C0FC01E60FF71F9C01225048
:104AE0003109E217F30708F4A8C0D9010D911C9110
:104AF000119706171707B0F00530110508F49BC091
:104B0000C80104978617970708F495C00250110949
:104B1000061B170B019311936D937C93CF010E9499
:104B2000D52489C05B01A01AB10A4C01800E911EE8
:104B3000A0916C08B0916D08612C712CE12CF12CC6
:104B4000109709F446C08D919C911197A815B9054D
:104B5000B1F56C0142E0C40ED11CCA14DB0478F13B
:104B60004C018A189B08640142E0C40ED11C1296C5
:104B7000BC9012971396AC91B5E0CB16D10440F0DF
:104B8000B282A38391828082D9016D937C9309C004
:104B90000E5F1F4F800F911FF90191838083EB2DD2
:104BA000FA2FE114F10431F0D7011396FC93EE9340
:104BB000129741C0F0936D08E0936C083CC06816F2
:104BC000790608F43C017D0112960D90BC91A02D50
:104BD000B7CF80916A0890916B0888169906E1F426
:104BE00066167706C8F480910E0190910F01009728
:104BF00041F48DB79EB74091120150911301841B6F
:104C0000950BE817F907C8F4F0936B08E0936A086E
:104C1000F901718360830FC0CB010E943D247C01A8
:104C2000009759F0A801BE010E942926CE010E94DA
:104C3000D524C70104C0CE0102C080E090E0CDB70A
:104C4000DEB7EEE00C94412181E090E0F8940C9402
:104C50004226FB01DC0102C001900D924150504000
:104C6000D8F70895FB01DC018D91019080190110A6
:104C7000D9F3990B0895FB01DC0101900D920020FE
:084C8000E1F70895F894FFCF5D
:104C88000300FFFFFFFF00E100000000000000003C
:104C98006E08200001020302000500010004000361
:104CA8000006000A000B000C000D000E000F0000AB
:104CB800C1808100000000000000B20C210DA70D8A
:104CC800C80CD30CCF0DAB0D00000000BC028F0246
:104CD800EC0263028702730264024D5346533A475B
:104CE8004C415245534849454C445F4C4947485408
:104CF800535F4F4E004D5346533A474C415245532C
:104D08004849454C445F4C49474854535F4F4646D1
:104D180000535542534352494245004D5346533A76
:104D28000053494D434F4E4E4543543A00494E496E
:104D380054005350414400434A20437573746F6DC7
:104D48002050616E656C0050494E4700504F4E47E9
:104D580000434F4E464947004655454C5359535416
:104D6800454D2050554D50204143544956453A0031
:104D78004655454C53595354454D2056414C56457C
:104D8800205357495443483A33004155544F204221
:104D980052414B4520535749544348204342004110
:104DA800505520535749544348003F00737769745E
:104DB800636865732F454E47315F535441525445DC
:104DC800525F4D4153544552007377697463686567
:104DD800732F454E47325F535441525445525F4DED
:104DE80041535445520073776974636865732F455E
:104DF8004E475F4D4F44455F53535F4352414E4BBF
:104E08000073776974636865732F454E475F4D4F2C
:104E180044455F53535F5354415254007377697448
:104E2800636865732F4252414B4500737769746319
:104E38006865732F474E445F53504F494C45525F46
:104E480041524D0073776974636865732F414E54FE
:104E580049534B49440073776974636865732F50ED
:104E680041524B5F4252414B45004D5346533A4CD9
:104E7800494748545F504F54454E54494F4D455447
:104E880045525F0053494D434F4E4E4543543A53A4
:104E9800504F494C4552535F534554000D0A004149
:0A4EA8004444005538005257000042
:00000001FF
