:100000000C9405020C942D020C942D020C942D02DC
:100010000C942D020C942D020C942D020C942D02A4
:100020000C942D020C942D020C94540E0C94C60EBC
:100030000C942D020C942D020C942D020C942D0284
:100040000C942D020C942D020C942D020C942D0274
:100050000C942D020C942D020C942D020C94D416A9
:100060000C942D020C942D020C942D020C942D0254
:100070000C942D020C942D020C942D020C942D0244
:100080000C942D020C942D020C942D020C942D0234
:100090000C94E3030C942D020C942D020C942D026D
:1000A0000C942D020C942D020C942D02CD0AD80A2A
:1000B000E40AE80A450B450B450BED0AF30AFF0A73
:1000C0000C0BFE140115F014F414F814221522156B
:1000D0002215051509150D151315171522151D15D2
:1000E00007634236B79BD8A71A39685618AEBAAB21
:1000F000558C1D3CB7CC5763BD6DEDFD753EF617B5
:100100007231BF000000803F08000000BE92244909
:10011000123EABAAAA2ABECDCCCC4C3E0000008039
:10012000BEABAAAAAA3E00000000BF000000803FAC
:100130000000000000084178D3BB4387D1133D196C
:100140000E3CC3BD4282AD2B3E68EC8276BED98F99
:10015000E1A93E4C80EFFFBE01C4FF7F3F000000DD
:10016000000053504F494C4552532041524D454495
:10017000004150555F535441525445520045585424
:1001800045524E414C20504F574552204F4E00464D
:1001900055454C53595354454D2056414C564520D6
:1001A0005357495443483A3800424C45454420414E
:1001B000495220534F5552434520434F4E54524FBE
:1001C0004C004150552047454E455241544F522016
:1001D000535749544348004252414B4520504152E5
:1001E0004B494E4720494E44494341544F520054D5
:1001F00048524F54544C455F524556455253455F03
:100200005448525553545F544F47474C4500415052
:10021000555F47454E455241544F525F53574954DD
:1002200043485F544F47474C45004150555F424C4F
:100230004545445F4149525F534F555243455F54D2
:100240004F47474C4500544F47474C455F4558542E
:1002500045524E414C5F504F574552005345545FF5
:100260004155544F4252414B455F434F4E54524FBC
:100270004C005041524B494E475F4252414B45530F
:10028000004655454C53595354454D5F50554D50BC
:100290005F544F47474C45004655454C53595354BE
:1002A000454D5F56414C56455F544F47474C4500BE
:1002B000414E5449534B4944204252414B455320EF
:1002C00041435449564500B0029802810272025CD3
:1002D0000246022A020E02EF01D701C201A9018FD4
:1002E000017D01710162017B444437453338323668
:1002F0002D453433392D343438342D423138362DB0
:100300004631343433463342433532327D00080BB4
:1003100000020202010009040000010202000005BF
:10032000240010010524010101042402060524060D
:1003300000010705810310004009040100020A00C2
:10034000000007050202400000070583024000008C
:100350000403090412010002EF0201404123368028
:1003600000010102030141726475696E6F204C4CFB
:10037000430041726475696E6F204C656F6E6172E7
:10038000646F000000000200090F00000304010078
:100390000C00000000000000000000000000000051
:1003A000000000000000250028002B002E00310076
:1003B00000000000240027002A002D003000040463
:1003C00004040403040502020202040302020202FE
:1003D00006060606060604040202020404040802D5
:1003E00001104080401020408040800802040180BD
:1003F0004020100201108010204040200706050414
:100400000100080A0B0C0D09961E11241FBECFEF28
:10041000DAE0DEBFCDBF13E0A0E0B1E0EAE3FCE448
:1004200002C005900D92A631B107D9F728E0A6E1E8
:10043000B3E001C01D92AA35B207E1F712E0C5E0B2
:10044000D2E004C02197FE010E946221C430D1078E
:10045000C9F70E94BD170C941B260C94000085ED73
:100460008093BC008091BC0084FDFCCF1092BE0341
:10047000089540913803262F30E0240F311D21329A
:100480003105DCF42091BE032430C9F4FC0180E086
:1004900090E0861758F4309138032191DC01A85E72
:1004A000BC4FA30FB11D2C930196F3CF809138035D
:1004B000680F6093380380E0089581E0089582E03A
:1004C0000895089508950895E09177038091760343
:1004D000E81730F4F0E0E858FC4F808190E0089590
:1004E0008FEF9FEF0895909177038091760398178F
:1004F00050F4E92FF0E0E858FC4F208130E09F5F96
:100500009093770302C02FEF3FEFC90108958091C8
:10051000760390E020917703821B91090895CF9292
:10052000DF92EF92FF920F931F93CF93DF937C01A3
:10053000CB018A012091BF03222389F0EB016B01DB
:10054000C40ED51ECC15DD0569F06991D701ED917A
:10055000FC910190F081E02DC7010995F3CF642F44
:100560000E943902C801DF91CF911F910F91FF9036
:10057000EF90DF90CF900895CF93DF931F92CDB788
:10058000DEB769832091BF032223D1F02091E203DB
:10059000203240F021E030E0FC013383228380E010
:1005A00090E015C08091C003E82FF0E0EF53FC4FBE
:1005B000998190838F5F8093C0038093E20305C08D
:1005C00061E0CE0101960E94390281E090E00F9037
:1005D000DF91CF910895089580E090E00895089507
:1005E0000E94EA154091C607242F30E026173707EE
:1005F00051F0413019F06FEF7FEF02C061E070E021
:1006000081E20C94C11508950E94EA1521E0672B40
:10061000682B692B09F020E02093170308950E94AE
:10062000EA15462F6AE08DE593E00C9482110E9452
:10063000EA15462F64E08DE593E00C9482110E9448
:10064000EA15462F6BE08DE593E00C9482110E9431
:10065000EA1541E0672B682B692B09F040E068E060
:100660008DE593E00C9482110E94EA15462F69E013
:100670008DE593E00C9482110E94EA15462F6EE0FE
:100680008DE593E00C9482110E94EA15462F6CE0F0
:100690008DE593E00C9482110E94EA15462F6DE0DF
:1006A0008DE593E00C9482110E94EA15462F6FE0CD
:1006B0008DE593E00C9482110E94EA15462F67E0C5
:1006C0008DE593E00C9482110E94EA15462F65E0B7
:1006D0008DE593E00C9482110E94EA15462F66E0A6
:1006E0008DE593E00C948211CF93DF930E94EA157D
:1006F000EB0163E183E693E00E945D1185FB8827AF
:1007000080F991E0892790E0C817D90769F08091B6
:100710003F04811109C061E0CD2B09F060E089E15F
:10072000DF91CF910C94FF15DF91CF910895CF9376
:10073000DF930E94EA15EB0163E183E693E00E94F8
:100740005D118295817091E0892790E0C817D907E3
:1007500069F080913F04811109C061E0CD2B09F05F
:1007600060E08AE1DF91CF910C94FF15DF91CF918A
:1007700008950F931F93CF93DF93CDB7DEB7AD9757
:100780000FB6F894DEBF0FBECDBF8C01FB01EE0F9C
:10079000FF1FE953FD4F65917491CE0101960E94B0
:1007A000581FBE016F5F7F4FC8010E943F0EC801F6
:1007B000AD960FB6F894DEBF0FBECDBFDF91CF91DF
:1007C0001F910F9108951F920F920FB60F9211244F
:1007D0002F933F934F935F936F937F938F939F9349
:1007E000AF93BF93EF93FF938091B900887F8036DA
:1007F00009F49CC068F5883209F45BC090F480313C
:1008000009F454C038F4882309F4F6C0883009F498
:100810004DC0F6C0883109F44CC0803209F45DC087
:10082000EFC0803409F468C048F4803309F455C03F
:10083000883309F0E5C08093BC03D8C0803509F443
:100840004FC0883509F45DC0883409F0D9C0D6C0DE
:10085000883909F4C7C0A8F4883709F467C038F4A8
:10086000883609F463C0803709F460C0C9C088388D
:1008700009F4B8C0803909F45FC0803809F0C0C0FD
:100880005BC0803B09F486C038F4803A09F466C046
:10089000883A09F47FC0B4C0803C09F4A7C0883C02
:1008A00009F4A4C0883B09F48AC0AAC080919903C6
:1008B00010C09091BB038091BA03981770F5E09136
:1008C000BB0381E08E0F8093BB03F0E0E656FC4F44
:1008D00080818093BB0085EC86C08093BC038EC072
:1008E000E091BB0381E08E0F8093BB038091BB003E
:1008F000F0E0E656FC4F80839091BB038091BA03F1
:100900006EC0E091BB0381E08E0F8093BB038091AA
:10091000BB00F0E0E656FC4F80838091BD0381115F
:100920006DC081E08093980384EA61C083E0809386
:10093000BE0310925A03CFCF80915A03803208F041
:1009400051C0E0915A0381E08E0F80935A03809149
:10095000BB00F0E0E65CFC4F8083BDCF85EC80936C
:10096000BC001092BE0380915A03803230F4E091B3
:100970005A03F0E0E65CFC4F108260915A0370E08D
:10098000E0914108F09142088AE393E009951092C2
:100990005A0336C084E08093BE031092390310924C
:1009A0003803E0914308F091440809958091380399
:1009B000811105C081E08093380310921803E09103
:1009C000390381E08E0F80933903F0E0E85EFC4F3D
:1009D00080818093BB0090913903809138039817F0
:1009E00008F479CF85E88093BC000AC085EC809339
:1009F000BC001092BE0304C01092BC030E942F02E0
:100A0000FF91EF91BF91AF919F918F917F916F91E6
:100A10005F914F913F912F910F900FBE0F901F90BC
:100A20001895CF92DF92EF92FF920F931F93CF937F
:100A3000DF9300D01F92CDB7DEB720911401309123
:100A400015014091160129833A834B83882329F0AD
:100A50009AE5E92E91E0F92E04C085E7E82E81E0C1
:100A6000F82E8E010F5F1F4F6E0184E0C80ED11C5F
:100A700084E00E940814C7010E94CE1280913F04B6
:100A8000882321F0F80180810E948C120E947F133C
:100A90000F5F1F4F0C151D0559F70F900F900F900A
:100AA000DF91CF911F910F91FF90EF90DF90CF904A
:100AB0000895CF93DF93CDB7DEB72C970FB6F89498
:100AC000DEBF0FBECDBF0E94EA1521E030E0672BEC
:100AD000682B692B11F420E030E081E090E0409138
:100AE0003007442311F080E090E02817390711F116
:100AF00063E070E0CE0107960E94B90380913F0445
:100B0000811114C084E00E940814BE01695F7F4F08
:100B1000CE0101960E94250ECE0101960E949E15DF
:100B2000CE0101960E94200E0E947F13CE010796EF
:100B30000E94200E2C960FB6F894DEBF0FBECDBFDC
:100B4000DF91CF910895CF92DF92EF92FF920F93B2
:100B50001F93CF93DF93CDB7DEB76E970FB6F894A0
:100B6000DEBF0FBECDBF6C017B018A0181E00E9418
:100B7000081481E991E00E94CE12C6010E940C1374
:100B8000B801CE01EF2899F043960E943F0E6BE921
:100B900071E0CE010D960E943F0EBE016D5E7F4F4B
:100BA000CE010D960E949D1300E011E012C0079641
:100BB0000E943F0E61EA71E0CE0101960E943F0E55
:100BC000BE01695F7F4FCE0101960E949D1301E037
:100BD00010E0BC01CE0149960E94250ECE01499637
:100BE0000E94E912CE0149960E94200E002341F096
:100BF000CE0101960E94200ECE0107960E94200E83
:100C0000112341F0CE010D960E94200ECE01439695
:100C10000E94200E0E947F136E960FB6F894DEBFDE
:100C20000FBECDBFDF91CF911F910F91FF90EF903D
:100C3000DF90CF900895CF92DF92EF92FF920F93C3
:100C40001F93CF93DF93CDB7DEB7AA970FB6F89473
:100C5000DEBF0FBECDBF0E942A13882351F081E072
:100C60008093890680938A0600918B0610918C06EA
:100C700004C010928A0600E010E06DEA71E0C8013D
:100C80000E940B26892B79F580E00E94081482EBE4
:100C900091E00E94CE1280913F04811105C087EB44
:100CA00091E00E94CE1245C060919306809190061B
:100CB000909191060E940411E0909006F0909106A8
:100CC00007EE12E0F8016491662349F3D701ED9134
:100CD000FC910190F081E02DC70109950F5F1F4F36
:100CE000892B81F7DCCF67EC71E0C8010E940B26ED
:100CF000892B11F580E00E9408148CEC91E00E9491
:100D0000CE120E94EA156B017C0180913F0488237A
:100D100081F06091930680919006909191060E94D7
:100D20000411B701A60180919006909191060E944E
:100D30005A120E947F13FDC161ED71E0C8010E944B
:100D40000B26892B09F0DDC18CE0E7E1F1E0DE0143
:100D50001D9601900D928A95E1F78CE0E3E2F1E0B7
:100D6000DE01119601900D928A95E1F78E01035FE5
:100D70001F4FFE0131967F016E01F9E1CF0ED11CAC
:100D8000D8016D917D918D01CE014F960E94D013B7
:100D900068ED71E0C6010E943F0EBE01615E7F4FAB
:100DA000C6010E949D13FC014081518161E070E009
:100DB000D7018D919D917D010E94A305C6010E94DE
:100DC000200ECE014F960E94200E0C151D05C1F677
:100DD00040EF51E061E070E080E190E00E94A30507
:100DE00060E070E0C8010E94B903498D5A8D60E04F
:100DF00070E082E190E00E94A305C8010E94200EED
:100E00004AE052E060E070E083E190E00E94A305D8
:100E100069E070E0C8010E94B903498D5A8D60E015
:100E200070E084E190E00E94A305C8010E94200EBA
:100E30006AE070E0C8010E94B903498D5A8D60E0F4
:100E400070E085E190E00E94A305C8010E94200E99
:100E50006BE070E0C8010E94B903498D5A8D60E0D3
:100E600070E086E190E00E94A305C8010E94200E78
:100E70006CE070E0C8010E94B903498D5A8D61E0B1
:100E800070E087E190E00E94A305C8010E94200E57
:100E90006DE070E0C8010E94B903498D5A8D61E090
:100EA00070E088E190E00E94A305C8010E94200E36
:100EB0004FE152E061E070E08FE190E00E94A30515
:100EC0006FE070E0C8010E94B903498D5A8D60E05F
:100ED00070E084E290E00E94A305C8010E94200E09
:100EE0006AE272E0CE0185960E943F0E6AE272E0ED
:100EF000CE014F960E943F0E6CE272E0C8010E9444
:100F00003F0E9E012B5D3F4FAE01415E5F4FB8012A
:100F100089E190E00E944B17C8010E94200ECE018B
:100F20004F960E94200ECE0185960E94200E6AE206
:100F300072E0CE0185960E943F0E6AE272E0CE0119
:100F40004F960E943F0E69E472E0C8010E943F0E76
:100F50009E012B5D3F4FAE01415E5F4FB8018AE1BC
:100F600090E00E944B17C8010E94200ECE014F96C0
:100F70000E94200ECE0185960E94200E6AE272E049
:100F8000CE0185960E943F0E6AE272E0CE014F9636
:100F90000E943F0E66E672E0C8010E943F0E9E016D
:100FA0002B5D3F4FAE01415E5F4FB8018BE190E09A
:100FB0000E944B17C8010E94200ECE014F960E943E
:100FC000200ECE0185960E94200E6AE272E0CE01CC
:100FD00085960E943F0E6AE272E0CE014F960E9413
:100FE0003F0E61E872E0C8010E943F0E9E012B5D3A
:100FF0003F4FAE01415E5F4FB8018CE190E00E942F
:101000004B17C8010E94200ECE014F960E94200E61
:10101000CE0185960E94200E6AE272E0CE0185968E
:101020000E943F0E6AE272E0CE014F960E943F0E90
:101030006CE972E0C8010E943F0E9E012B5D3F4F9C
:10104000AE01415E5F4FB80180E290E00E944B1715
:10105000C8010E94200ECE014F960E94200ECE01A4
:1010600085960E94200E6AE272E0CE0185960E946B
:101070003F0E6AE272E0CE014F960E943F0E6BEA8D
:1010800072E0C8010E943F0E9E012B5D3F4FAE01F2
:10109000415E5F4FB80181E290E00E944B17C801AA
:1010A0000E94200ECE014F960E94200ECE01859602
:1010B0000E94200E6AE272E0CE0185960E943F0EE9
:1010C0006AE272E0CE014F960E943F0E64EC72E03D
:1010D000C8010E943F0E9E012B5D3F4FAE01415E55
:1010E0005F4FB80182E290E00E944B17C8010E9456
:1010F000200ECE014F960E94200ECE0185960E94B2
:10110000200E80913F04811108C00E94081481EDD7
:1011100091E00E94CE120E947F13809130078130AF
:1011200019F061E070E002C06FEF7FEF83E20E9490
:10113000C115AA960FB6F894DEBF0FBECDBFDF91E2
:10114000CF911F910F91FF90EF90DF90CF90089576
:10115000EF92FF920F931F93CF93DF93CDB7DEB73C
:1011600062970FB6F894DEBF0FBECDBF8C0140E092
:1011700061E08DE593E00E94821140E060E08DE542
:1011800093E00E94821140E067E080E693E00E94D5
:10119000821180911703882319F00330110531F46F
:1011A00083E090E090930101809300018091160309
:1011B000882309F442C0809100019091010101153A
:1011C000110581F4892B19F440E061E012C041E07F
:1011D00061E08DE593E00E9482111092010110926E
:1011E00000012BC001301105A1F4019769F440E022
:1011F00060E08DE593E00E94821183E090E090939F
:1012000001018093000119C041E060E08DE593E0A9
:101210000EC00230110589F4029729F440E067E01E
:1012200080E693E0E8CF41E067E080E693E00E944B
:1012300082111093010100930001809100019091AF
:1012400001018330910561F08230910569F08130B0
:10125000910571F0892B79F432E0E32EF12C0BC06B
:10126000EE24E394F12C07C094E0E92EF12C03C0A6
:1012700083E0E82EF12C84E00E94081464E070E022
:10128000CE0107960E94B90361EA71E0CE01019692
:101290000E943F0EBE01695F7F4FCE0101960E9402
:1012A0009D13BC01CE010D960E94250ECE010D9618
:1012B0000E94E912CE010D960E94200ECE010196E9
:1012C0000E94200ECE0107960E94200EC7010E94A8
:1012D0000C130E947F1362960FB6F894DEBF0FBE08
:1012E000CDBFDF91CF911F910F91FF90EF900895A7
:1012F0000E94EA1541E0611571058105910509F427
:1013000040E050912607242F30E0E52FF0E02E1723
:101310003F0751F0513019F06FEF7FEF02C061E0ED
:1013200070E082E20C94C11540931603672B682B82
:10133000692B21F483E090E00C94A8080895CF92E3
:10134000DF92EF92FF920F931F93CF93DF93CDB76E
:10135000DEB7EC970FB6F894DEBF0FBECDBF8C01A1
:101360007C0120EAE20EF11CD801EC91EF3F09F478
:101370008EC11496DC901497DD2009F488C1119673
:101380008D919C911297009709F0E2C013968C9171
:101390001397813009F079C117966C9117971896B9
:1013A0008D919C9119976430A1F48430910519F4C2
:1013B00082E090E005C08330910529F481E090E05F
:1013C0000E94A80862C18230910519F480E090E083
:1013D000F7CF89319C4F09F062C0F8018581968171
:1013E00070E0892B99F0CE01C1960E94B9036BE998
:1013F00071E0CE018B960E943F0EBE016F5C7F4F65
:10140000CE018B960E949D13C12C13C0CE018596F0
:101410000E94B90361EA71E0CE014F960E943F0E2F
:10142000BE016B5D7F4FCE014F960E949D13CD2C68
:10143000D12CBC01CE01C7960E94250E80913F049D
:10144000811115C0D8018C910E940814BE01695CFD
:101450007F4FCE0101960E94250ECE0101960E947B
:10146000E912CE0101960E94200E0E947F13CE0148
:10147000C7960E94200ECC2041F0CE014F960E94CC
:10148000200ECE0185960E94200EDD2009F4FDC0BD
:10149000CE018B960E94200ECE01C196D6C08E2F13
:1014A0000E940814F80185819681678170E0892B7C
:1014B00099F0CE0149960E94B9036BE971E0CE0123
:1014C00043960E943F0EBE01675E7F4FCE0143965A
:1014D0000E949D13C12C13C0CE010D960E94B9032A
:1014E00061EA71E0CE0107960E943F0EBE01635F84
:1014F0007F4FCE0107960E949D13CD2CD12CBC01AD
:10150000CE0101960E94250ECE0101960E94E9129D
:10151000CE0101960E94200ECC2041F0CE0107960C
:101520000E94200ECE010D960E94200EDD2041F07B
:10153000CE0143960E94200ECE0149960E94200EB5
:10154000D80118968D919C9119970E940C139BC0FD
:101550008230910559F4E43029F0D80113966C914A
:101560008E2F3EC0F801678170E065C0019709F0D9
:101570008CC0D80115968D919C911697029709F011
:1015800067C08E2F90E0FC017997EB30F10508F0F1
:101590007CC0EA5AFF4F0C946221F80183818111CB
:1015A00003C061E070E002C06FEF7FEF89E131C0FE
:1015B000D80113968C91811103C061E070E002C0E4
:1015C0006FEF7FEF8AE125C0F80163818BE108C0EE
:1015D000D80113966C918CE103C0F801638180E21D
:1015E0000E94D51552C0D80113968C91813019F004
:1015F0006FEF7FEF02C061E070E081E20AC0F801A6
:101600008381813019F06FEF7FEF02C061E070E0FD
:1016100082E20E94C11539C0D80113968C918130A5
:1016200019F061E070E002C06FEF7FEF83E20E948B
:10163000C11563E070E0CE0101960E94B903CE01AE
:1016400001960E941E17CE0101960E94200E1DC019
:1016500084E00E940814F801678170E0CE010196D1
:101660000E94B903CE0101960E949E15CE010196FB
:101670000E94200E80913F04882329F0D801139600
:101680008C910E948C120E947F13F8011482065FD5
:101690001F4FE016F10609F067CEEC960FB6F894EE
:1016A000DEBF0FBECDBFDF91CF911F910F91FF9095
:1016B000EF90DF90CF900895CF92DF92EF92FF925C
:1016C0000F931F93CF93DF93CDB7DEB762970FB61B
:1016D000F894DEBF0FBECDBF8C016B0184E00E9489
:1016E0000814B801CE0107960E94D01366ED72E08F
:1016F000CE0101960E943F0EBE01695F7F4FCE0171
:1017000001960E949D138C01FC01E480F580F4E0B9
:10171000EF0EF11CB7010E94C60D8823B9F1F80144
:10172000208131818481958163E073E0820F931F72
:101730000E941426F801F582E482B801CE010D96CC
:101740000E94250ECE010D960E94E912CE010D9643
:101750000E94200ECE0101960E94200ECE01079617
:101760000E94200EC6010E940C130E947F136296F5
:101770000FB6F894DEBF0FBECDBFDF91CF911F91A2
:101780000F91FF90EF90DF90CF900895C8010E94D5
:10179000ED0DD3CF409172035091730320917003EC
:1017A0003091710342175307B4F49091E80095709B
:1017B000E1F39091E80092FD19C08093F1008091CF
:1017C00072039091730301968F739927892B19F4F3
:1017D0008EEF8093E80080917203909173030196DD
:1017E000909373038093720381E0089580E00895DD
:1017F000DF92EF92FF920F931F93CF93DF93D82E38
:10180000F92EE42E062F10E0C8010196880F0E94E1
:10181000CA0B83E00E94CA0BCD2DDF2D0C0F1D1FBC
:10182000C017D10789F0E7FE03C0FE01849101C013
:1018300088810E94CA0BF82E80E00E94CA0B8F217B
:1018400021968111EDCF01C081E0DF91CF911F91F1
:101850000F91FF90EF90DF900895DF92EF92FF924B
:101860000F931F93CF93DF93D82E8A017B01E40E51
:10187000F51EEB01CE15DF0571F0D7FE03C0FE01AA
:10188000849101C088810E94CA0B21968111F2CFF8
:101890008FEF9FEF01C0C801DF91CF911F910F9192
:1018A000FF90EF90DF900895615030F02091F100AB
:1018B000FC0120830196F8CF289884E680933F08A6
:1018C0000895CF92DF92EF92FF920F931F93CF93E1
:1018D000DF936C017A018B01C0E0D0E0CE15DF050B
:1018E00081F0D8016D918D01D601ED91FC910190AF
:1018F000F081E02DC6010995892B11F02196EECFDC
:101900007E01C701DF91CF911F910F91FF90EF9062
:10191000DF90CF900895CF93DF931F92CDB7DEB7BE
:101920006983DC01ED91FC910280F381E02D41E0BF
:1019300050E0BE016F5F7F4F09950F90DF91CF910F
:10194000089583E08093E9008091F200882319F0E4
:101950008AE38093E8000895FC018485958597FDCE
:101960000BC09FB7F89482E08093E9008091F20069
:101970009FBF90E0019608959FB7F89482E080930E
:10198000E9008091F2009FBF90E008950E94FD253C
:101990000F931F93CF93DF931F92CDB7DEB782E0F3
:1019A000898342E450E06EE073E080E80E942D0CF1
:1019B0000E945B16DC0112960D911C911397011584
:1019C000110589F0D801ED91FC910280F381E02DA1
:1019D000BE016F5F7F4FC801099597FD04C0F801F4
:1019E00000851185ECCF89810F90DF91CF911F91F8
:1019F0000F9108958F929F92AF92BF92CF92DF92F4
:101A0000EF92FF920F931F93CF93DF936C017B01B3
:101A10008A0180910D01882309F45CC080914008FF
:101A2000882309F457C080915B0380FF05C0809133
:101A3000E00082608093E000E801B12C8AEFA82EDC
:101A400093E0892E2AE3922E209711F4BB20D9F13E
:101A50000E944A1681110AC0AA94AA20D9F161E015
:101A600070E080E090E00E949A16EECF282F30E0E0
:101A7000C217D3070CF48C2F9FB7F8948092E9001B
:101A80002091E80025FF1DC0282F30E0C21BD30B9A
:101A9000F701815020F041914093F100FACFE20E1E
:101AA000F31EBB2019F09092E8000AC08091E80074
:101AB00085FD07C09092E800BB24B394209709F0FD
:101AC000B12C9FBFC1CF5D9884E68093750310163B
:101AD000110644F081E090E0F6019383828380E078
:101AE00090E001C0C801DF91CF911F910F91FF904D
:101AF000EF90DF90CF90BF90AF909F908F90089520
:101B00000E944A1690E008950F931F93CF93DF939E
:101B10001F92CDB7DEB78C01FC018485958597FFB8
:101B20000EC0CE0101960E941C16019719F48981FE
:101B300090E002C08FEF9FEFF80195878487F8014E
:101B4000848595850F90DF91CF911F910F91089516
:101B5000CF93DF931F92CDB7DEB7FC0184859585C7
:101B600097FD05C02FEF3FEF358724870BC0CE01CF
:101B700001960E941C16019719F4898190E002C019
:101B80008FEF9FEF0F90DF91CF9108950F931F93E9
:101B9000CF93DF93EC0188819981009729F02A8106
:101BA0003B812617370788F48B016F5F7F4F0E94B8
:101BB0003725009761F0998388831B830A832C81E2
:101BC0003D81232B11F4FC01108281E001C080E0F3
:101BD000DF91CF911F910F910895CF93DF93EC0187
:101BE00088819981009711F00E94AE241982188291
:101BF0001D821C821B821A82DF91CF910895EF9281
:101C0000FF920F931F93CF93DF93EC017B018A0127
:101C1000BA010E94C60D811104C0CE010E94ED0DD3
:101C200007C01D830C83B701888199810E94142607
:101C3000CE01DF91CF911F910F91FF90EF9008950A
:101C4000FC01808191810C94AE24FB01DC01119692
:101C50001C921E9213961C921E92129715961C921D
:101C60001E9214978617970749F06081718161155C
:101C7000710521F0448155810C94FF0D0895FC01FC
:101C800011821082138212821582148261157105ED
:101C900051F0FB0101900020E9F73197AF01461B9D
:101CA000570B0C94FF0D08951F920F920FB60F92D1
:101CB00011248F939F938091E1009091E100937F95
:101CC0009093E10083FF0FC01092E90091E09093A0
:101CD000EB001092EC0092E39093ED00109240081C
:101CE00098E09093F00082FF20C093E09093E90089
:101CF0009091F200992319F09AE39093E800909163
:101D00007503992339F09091750391509093750361
:101D1000992389F190913F08992339F090913F08D8
:101D2000915090933F08992341F184FF10C0809116
:101D3000E2008E7E81608093E2008091E1008F7EE0
:101D40008093E10080915B038E7E806111C080FFF3
:101D500016C08091E2008E7E80618093E2008091C7
:101D6000E1008E7E8093E10080915B038E7E816036
:101D700080935B0304C05D9ACDCF289AD6CF9F9104
:101D80008F910F900FBE0F901F9018951F920F927A
:101D90000FB60F921124CF92DF92EF92FF920F9322
:101DA0001F932F933F934F935F936F937F938F93E3
:101DB0009F93AF93BF93EF93FF93CF93DF93CDB7F1
:101DC000DEB76C97DEBFCDBF1092E9008091E800CE
:101DD00083FFFBC168E0CE0145960E94540C82EF60
:101DE0008093E8008D8987FF05C09091E80090FFFF
:101DF000FCCF03C09EEF9093E800982F907609F0F7
:101E0000C6C09E894F89588D2F89F88C91110CC0BE
:101E1000803829F480915C038093F10002C0109215
:101E2000F1001092F10045C1913051F4811141C18E
:101E30004130510509F03DC180915C038D7F0BC09D
:101E4000933061F4811135C14130510509F031C140
:101E500080915C03826080935C032BC1953049F4D0
:101E60008091E80080FFFCCF822F80688093E300A0
:101E700020C1963009F05EC00B8D1C8D22E01092BF
:101E8000E9001092730310927203F21232C01092A2
:101E90007103109270030E94C80C99E0BE016F5F3D
:101EA0007F4FDB01E92F1D92EA95E9F79983FA82CA
:101EB00091E09E8390EA98879AEF99872091720328
:101EC00030917303275F3F4F3C832B838D831092A8
:101ED000E900109273031092720310937103009340
:101EE000700349E050E080E00E942D0C0E94C80C75
:101EF000E0C010937103009370030E945B16DC0135
:101F000012960D911C9113970115110509F4BBC090
:101F1000D801ED91FC910480F581E02DBE016B5E4E
:101F20007F4FC8010995009709F0C7C0F8010085E7
:101F30001185EACF973009F445C1983021F481E04A
:101F40008093F100B6C0993009F0B3C0837009F0F6
:101F500039C1E0E3F1E081E031E096E32081211135
:101F600009C08EE78093EA001092EA008F8980937F
:101F700040089FC08093E9003093EB0021912093AB
:101F8000EC009093ED008F5F873041F7EACF8B8DA7
:101F90009C8D1092E900109273031092720390933B
:101FA000710380937003898D811153C08E899D893F
:101FB000913A49F4813209F005C147E050E066E00A
:101FC00071E080E0BBC0913209F0FCC0833269F45B
:101FD0008F89988DA0E0B0E0809302019093030177
:101FE000A0930401B093050164C0803269F480912C
:101FF000E80082FFFCCF67E086E091E00E94540C8D
:102000008BEF8093E80055C0823209F052C08F896F
:1020100080930D01EEEFFFE7859194918B3F9C4DEE
:1020200019F0E0E0F8E002C0EEEFFAE0809106017E
:1020300090910701A0910801B0910901803B944063
:10204000A105B10509F09EC080910D0180FF79C006
:1020500099C00E945B16FC010281138101151105D4
:1020600009F4B0C0D801ED91FC910190F081E02D10
:10207000BE016B5E7F4FC801099581111AC0F8013E
:1020800000851185EBCFF1E0FF1609F44EC0F3E0B7
:10209000FF1298C08F89882309F44AC0823089F4DE
:1020A00040E860E182E793E00E94F80B882309F49E
:1020B00089C08EEF8093E80088C018161906CCF30B
:1020C00081C0813029F440E86BE086E693E0ECCFF4
:1020D000833009F077C00E945B16DC011296ED9008
:1020E000FC9013978E010F5F1F4F6801E114F104FC
:1020F00079F0D701ED91FC910680F781E02DB801D0
:10210000C7010995080F111DF701E084F184EECF96
:10211000D8011C92F60101900020E9F73197BF0128
:102120006C197D0940E0C601BFCF64E573E002C0D1
:1021300060E573E0FB01449150E080E80E942D0CC3
:10214000B8CFEE3F2AE0F20751F0808191818737C6
:10215000A7E79A0721F09093FF0A8093FE0A87E78A
:1021600097E79183808380916000809374039BE064
:1021700088E10FB6F894A895809360000FBE909305
:10218000600097CF808191818737974709F091CF81
:10219000A8958091600088618093600080917403AD
:1021A00080936000EE3FBAE0FB0739F08091FE0AB1
:1021B0009091FF0A918380837CCF1092FF0A109246
:1021C000FE0A77CF81E28093EB006C960FB6F8940D
:1021D000DEBF0FBECDBFDF91CF91FF91EF91BF91D9
:1021E000AF919F918F917F916F915F914F913F91AF
:1021F0002F911F910F91FF90EF90DF90CF900F9054
:102200000FBE0F901F901895DC01ED91FC9101908D
:10221000F081E02D09941F93CF93DF93EC01888127
:10222000806291E09093BF038093E1031092C0031A
:102230001092E20369817A8182E10E94791481E03F
:102240000E941D146881606270E042E050E0898164
:102250009A810E948B1489819A810E948314182F7D
:1022600089819A810E948314212F30E0A901582B83
:10227000CA01DF91CF911F9108951F93CF93DF93F0
:10228000EC01862F142F9881906221E02093BF03E8
:102290009093E1031092C0031092E20369817A8166
:1022A0000E94791469817A81812F0E94791481E0DA
:1022B000DF91CF911F910C941D14CF93DF93EC010C
:1022C000862F9881906221E02093BF039093E103D1
:1022D0001092C0031092E20369817A810E947914FE
:1022E00081E00E941D146881606270E041E050E06E
:1022F00089819A810E948B1489819A81DF91CF9183
:102300000C948314FF920F931F93CF93DF93EC01F0
:10231000162FF42E062F0770683010F065E101C00B
:1023200064E1CE010E945D1141E050E060E070E0A8
:1023300004C0440F551F661F771F0A95D2F7FF2070
:1023400011F0482B02C040954823183010F063E18B
:1023500001C062E1CE01DF91CF911F910F91FF90FB
:102360000C943D11FF920F931F93CF93DF93EC01D9
:10237000F42E683008F4022F162F1770602FCE014C
:102380000E945D1141E050E060E070E004C0440F45
:10239000551F661F771F1A95D2F7FF2011F0482BA3
:1023A00002C040954823602FCE01DF91CF911F914D
:1023B0000F91FF900C943D11AC0110924404909148
:1023C000940680919306FA01BF01641B750B20915E
:1023D0004404308130934404931304C0921302C028
:1023E000109244043191311104C0921769F3CB016A
:1023F00008953813E9CFF9CF6115710579F0FB0124
:1024000001900020E9F73197AF01461B570BDC0123
:10241000ED91FC910280F381E02D099480E090E041
:1024200008958F929F92AF92BF92EF92FF920F9377
:102430001F93CF93DF93CDB7DEB7A1970FB6F89474
:10244000DEBF0FBECDBF7C01FA01CB0119A2223045
:1024500008F42AE08E010F5D1F4F822E912CA12CD3
:10246000B12CBF01A50194010E943121F901CA01DB
:10247000015011096A3014F4605D01C0695CD80133
:102480006C93232B242B252B61F7B801C7010E94E5
:10249000FC11A1960FB6F894DEBF0FBECDBFDF9141
:1024A000CF911F910F91FF90EF90BF90AF909F90B1
:1024B0008F900895CF92DF92EF92FF920F931F9328
:1024C000CF93DF9377FF1DC06A017B01EC016DE2C2
:1024D0000E9404118C0144275527BA014C195D094B
:1024E0006E097F092AE0CE010E941112800F911F10
:1024F000DF91CF911F910F91FF90EF90DF90CF90E0
:1025000008952AE0DF91CF911F910F91FF90EF90F6
:10251000DF90CF900C9411120F931F93CF93C82F7D
:1025200000E916E060919306F801808191810E9494
:1025300004114C2F50E060E070E02AE0F801808147
:102540009181CF911F910F910C941112CF93DF9332
:1025500090E0FC01E352FC4F2491FC01E254FC4F5B
:1025600084918823C1F090E0880F991FFC01E05509
:10257000FC4FC591D491FC01EE55FC4FA591B4914F
:102580009FB7F8948881E22FE0958E2388838C9101
:10259000E823EC939FBFDF91CF910895CF93DF9312
:1025A00020913F04222391F0EC01609193068091E9
:1025B0009006909191060E940411BE0180919006B0
:1025C00090919106DF91CF910C94FC11DF91CF9106
:1025D0000895CF93DF9320913F042223D1F0EC01A3
:1025E0006091930680919006909191060E9404114B
:1025F00080919006909191064C815D8168817981EE
:10260000DC01ED91FC910280F381E02DDF91CF910F
:102610000994DF91CF910895CF93DF9320913F04E8
:102620002223A9F0EC01609193068091900690918D
:1026300091060E940411AE01DD0F660B770B8091AD
:10264000900690919106DF91CF910C945A12DF91F0
:10265000CF9108950F931F93CF93DF9380918806B6
:10266000882309F442C0813031F482E080938806E7
:10267000C8E4D4E002C0C0E0D0E08091890688239D
:1026800051F1209721F4C0918D06D0918E068E01D4
:10269000CE010E94DC11892B29F42196F80180815A
:1026A0008111F5CFF8018081882309F1C8010E94CA
:1026B000DC11F801E80FF91F8081882311F01082E6
:1026C0003196F0938E06E0938D06902F812F909394
:1026D0008B0680938C0680918B0690918C06892BBB
:1026E00021F081E08093890605C080E003C090E07E
:1026F00080E0EDCFDF91CF911F910F9108958091F0
:102700003F048823A1F060919206809190069091F9
:1027100091060E94041180914704882341F068E0EB
:1027200073E080919006909191060E94FC111092A6
:10273000460410923F0480E00895EF92FF920F93B9
:102740001F93CF93DF93EC01FB0104811581E0809F
:10275000F180E114F104C9F001151105C9F08C8173
:102760009D81080F191FB801CE010E94C60D882354
:1027700061F0288139818C819D81B701820F931F7F
:102780000E9414261D830C8303C0CE010E94ED0D10
:10279000CE01DF91CF911F910F91FF90EF9008959F
:1027A000EF92FF920F931F93CF93DF93CDB7DEB7D6
:1027B00062970FB6F894DEBF0FBECDBF8C01CB0180
:1027C000F8011182108213821282158214824AE06B
:1027D0009E012F5F3F4F7901B9010E945F1FF701F2
:1027E00001900020E9F73197AF014E195F09B70159
:1027F000C8010E94FF0D62960FB6F894DEBF0FBEAF
:10280000CDBFDF91CF911F910F91FF90EF90089571
:1028100090913F04911110C091E090933F049093E8
:102820004604482F50E060E070E02AE08091900676
:10283000909191060C9411120895282F3091E20383
:10284000313208F04AC08091BE038111FCCF9091D3
:10285000E10342E04093BE032093BD032FEF20939A
:10286000BC031092BB033093BA03E1ECF3E0AAE996
:10287000B3E020E0321721F041914D932F5FFACF62
:102880001092990320919903990F922B9093990399
:1028900090919803913061F410929803909199036C
:1028A0009093BB009091BC0093FDF8CF95EC01C0D4
:1028B00095EE9093BC009091BE039230E1F390911D
:1028C000BC039F3F79F08091BC03803241F080913E
:1028D000BC03803331F084E005C081E003C082E0B6
:1028E00001C083E01092C0031092E2031092BF0374
:1028F0000895DB01ED91FC9111970190F081E02D9D
:10290000682FCD010994DC01ED91FC910284F385DF
:10291000E02D099508958091BE038111FCCF4132CD
:1029200008F040E281E08093BE038093BD039FEFF7
:102930009093BC031092BB03940F9093BA038093BF
:10294000990380919903660F682B60939903809196
:102950009803813061F410929803809199038093D9
:10296000BB008091BC0083FDF8CF85EC01C085EEF3
:102970008093BC008091BE038130E1F38091BB0362
:10298000841710F44091BB03AAE9B3E0E8E7F3E051
:1029900080E0841721F09D9191938F5FFACF109280
:1029A000770380937603089590E0FC01ED57FC4F88
:1029B0004491FC01E352FC4F2491FC01E254FC4F92
:1029C0008491882309F44CC04423E1F150E0FA01DA
:1029D0003197EF30F105B0F5EF59FF4F0C946221BC
:1029E000909180009F7707C0909180009F7D03C0E9
:1029F00090918000977F9093800024C094B59F773A
:102A000002C094B59F7D94BD1DC0909190009F77AA
:102A100007C0909190009F7D03C090919000977F98
:102A2000909390000FC09091C0009F7703C0909149
:102A3000C0009F7D9093C00005C09091C200977F19
:102A40009093C200E82FF0E0EE0FFF1FEE55FC4F11
:102A5000A591B4918FB7F894EC91E22BEC938FBFD2
:102A600008953FB7F8948091460890914708A09147
:102A70004808B091490826B5A89B05C02F3F19F01A
:102A80000196A11DB11D3FBFBA2FA92F982F8827EE
:102A9000820F911DA11DB11DBC01CD0142E0660F49
:102AA000771F881F991F4A95D1F70895CF93DF9319
:102AB000EC01683008F067E0688383EE93E09A8366
:102AC000898310927703109276031092C0031092BC
:102AD000E2031092BE0381E08093BD03109298033D
:102AE00082E00E94D41483E00E94D4148091B90043
:102AF0008E7F8093B9008091B9008D7F8093B9005B
:102B000088E48093B80085E48093BC0081E692E07D
:102B1000909344088093430882E692E090934208A1
:102B2000809341084FEF60E0CE010E943D114FEFCE
:102B300061E0CE01DF91CF910C943D11CF93DF93F3
:102B400020913F042223D1F0EC0160919306809103
:102B50009006909191060E940411809190069091A8
:102B600091064C815D8168817981DC01ED91FC9158
:102B70000280F381E02DDF91CF910994DF91CF9115
:102B80000895CF93DF9390913F0491110AC0EB0118
:102B90000E940814CE010E940C13DF91CF910C9477
:102BA0007F1380E0DF91CF910895CF9390913F0400
:102BB00091110DC0C62F0E94081480913F048823F4
:102BC00019F08C2F0E948C12CF910C947F1380E00F
:102BD000CF9108950E942A13882359F081E08093B1
:102BE000890680938A0680918B0690918C060C94BE
:102BF000311F10928A0660E070E0CB010895CF93F8
:102C0000C62F0E94081480913F04882391F06091A0
:102C1000930680919006909191060E9404114C2F8A
:102C200050E060E070E080919006909191060E94E3
:102C30005A12CF910C947F1320914008211103C0A8
:102C40008FEF9FEF08955FB7F89422E02093E9009B
:102C50002091F20030E01216130614F421E030E067
:102C6000422FFC0184E6415038F0289880933F08B9
:102C70009091F1009193F7CF2115310521F08091CA
:102C8000F200882319F05FBFC90108958BE6809395
:102C9000E800F9CF2FB7F89483E08093E900909192
:102CA000E800892F807295FF04C09091F20080E4C3
:102CB000891B2FBF089580914E0881110DC082E0BD
:102CC00080934A0884E080934B0810924D0810923C
:102CD0004C0881E080934E088AE498E008958231A0
:102CE00008F08251E82FF0E0E450FC4FE49180912D
:102CF0007B00E3FB222720F930E095E0220F331F11
:102D00009A95E1F78F7D282B20937B00E770E06494
:102D1000E0937C0080917A00806480937A008091B7
:102D20007A0086FDFCCF809178002091790090E0B8
:102D3000922B08958F929F92AF92BF92CF92DF9283
:102D4000EF92FF926B017C010E9431154B015C01F7
:102D5000C114D104E104F104F1F00E943115DC0149
:102D6000CB0188199909AA09BB09883E9340A1059E
:102D7000B10570F321E0C21AD108E108F10888EE2C
:102D8000880E83E0981EA11CB11CC114D104E1047B
:102D9000F10419F7DDCFFF90EF90DF90CF90BF9057
:102DA000AF909F908F9008951F920F920FB60F9241
:102DB00011242F933F938F939F93AF93BF93809151
:102DC0003B0890913C08A0913D08B0913E0830919D
:102DD000450823E0230F2D3720F40196A11DB11DD6
:102DE00005C026E8230F0296A11DB11D20934508BA
:102DF00080933B0890933C08A0933D08B0933E0815
:102E00008091460890914708A0914808B0914908E0
:102E10000196A11DB11D8093460890934708A09389
:102E20004808B0934908BF91AF919F918F913F910E
:102E30002F910F900FBE0F901F9018950F931F9317
:102E4000CF93DF9300D000D000D0CDB7DEB7209174
:102E50003F04211114C08C0184E00E940814B801C1
:102E6000CE0101960E94250ECE0101960E949E156C
:102E7000CE0101960E94200E0E947F1301C080E0C7
:102E800026960FB6F894DEBF0FBECDBFDF91CF916F
:102E90001F910F910895AF92BF92CF92DF92EF9260
:102EA000FF920F931F93CF93DF9300D000D000D0F9
:102EB000CDB7DEB75C016B017A01890181E00E9428
:102EC00008148BE093E00E94CE1280913F04882387
:102ED00091F06091930680919006909191060E94E6
:102EE0000411A501BB0C660B770B809190069091A5
:102EF00091060E945A12B601CE0101960E94250E3B
:102F0000CE0101960E949E15CE0101960E94200ED0
:102F10008FE093E00E94CE1282E193E00E94CE12F5
:102F2000B701CE0101960E94250ECE0101960E94A6
:102F30009E15CE0101960E94200EB801CE01019689
:102F40000E94250ECE0101960E949E15CE0101968B
:102F50000E94200E0E947F1326960FB6F894DEBFC3
:102F60000FBECDBFDF91CF911F910F91FF90EF90DA
:102F7000DF90CF90BF90AF900895789484B5826031
:102F800084BD84B5816084BD85B5826085BD85B50D
:102F9000816085BD80916E00816080936E0010928B
:102FA0008100809181008260809381008091810006
:102FB0008160809381008091800081608093800097
:102FC0008091910082608093910080919100816056
:102FD0008093910080919000816080939000809117
:102FE000C10084608093C1008091C10082608093A1
:102FF000C1008091C10081608093C1008091C300B5
:1030000081608093C3008091C00082608093C00083
:103010008091C20081608093C20080917A008460B8
:1030200080937A0080917A00826080937A00809108
:103030007A00816080937A0080917A008068809322
:103040007A001092400810925C0310925B0380910A
:10305000D70081608093D70080EA8093D80089B53B
:10306000806189BD89B5826089BD09B400FEFDCF4C
:1030700061E070E080E090E00E949A168091D800B4
:103080008F7C80618093D8008091E000807F809366
:10309000E0008091E1008E7E8093E1008DE08093DE
:1030A000E200559A209A8FEF9FEF9093FC03809354
:1030B000FB0383E10E94A61289E00E94A61288E029
:1030C0000E94A61285E10E94A61282E10E94A61229
:1030D00084E10E94A61260E08DE593E00E945615FF
:1030E00064E083E693E00E94561562E080E693E098
:1030F0000E945615C0E001E020E040E06C2F8DE515
:1031000093E00E94B21140E06C2F8DE593E00E94A5
:10311000821120E041E06C2F83E693E00E94B2111F
:103120000DE02CE041E06C2F83E693E00E94B211A9
:1031300001E020E041E06C2F80E693E00E94B211B4
:103140000DE02CE041E06C2F80E693E00E94B2118C
:10315000CF5FC03181F601E020E040E067E080E62B
:1031600093E00E94B21144E040939B0710929D07A8
:1031700010929C0710929E0710929F0781E090E0AA
:103180009093A1078093A00725E02093A20729E14F
:103190003CEF3093A4072093A3075FEF5093A5075C
:1031A0001092A8071092A9073093AE072093AD079D
:1031B0005093AF071092B2071092B3073093B8073D
:1031C0002093B7074093B9071092BB071092BA0734
:1031D0001092BC071092BD079093BF078093BE0763
:1031E00068E06093C0073093C2072093C10761E293
:1031F0006093C3079093C5078093C4071092C607D6
:103200001092C70762E070E07093C9076093C80727
:103210001092CA073093CC072093CB074093CD0779
:103220001092CF071092CE071092D0071092D107BC
:103230001092D3071092D2074093D4077093D60709
:103240006093D5074093D7071092D9071092D807FB
:103250001092DA071092DB071092DD071092DC075C
:103260004093DE07E3E0F0E0F093E007E093DF0750
:103270004093E1071092E3071092E2071092E407EF
:103280001092E5071092E7071092E6074093E807CF
:10329000A4E0B0E0B093EA07A093E9074093EB07FE
:1032A0001092ED071092EC071092EE071092EF07C4
:1032B0009093F1078093F007C6E0C093F207309334
:1032C000F4072093F3074093F5071092F707109245
:1032D000F6071092F8071092F9071092FB07109268
:1032E000FA07C7E0C093FC073093FE072093FD0761
:1032F0004093FF07109201081092000810920208F4
:10330000109203081092050810920408CEE0C093B2
:103310000608309308082093070840930908109284
:103320000B0810920A0810920C0810920D08909346
:103330000F0880930E08C1E0C093100808E010E069
:103340001093120800931108D9E1D0931D089093AF
:103350001F0880931E081092200810922108709375
:1033600023086093220810922408309326082093A3
:103370002508DAE1D0931308909315088093140878
:103380001092160810921708709319086093180885
:1033900010921A0830931C0820931B08DBE1D0938D
:1033A00031089093330880933208109234081092B9
:1033B00035087093370860933608109238083093B8
:1033C0003A0820933908DCE1D09327089093290824
:1033D0008093280810922A0810922B0870932D08C9
:1033E00060932C0810922E083093300820932F08F9
:1033F0005093FB061092FE061092FF0630930407CE
:1034000020930307509305071092080710920907AD
:1034100030930E0720930D0750930F071092120759
:10342000109213073093180720931707D0E2D09318
:10343000190790931B0780931A0710921C0710928C
:103440001D0770931F0760931E071092200730938B
:10345000220720932107D2E2D093230790932507D8
:10346000809324071092260710922707709329074C
:103470006093280710922A0730932C0720932B077C
:10348000D3E2D0932D0790932F0780932E071092AD
:103490003007109231077093330760933207109210
:1034A0003407309336072093350750934107109225
:1034B00044071092450730934A07209349075093D9
:1034C0004B0710924E0710924F07309354072093EA
:1034D000530740939107109293071092920710920E
:1034E000940710929507909397078093960722E090
:1034F0002093980706E010E010939A07009399072D
:1035000040938707109289071092880710928A07C4
:1035100010928B0790938D0780938C0720938E07D2
:10352000F0939007E0938F0740937D0710927F07F9
:1035300010927E0710928007109281079093830764
:1035400080938207C0938407F0938607E0938507F2
:1035500040937307109275071092740710927607C4
:1035600010927707909379078093780720937A07D2
:10357000B0937C07A0937B074093690710926B0779
:1035800010926A0710926C0710926D0790936F0764
:1035900080936E0720937007E5E0F0E0F0937207E8
:1035A000E093710740935F071092610710926007E4
:1035B00010926207109263079093650780936407E7
:1035C00020936607709368076093670740935507D9
:1035D00010925707109256071092580710925907E9
:1035E00090935B0780935A0720935C0790935E0744
:1035F00080935D078FEE92E09093960680939506F8
:103600008BE196E090939806809397068CE693E082
:103610009093AC068093AB0684E693E09093AE065D
:103620008093AD068CE593E09093B0068093AF064F
:1036300084E593E09093B2068093B1068CE493E026
:103640009093B4068093B30684E493E09093B60617
:103650008093B5068CE393E09093B8068093B70609
:1036600084E093E09093BE068093BD0688E799E0DE
:103670009093BC068093BB0689E595E09093C006C5
:103680008093BF0684E393E09093C2068093C106C3
:1036900087E293E09093C4068093C3068FE193E0A2
:1036A0009093C6068093C50687E193E09093C80681
:1036B0008093C70684E793E09093D2068093D10667
:1036C00087E993E09093D4068093D3068FE093E04C
:1036D0009093D6068093D50680EF92E09093E00613
:1036E0008093DF068824839444244A9433E0532E45
:1036F000612C712C9924939483E693E00E940B1122
:103700007C01E094F09420906803309069032E24AB
:103710003F240BE917E0C0E0D0E0BE010D2E000C05
:10372000880B990B0E94A31F9B01AC0160E070E025
:1037300080E090E40E941F225B016C0120E030E0F9
:10374000A9010E941A2220E030E040E05FE387FDFB
:1037500005C0C601B5010E94782104C0C601B501AB
:103760000E9477210E94E42162217321672B29F1B5
:10377000D80114968C9220E030E0A901C601B50171
:103780000E941A2220E030E040E05FE387FD05C0A0
:10379000C601B5010E94782104C0C601B5010E948E
:1037A00077210E94E4216E217F210C2E02C07695A4
:1037B00067950A94E2F7F80163832196065F1F4F2D
:1037C000C031D10509F0A9CFF0926903E0926803F6
:1037D00080E693E00E940B117C01E094F09420902D
:1037E0006603309067032E243F240BEF16E0C0E001
:1037F000D0E0D8018C918F3F09F450C0BE010D2E4E
:10380000000C880B990B0E94A31F9B01AC0160E088
:1038100070E080E090E40E941F225B016C0120E0D8
:1038200030E0A9010E941A2220E030E040E05FE38E
:1038300087FD05C0C601B5010E94782104C0C601FC
:10384000B5010E9477210E94E42162217321672B38
:1038500029F1F801848220E030E0A901C601B50118
:103860000E941A2220E030E040E05FE387FD05C0BF
:10387000C601B5010E94782104C0C601B5010E94AD
:1038800077210E94E4216E217F210C2E02C07695C3
:1038900067950A94E2F7D80113966C932196065F18
:1038A0001F4FC031D10509F0A4CFF0926703E09219
:1038B00066038BE997E00E949F098BEF96E00E94D8
:1038C0009F0983E10E946F169C01ACE9BFEF0E9443
:1038D0006821A30192010E94D02069017A01B4E617
:1038E000CB0ED11CE11CF11C80916A0390E08C1975
:1038F0009D0997FF03C09195819591090597DCF08B
:10390000B60182E190E00E945C0BB60183E190E099
:103910000E945C0BB60181E190E00E945C0BB60155
:1039200085E190E00E945C0BB60184E190E00E948A
:103930005C0BC0926A0389E00E946F169C01ACE99F
:10394000BFEF0E946821A30192010E94D02069016B
:103950007A01E4E6CE0ED11CE11CF11C80916B03D0
:1039600090E08C199D0997FF03C09195819591096D
:10397000059764F0B60186E190E00E945C0BB60109
:1039800087E190E00E945C0BC0926B0388E00E948C
:103990006F169C01ACE9BFEF0E946821A301920160
:1039A0000E94D02069017A01F4E6CF0ED11CE11CFF
:1039B000F11C80916C0390E08C199D0997FF03C066
:1039C00091958195910905978CF0B60180E190E081
:1039D0000E945C0BB6018FE090E00E945C0BB60188
:1039E0008EE090E00E945C0BC0926C0385E10E9427
:1039F0006F169C01ACE9BFEF0E946821A301920100
:103A00000E94D02069017A0184E6C80ED11CE11C15
:103A1000F11C960140916D03842F90E08C199D0953
:103A200097FF03C09195819591090597F4F02115B1
:103A3000310511F480E006C0121613062CF4411172
:103A400003C081E00E941105B6018BE090E00E9466
:103A50005C0BB6018DE090E00E945C0BB6018CE03F
:103A600090E00E945C0BC0926D0382E10E946F1691
:103A70009C01ACE9BFEF0E946821A30192010E9462
:103A8000D020BA01A9014C595F4F6F4F7F4F8091F1
:103A90006E0390E0841B950B97FF03C09195819571
:103AA0009109059714F040936E0384E10E946F160C
:103AB00024E630E0DC010E947021A30192010E9403
:103AC000D02069017A0180916F0390E0821B930BF3
:103AD00097FF03C091958195910905975CF184E06A
:103AE0000E94081480EF92E00E94CE1280913F0461
:103AF0008823E1F060919306809190069091910661
:103B00000E940411AFEFBFE3A70196010E94EF20CE
:103B100024E630E040E050E00E94D020BA01A90144
:103B200080919006909191060E945A120E947F13F4
:103B3000C0926F03809146048111E4C08091900689
:103B400090919106DC01ED91FC910084F185E02DCE
:103B50000995892B09F4D6C0809190069091910621
:103B6000DC01ED91FC910084F185E02D0995811532
:103B700092400CF0C3C08091900690919106DC01B8
:103B8000ED91FC910084F185E02D09957C01C091B7
:103B90009006D091910628E8A22E24E0B22E65016D
:103BA00000E010E0E016F10619F4C0E0D0E066C0D5
:103BB0002FB7F89480913B0890913C08A0913D0864
:103BC000B0913E082FBF88879987AA87BB87E88175
:103BD000F9810284F385E02DCE01099597FFA0C0FD
:103BE0002FB7F89480913B0890913C08A0913D0834
:103BF000B0913E082FBF488559856A857B85841B17
:103C0000950BA60BB70B4C815D816E817F8184176C
:103C10009507A607B707D8F2C8CFF50191915F01C4
:103C200010928806309194062091450490934504A3
:103C3000931741F14091920680914104E82FF0E002
:103C4000E15CFB4F941323C0321709F111868823DE
:103C500021F090928806109245041092410410922F
:103C60008C0610928B0610928E0610928D06909202
:103C7000890610918806113099F02196EC16FD0600
:103C800061F658CF9213D6CF10924504D3CF9187C7
:103C90008F5F80934104909143048917F0F6E9CF38
:103CA0000E942A13882359F01093890610938A06DC
:103CB00080918B0690918C060E94131F04C0109275
:103CC0008A0680E090E080934004823378F420916B
:103CD0008A06222359F0FC01FF27EE0FFF1FE95649
:103CE000F94F0190F081E02D309731F4E091950685
:103CF000F0919606309709F20995BFCFE12C82E04A
:103D0000F82E45CF64E670E080E090E00E949A16BD
:103D1000E0E0F0E0EF2B09F4EFCC0E940000ECCCE7
:103D2000D6018D936D010F5F1F4F3CCF1092F203B0
:103D30001092F10388EE93E0A0E0B0E08093F303EB
:103D40009093F403A093F503B093F6032AE331E0D4
:103D50003093F0032093EF032FEF3FEF3093FC03FA
:103D60002093FB031092E6031092E5038093E70390
:103D70009093E803A093E903B093EA038CE491E005
:103D80009093E4038093E3031092960610929506B5
:103D90008FEE93E0909391068093900610924704E3
:103DA0008CE2809393068BE3809392068FE280935C
:103DB000940680E4809342048FE38093430410923E
:103DC000410410928C0610928B0610928E0610926F
:103DD0008D0681E080938906E7E9F6E08BEF96E0B7
:103DE000119211928E179F07D9F710924604EBE9B2
:103DF000F7E08BE398E029E13CEF138214823187EE
:103E000020873A968E179F07C1F7EBEFF6E089E11E
:103E10009CEF13821482918780873A9627E0EB39D2
:103E2000F207B9F70895FC0188279927E8942191B2
:103E30002032E9F3293010F02E30C8F32B3241F054
:103E40002D3239F4689404C00E947F1F820F911DA7
:103E5000219120532A30C0F31EF4909581959F4FF5
:103E600008951F93FC0199278827BC01E8941191BC
:103E70001032E9F3193010F01E30C8F31B3251F044
:103E80001D3249F4689406C00E946A1F610F711DBB
:103E9000811D911D119110531A30B0F33EF490958D
:103EA0008095709561957F4F8F4F9F4F1F9108951B
:103EB000FB01DC0105900D920020E1F70895BB277E
:103EC0004A3031F4992322F4BDE2909581959F4FB9
:103ED0000C94881F592F482F372F262F660F771FD6
:103EE000881F991F660F771F881F991F620F731F06
:103EF000841F951F660F771F881F991F08957AE00A
:103F0000979F902D879F802D910D11240895BB2799
:103F1000FB015527AA27880F991FAA1FA41710F085
:103F2000A41B83955051B9F7A05DAA3308F0A95D91
:103F3000A193009779F7B111B1931192CB010C9431
:103F40006F20E89409C097FB3EF49095809570959A
:103F500061957F4F8F4F9F4F9923A9F0F92F96E9D5
:103F6000BB279395F695879577956795B795F1114A
:103F7000F8CFFAF4BB0F11F460FF1BC06F5F7F4FE7
:103F80008F4F9F4F16C0882311F096E911C07723F9
:103F900021F09EE8872F762F05C0662371F096E802
:103FA000862F70E060E02AF09A95660F771F881FD1
:103FB000DAF7880F9695879597F90895990F000875
:103FC000550FAA0BE0E8FEEF16161706E807F907EB
:103FD000C0F012161306E407F50798F0621B730B86
:103FE000840B950B39F40A2661F0232B242B252B07
:103FF00021F408950A2609F4A140A6958FEF811DAA
:10400000811D08950E9415200C9496200E948820FE
:1040100038F00E948F2020F0952311F00C947F201F
:104020000C94852011240C94CA200E94A72070F3C0
:10403000959FC1F3950F50E0551F629FF001729F4D
:10404000BB27F00DB11D639FAA27F00DB11DAA1F5C
:10405000649F6627B00DA11D661F829F2227B00DA9
:10406000A11D621F739FB00DA11D621F839FA00D34
:10407000611D221F749F3327A00D611D231F849F84
:10408000600D211D822F762F6A2F11249F575040DB
:104090009AF0F1F088234AF0EE0FFF1FBB1F661F56
:1040A000771F881F91505040A9F79E3F510580F01F
:1040B0000C947F200C94CA205F3FE4F3983ED4F325
:1040C000869577956795B795F795E7959F5FC1F7C3
:1040D000FE2B880F911D9695879597F90895DC0121
:1040E000FC01672F71917723E1F7329704C07C912F
:1040F0006D9370836291AE17BF07C8F3089597F967
:104100009F6780E870E060E008959FEF80EC08957D
:1041100000240A94161617061806090608950024A6
:104120000A9412161306140605060895092E039420
:10413000000C11F4882352F0BB0F40F4BF2B11F494
:1041400060FF04C06F5F7F4F8F4F9F4F089557FDF3
:104150009058440F551F59F05F3F71F04795880FF5
:1041600097FB991F61F09F3F79F08795089512168C
:1041700013061406551FF2CF4695F1DF08C0161638
:1041800017061806991FF1CF8695710561050894E9
:104190000895E894BB2766277727CB0197F9089500
:1041A000052E97FB1EF400940E94E72057FD07D0D0
:1041B0000E94312107FC03D04EF40C94E720509567
:1041C0004095309521953F4F4F4F5F4F0895909503
:1041D0008095709561957F4F8F4F9F4F08950E94F6
:1041E0005321A59F900DB49F900DA49F800D911D0C
:1041F000112408952F923F924F925F926F927F9277
:104200008F929F92AF92BF92CF92DF92EF92FF92E6
:104210000F931F93CF93DF93CDB7DEB7CA1BDB0B92
:104220000FB6F894DEBF0FBECDBF09942A88398837
:1042300048885F846E847D848C849B84AA84B9843E
:10424000C884DF80EE80FD800C811B81AA81B9814A
:10425000CE0FD11D0FB6F894DEBF0FBECDBFED015E
:104260000895A1E21A2EAA1BBB1BFD010DC0AA1FB7
:10427000BB1FEE1FFF1FA217B307E407F50720F0CF
:10428000A21BB30BE40BF50B661F771F881F991F4A
:104290001A9469F760957095809590959B01AC0193
:1042A000BD01CF010895A29FB001B39FC001A39F9C
:1042B000700D811D1124911DB29F700D811D11245F
:1042C000911D0895EE0FFF1F0590F491E02D0994C4
:1042D0000E945321332312F48A1B9B0B0C947221EE
:1042E0000E945321B7FF0895821B930B08955058E5
:1042F000BB27AA270E948F210C9496200E94882019
:1043000038F00E948F2020F039F49F3F19F426F4F2
:104310000C9485200EF4E095E7FB0C947F20E92FA8
:104320000E94A72058F3BA176207730784079507FE
:1043300020F079F4A6F50C94C9200EF4E0950B2E2C
:10434000BA2FA02D0B01B90190010C01CA01A001E7
:104350001124FF27591B99F0593F50F4503E68F142
:104360001A16F040A22F232F342F4427585FF3CF83
:10437000469537952795A795F0405395C9F77EF454
:104380001F16BA0B620B730B840BBAF09150A1F09D
:10439000FF0FBB1F661F771F881FC2F70EC0BA0F23
:1043A000621F731F841F48F4879577956795B795AB
:1043B000F7959E3F08F0B0CF9395880F08F09927A6
:1043C000EE0F9795879508950E94EB216894B1119F
:1043D0000C94CA2008950E94AF2088F09F5798F04F
:1043E000B92F9927B751B0F0E1F0660F771F881FFA
:1043F000991F1AF0BA95C9F714C0B13091F00E9414
:10440000C920B1E008950C94C920672F782F882720
:10441000B85F39F0B93FCCF3869577956795B3953A
:10442000D9F73EF490958095709561957F4F8F4FA9
:104430009F4F08950E94DE1F08F48FEF0895FA0140
:10444000EE0FFF1F309621053105A1F161157105B1
:1044500061F48038BFE39B0749F168949038810587
:1044600061F08038BFEF9B0741F099234AF5FF3F89
:10447000E1053105210519F1E8940894E795D90182
:10448000AA2329F4AB2FBE2FF85FD0F310C0FF5F33
:1044900070F4A695E0F7F73950F019F0FF3A38F4C8
:1044A0009F779F930DD00F9007FC9058089546F08A
:1044B0000C94852060E070E080E89FE308954FE76A
:1044C0009F775F934F933F932F930E941A232F91CF
:1044D0003F914F915F910E9402200C94772229F422
:1044E00016F00C947F200C94C9200C9485200E9417
:1044F000AF20A8F39638A0F707F80F92E8942BE3C3
:104500003AEA48EB5FE70E9418200F920F920F9251
:104510004DB75EB70F920E946223E0EEF0E00E947A
:10452000A9224F915F91EF91FF91E595EE1FFF1F3B
:1045300049F0FE57E0684427EE0F441FFA95E1F773
:104540004195550B0E94DC220F9007FE0C94D0225F
:104550000895DF93CF931F930F93FF92EF92DF9213
:104560007B018C01689406C0DA2EEF010E941520B1
:10457000FE01E894A5912591359145915591A6F3B9
:10458000EF010E948F21FE019701A801DA9469F7DB
:10459000DF90EF90FF900F911F91CF91DF910895E1
:1045A0009B01AC0160E070E080E89FE30C949623EF
:1045B0000C947F200C9408240E94AF20D8F39923F8
:1045C000C9F3940F511DA3F39150504094F059F04A
:1045D000882332F0660F771F881F91505040C1F733
:1045E0009E3F51052CF7880F911D9695879597F959
:1045F00008955F3FACF0983E9CF0BB278695779579
:104600006795B79508F4B1609395C1F7BB0F58F75C
:1046100011F460FFE8CF6F5F7F4F8F4F9F4FE3CF65
:104620000C94CA2016F00C9408240C9485206894ED
:104630000C947F200E94AF20A8F39923C1F3AEF31E
:10464000DF93CF931F930F93FF92C92FDD2788230A
:104650002AF02197660F771F881FDAF720E030E0F5
:1046600040E85FEB9FE3883920F0803E38F02196E8
:104670008F770E947821E8E0F1E004C00E94782161
:10468000E5E3F1E00E94A9228B01BE01EC01FB2EC3
:104690006F5771097595771F880B990B0E94A31F9F
:1046A00028E132E741E35FE30E941520AF2D980136
:1046B000AE01FF900F911F91CF91DF910E948F214A
:1046C0000C949620FA01DC01AA0FBB1F9B01AC01E0
:1046D000BF5728F4222733274427507820C0B751EA
:1046E00090F4AB2F0024469537952795011CA39590
:1046F000D2F3002071F0220F331F441FB395DAF379
:104700000ED00C94772161307105A0E88A07B94674
:1047100030F49B01AC016627772788279078309684
:1047200021F0208331834283538308950E94AA237A
:104730000C9496200E948F2058F00E94882040F010
:1047400029F45F3F29F00C947F2051110C94CA206A
:104750000C9485200E94A72068F39923B1F3552378
:1047600091F3951B550BBB27AA2762177307840784
:1047700038F09F5F5F4F220F331F441FAA1FA9F31A
:1047800035D00E2E3AF0E0E832D091505040E69508
:10479000001CCAF72BD0FE2F29D0660F771F881F69
:1047A000BB1F261737074807AB07B0E809F0BB0B5C
:1047B000802DBF01FF2793585F4F3AF09E3F510570
:1047C00078F00C947F200C94CA205F3FE4F3983E6D
:1047D000D4F3869577956795B795F7959F5FC9F759
:1047E000880F911D9695879597F90895E1E0660FDA
:1047F000771F881FBB1F621773078407BA0720F053
:10480000621B730B840BBA0BEE1F88F7E0950895BB
:104810009F3F31F0915020F4879577956795B79534
:10482000880F911D9695879597F908950F931F937B
:10483000CF93DF938230910510F482E090E0E09115
:104840005808F091590820E030E0A0E0B0E030973F
:1048500019F1408151810281138148175907C8F02D
:104860008417950769F4109731F012960C931297FC
:1048700013961C9327C0009358081093590822C020
:104880002115310519F04217530718F49A01BD019B
:10489000EF01DF01F801DBCF21153105F9F0281B0D
:1048A000390B2430310580F48A819B8161157105B3
:1048B00021F0FB019383828304C090935908809375
:1048C0005808FE01329644C0FE01E20FF31F8193A7
:1048D000919322503109398328833AC02091560898
:1048E00030915708232B41F4209110013091110190
:1048F000309357082093560820910E0130910F01F4
:104900002115310541F42DB73EB740911201509168
:104910001301241B350BE0915608F0915708E2175C
:10492000F307A0F42E1B3F0B2817390778F0AC01D2
:104930004E5F5F4F2417350748F04E0F5F1F5093AF
:104940005708409356088193919302C0E0E0F0E04D
:10495000CF01DF91CF911F910F910895CF93DF93F6
:10496000009709F481C0FC01329713821282A09152
:104970005808B0915908109781F420813181820F35
:10498000931F20915608309157082817390751F581
:10499000F0935708E093560867C0ED0120E030E03F
:1049A000CE17DF0740F44A815B819E014115510516
:1049B000F1F0EA01F5CFD383C28340815181840FA6
:1049C000951FC817D90759F488819981840F951FBD
:1049D0000296918380838A819B81938382832115B0
:1049E000310529F4F0935908E09358083DC0E901D6
:1049F000FB83EA8349915991C40FD51FEC17FD073A
:104A000061F480819181840F951F0296E901998359
:104A10008883828193819B838A83E0E0F0E0129611
:104A20008D919C911397009719F0FD01DC01F7CF50
:104A30008D919C9111979D012E5F3F4F820F931F87
:104A400020915608309157082817390769F4309794
:104A500029F4109259081092580802C01382128249
:104A6000B0935708A0935608DF91CF910895A0E026
:104A7000B0E0EDE3F5E20C94FE20EC01009721F4A8
:104A8000CB010E941624B4C0FC01E60FF71F9C0165
:104A900022503109E217F30708F4A8C0D9010D919B
:104AA0001C91119706171707B0F00530110508F48F
:104AB0009BC0C80104978617970708F495C0025059
:104AC0001109061B170B019311936D937C93CF0172
:104AD0000E94AE2489C05B01A01AB10A4C01800E6D
:104AE000911EA0915808B0915908612C712CE12CAD
:104AF000F12C109709F446C08D919C911197A8153F
:104B0000B905B1F56C0142E0C40ED11CCA14DB0436
:104B100078F14C018A189B08640142E0C40ED11C54
:104B20001296BC9012971396AC91B5E0CB16D104B7
:104B300040F0B282A38391828082D9016D937C93ED
:104B400009C00E5F1F4F800F911FF9019183808371
:104B5000EB2DFA2FE114F10431F0D7011396FC93F9
:104B6000EE93129741C0F0935908E09358083CC067
:104B70006816790608F43C017D0112960D90BC91EF
:104B8000A02DB7CF809156089091570888169906A6
:104B9000E1F466167706C8F480910E0190910F013A
:104BA000009741F48DB79EB74091120150911301C7
:104BB000841B950BE817F907C8F4F0935708E093A6
:104BC0005608F901718360830FC0CB010E9416243F
:104BD0007C01009759F0A801BE010E940226CE0177
:104BE0000E94AE24C70104C0CE0102C080E090E064
:104BF000CDB7DEB7EEE00C941A2181E090E0F89496
:104C00000C941B26FB01DC0102C001900D92415067
:104C10005040D8F70895FB01DC018D910190801977
:104C20000110D9F3990B0895FB01DC0101900D925D
:0A4C30000020E1F70895F894FFCF8B
:104C3A000300FFFFFFFF00E100000000000000008A
:104C4A005A082000010203020005000100040003C3
:104C5A000006000A000B000C000D000E000F0000F9
:104C6A00C18081000000000000008B0CFA0C800D4E
:104C7A00A10CAC0CA80D840D00000000BC028F0230
:104C8A00EC0263028702730264024D5346533A47A9
:104C9A004C415245534849454C445F4C4947485456
:104CAA00535F4F4E004D5346533A474C415245537A
:104CBA004849454C445F4C49474854535F4F464620
:104CCA0000535542534352494245004D5346533AC5
:104CDA000053494D434F4E4E4543543A00494E49BD
:104CEA0054005350414400434A20437573746F6D16
:104CFA002050616E656C0050494E4700504F4E4738
:104D0A0000434F4E464947004655454C5359535464
:104D1A00454D2050554D50204143544956453A007F
:104D2A004655454C53595354454D2056414C5645CA
:104D3A00205357495443483A33004155544F20426F
:104D4A0052414B452053574954434820434200415E
:104D5A00505520535749544348003F0073776974AC
:104D6A00636865732F454E47315F5354415254452A
:104D7A00525F4D41535445520073776974636865B5
:104D8A00732F454E47325F535441525445525F4D3B
:104D9A0041535445520073776974636865732F45AC
:104DAA004E475F4D4F44455F53535F4352414E4B0D
:104DBA000073776974636865732F454E475F4D4F7B
:104DCA0044455F53535F5354415254007377697497
:104DDA00636865732F4252414B4500737769746368
:104DEA006865732F474E445F53504F494C45525F95
:104DFA0041524D0073776974636865732F414E544D
:104E0A0049534B4944004D5346533A4C4947485439
:104E1A005F504F54454E54494F4D455445525F00DB
:104E2A0053494D434F4E4E4543543A53504F494CC4
:104E3A004552535F534554000D0A004144440055FE
:064E4A0038005257000081
:00000001FF
